:020000040800F2
:1000000050E600203D810008950800089708000888
:10001000990800089B0800089D08000800000000DF
:100020000000000000000000000000009F08000821
:10003000A108000800000000A3080008A5080008A7
:100040005781000857810008578100085781000830
:100050005781000857810008578100085781000820
:100060005781000857810008578100085781000810
:100070005781000857810008578100085781000800
:1000800057810008578100085781000857810008F0
:1000900057810008578100085781000857810008E0
:1000A00057810008578100085781000857810008D0
:1000B000A7080008DB0800080F090008578100089E
:1000C00057810008578100085781000857810008B0
:1000D000578100082B0A0008313C000857810008AE
:1000E0005781000857810008578100085781000890
:1000F0005781000857810008578100085781000880
:10010000578100085781000857810008578100086F
:10011000578100085781000857810008578100085F
:10012000578100085781000857810008578100084F
:1001300000F002F800F0B0F80AA090E8000C824449
:100140008344AAF10107DA4501D100F0A5F8AFF226
:10015000090EBAE80F0013F0010F18BFFB1A43F0A5
:10016000010318478CB90000ACB900000A444FF0F5
:10017000000C10F8013B13F0070408BF10F8014B06
:100180001D1108BF10F8015B641E05D010F8016B4B
:10019000641E01F8016BF9D113F0080F1EBF10F8AF
:1001A000014BAD1C0C1B09D16D1E58BF01F801CBD2
:1001B000FAD505E014F8016B01F8016B6D1EF9D555
:1001C0009142D6D37047000000230024002500266A
:1001D000103A28BF78C1FBD8520728BF30C148BFAA
:1001E0000B6070476E2908F0F082702908F0718664
:1001F00066290BF00F8265290BF00C8267290BF042
:1002000009826129AFF3008003681B0A28BF41F00F
:100210008001692908F0FA80642908F0F7807529BF
:1002200008F0F4806F2908F0FE85782908F03D86F3
:10023000E92908F09985E42908F09685F52908F060
:100240009385EF2908F0FB85F82908F03C860368C0
:10025000DB0928BF41F08001632908F00885732974
:1002600008F00D85E32908F0D786F32908F0DC862D
:10027000002070471FB508F037FE04000020002161
:100280000AF0CCF9401C6060002000210AF0B0F9AF
:10029000E0601FBD10B510BD08F064FF1146FFF708
:1002A000E9FF00F0B6FA08F08BFF03B4FFF7F2FFA6
:1002B00003BC02F0D7F8000001B502E00098401E30
:1002C000009000980028F9D108BD70B506F0CAF872
:1002D0004FF48035284606F0DEF806F00AF9FE49AC
:1002E0000870012829D1102007F0E6FC022007F051
:1002F000D3FC002006F037F9002006F042F9002078
:1003000006F038F9AC10204606F052F94FF4E0112F
:10031000284606F011F9204606F04AF9012006F0B9
:1003200013F9392006F0D0F80028FAD0022006F0A0
:100330000EF906F013F90828FBD170BD2DE9F84F2E
:100340000121052006F0B1F90121082006F0ADF9E0
:100350000121402006F0A9F90121202006F0A5F98D
:100360004FF40070ADF800004FF018088DF80380CE
:1003700003248DF802406946D84805F090FF4FF4F9
:100380008060ADF8000004268DF803606946D3480C
:1003900005F085FF4FF40069ADF8009010258DF849
:1003A00003508DF802406946CC4805F078FF80275D
:1003B000ADF800708DF803508DF802406946C748CB
:1003C00005F06DFF4020ADF800004FF0280A8DF8D1
:1003D00003A08DF80240DFF808B36946584605F0DF
:1003E0005EFFADF800708DF803A08DF802406946FD
:1003F000584605F054FFADF800908DF803508DF885
:1004000002406946584605F04AFF6802ADF8000010
:100410008DF803508DF802406946584605F03FFFBD
:10042000A802ADF800008DF803508DF8024069462F
:10043000584605F034FF4FF47F40ADF800008DF8CA
:1004400003508DF802406946A64805F028FF802138
:10045000A24805F093FFADF800608DF803808DF899
:10046000024069469D4805F01AFF0820ADF80000DB
:100470008DF803606946994805F011FF04219748FB
:1004800005F07EFFBDE8F88F2DE9FF4101218803CB
:1004900006F00BF9DFF85082404606F05DF94FF4A4
:1004A000E13600960024ADF80440ADF80640ADF802
:1004B0000840ADF80C400C25ADF80A50694640469E
:1004C00006F092F940F2255701223946404606F0DF
:1004D00012FA0121404606F002FA0121480406F012
:1004E000EFF8DFF80882404606F036F90096ADF8DE
:1004F0000440ADF80640ADF80840ADF80C40ADF84A
:100500000A506946404606F06FF9012239464046D6
:1005100006F0F1F90121404606F0E1F9BDE8FF815E
:1005200010B58CB00121084606F0B4F8704C204696
:1005300007F0BEFA6F4801906748801C02900021C6
:1005400003910222049205918022069252000792A2
:10055000900008902020099000020A900B9101A9B8
:10056000204607F01CFB0121204607F042FB0CB09F
:1005700010BD10B586B00121480206F096F80020A3
:10058000019001218DF808108DF809104FF46021B9
:100590000391049002208DF81400564C01A94C3CA4
:1005A000204607F0EDF8072301220821204607F036
:1005B00071F9072302220921204607F06BF9012176
:1005C000204607F011F90121204607F001F92046E5
:1005D00007F021F9204607F023F90028FAD1204638
:1005E00007F025F9204607F027F90028FAD1012164
:1005F000204607F028F906B010BDF8B500214FF0ED
:10060000006005F0BCFD4FF4E06005F083FD25209F
:100610008DF8000000258DF8025001248DF803406C
:10062000684605F07CFD26208DF8000002268DF836
:1006300002608DF80340684605F071FD1C208DF8BE
:1006400000008DF801508DF802508DF80340684687
:1006500005F065FD1D208DF800008DF801608DF816
:1006600002508DF80340684605F059FD1E208DF8B4
:1006700000008DF801408DF802508DF80340684667
:1006800005F04DFDF8BD2DE9F04786B04FF08045EF
:10069000284606F033FA0121084606F011F8012138
:1006A000022006F00DF80121042006F009F82326A7
:1006B000ADF80C601027ADF80E704FF4FA68ADF885
:1006C00010800024ADF812408DF8144003A928468C
:1006D00006F0FCFA00210FE00000002000080140B5
:1006E000000C014000180140003801400044004067
:1006F000080002404C240140284606F0B8FD0122C3
:100700001146284606F0CDFD4FF6FE70ADF81000FC
:10071000ADF80C40ADF81240ADF80E40DFF85CA12A
:1007200003A9504606F0D2FAADF80040ADF80240F9
:100730004FF00109ADF80490ADF806400525ADF87D
:1007400008506946504606F0EFFC0420ADF8000062
:10075000ADF80240ADF80490ADF80640ADF8085091
:100760006946504606F0E0FC0021504606F098FF2E
:100770000121504606F07BFD01220221504606F081
:1007800090FD01220421504606F08BFD3B482030AD
:10079000018821F001010180018821F01001018010
:1007A0000121022005F08CFFADF81080ADF80C603F
:1007B000ADF80E70ADF81240314C03A9204606F09A
:1007C00085FA01221146204606F06BFD00212046E5
:1007D00006F04DFD06B0BDE8F08710B5FFF775FDDA
:1007E000FFF7ACFDFFF750FEFFF79AFEFFF7C1FEE3
:1007F000FFF703FFFFF747FF224C4FF4004120466D
:1008000005F0BEFD2046BDE810404FF4FE4105F066
:10081000B5BDFFF7E2FF01F025FD01F0A9FD00F0F5
:10082000A7FB194C2046FFF747FD00F021F92046B1
:10083000FFF742FD03F03EFE03F04FFC03F016FD10
:10084000124C0125AE02208828B9258001220321FF
:10085000002001F09BF831460D4801F0B9FD002859
:10086000F1D001F040FB01F06DFB01F035FC01F02F
:1008700042FC01F05EFC01F071FCE4E7000800407E
:100880000004004000180140C0C62D0024000020D4
:100890008C0100207047FEE7FEE7FEE7FEE77047A9
:1008A00070477047704710B501218C07204606F04D
:1008B0002BFF01280BD1664A5188491C89B251800F
:1008C000642904D3002050805069401C50612046A8
:1008D000BDE81040012106F023BF10B55D4C012199
:1008E000204606F011FF01280BD1594A9188491C76
:1008F00089B29180642904D3002090809069401CC3
:1009000090612046BDE81040012106F009BF70B596
:100910004F4E3088504D504C203D002803D0308839
:1009200002281DD035E00221284606F0EDFE012800
:1009300011D10221284606F0F3FE284606F0CDFE2E
:10094000F08002203080208820F001002080208864
:1009500040F0100020800421284606F0E1FE18E057
:1009600001220421284606F09CFC0421284606F0BA
:10097000CBFE01280DD10421284606F0D1FE2846E1
:1009800006F0ADFE308103203080208820F010007A
:1009900020800221284606F0C3FE0421284606F0E6
:1009A000BFFE308803283BD13089F188884204D9C2
:1009B0003089F188401A306106E0F0884FF6FF7107
:1009C000081A318908443061244800680AF032F975
:1009D0000022234B09F026FF04460D4630690AF039
:1009E00012F922462B460AF039F900221D4B0AF073
:1009F00035F900221C4B09F015FF0AF0A7F8F0604A
:100A00004FF4616102E0A0F56160F060F068884237
:100A1000F9DCF168B1F5E16F03DDA0F5E160F060AC
:100A200070BD00F5E160F06070BD10B50F4C40F294
:100A30002551204606F02FF8002807D0204605F063
:100A4000B6FFC0B2BDE8104001F09ABC10BD000076
:100A50000800002000040040200800409000002012
:100A600000408F400020AC40882A9141003801406E
:100A700010B50924FBA20621002000F0C5FFF9A251
:100A80000721002000F0C0FFF7A20821002000F09D
:100A9000BBFFF6A21921002000F0B6FFA1B2F1A21F
:100AA000002000F0B1FF641C162CF7DB0122114678
:100AB000002001F0B2F800220221104601F0ADF84A
:100AC0000022BDE810401821104600F0BCBF70475E
:100AD000704710B50179C278E54B41EA022159828D
:100AE0008279407942EA002098820122002901D1CE
:100AF000032801D071B32FE01A80012202210020C7
:100B000001F08BF800221721104601F079F900223C
:100B10002121104601F074F9D648FFF7CDFB0022E1
:100B20001F231721104601F0CDF800224FF478431F
:100B30002121104601F0C6F80621002001F001F83D
:100B40000721002000F0FDFF0821BDE81040002033
:100B500000F0F7BF042801D041B109E05A8000221B
:100B6000BDE810400221104601F057B81A286AD09B
:100B700009B91B2802D000294DD04EE09A80B9A2B5
:100B80000621002000F040FFB6A20721002000F05F
:100B90003BFFB4A20221012000F036FFB3A21921CD
:100BA000002000F031FFAFA21F21002000F02CFF39
:100BB000ACA22021002000F027FFAAA222210020C1
:100BC00000F022FFA7A22321002000F01DFF09242E
:100BD000A1B2A4A2002000F017FF641C162CF7DBC2
:100BE00001221146002001F018F8002202211046CF
:100BF00001F013F800221821104600F024FF002213
:100C00001721104601F0FCF80022BDE81040212118
:100C1000104601F0F5B81C2801D069B10EE0DA8069
:100C200000221821104600F00EFF1921BDE81040E7
:100C30008EA2002000F0E8BE1D2805D0012902D1B7
:100C4000032800D11A8210BD1A8110BDF0B5002111
:100C50000279C378864E42EA03237382827944790B
:100C600042EA0422B28234464FF0010C2788002465
:100C70006FF02F05002B01D1062A01D0C3B119E076
:100C8000012F02D07481B4610DE0A6F80AC0FAE722
:100C90000A460244491C137AB26902EB820205EB50
:100CA00042021A44B2614218127A002AF0D1F0BD11
:100CB000072A01D0C3B119E0012F02D0B481F46139
:100CC0000DE0A6F80CC0FAE70A460244491C137A64
:100CD000F26902EB820205EB42021A44F261421809
:100CE000127A002AF0D1F0BD082A02D0012B18D0C8
:100CF00019E0012F02D0F48134640DE0A6F80EC093
:100D0000FAE70A460244491C137A326C02EB82026B
:100D100005EB42021A4432644218127A002AF0D1DA
:100D2000F0BD022A02D0062B12D013E074640AE050
:100D30000A460244491C137A726C02EB820205EBEC
:100D400042021A4472644218127A002AF0D1F0BDAD
:100D5000032A02D0062B12D013E034620AE00A46BE
:100D60000244491C137A326A02EB820205EB42020A
:100D70001A4432624218127A002AF0D1F0BD042AD5
:100D800002D0062B12D013E074620AE00A46024435
:100D9000491C137A726A02EB820205EB42021A4482
:100DA00072624218127A002AF0D1F0BD052A02D0F0
:100DB000062B12D013E0B4620AE00A460244491C32
:100DC000137AB26A02EB820205EB42021A44B26263
:100DD0004218127A002AF0D1F0BD062A02D0062B62
:100DE00012D013E0F4620AE00A460244491C137A66
:100DF000F26A02EB820205EB42021A44F2624218E6
:100E0000127A002AF0D1F0BD072A02D0062B12D0A8
:100E100013E034630AE00A460244491C137A326B39
:100E200002EB820205EB42021A4432634218127A44
:100E3000002AF0D1F0BD082A02D0062B1CD01DE0FC
:100E400074630AE00A460244491C137A726B02EB8F
:100E5000820205EB42021A4472634218127A002A97
:100E6000F0D1F0BD00000000313030003000000053
:100E700024000020A0860100082A05D0062BF0D10E
:100E8000082AEED1F4631CE0B4630AE00A46024487
:100E9000491C137AB26B02EB820205EB42021A4440
:100EA000B2634218127A002AF0D1DAE70A46024405
:100EB000491C137AF26B02EB820205EB42021A44E0
:100EC000F2634218127A002AF0D1CAE770477047DD
:100ED000704770470179C07841EA00200149C88213
:100EE000704700002400002070B505460E4600241F
:100EF00004E0285D00F0E0FF641CA4B2B442F8D323
:100F000070BD70B505460E4600240AE035F81400A1
:100F1000000A00F0D1FF15F8140000F0CDFF641CAA
:100F2000A4B2B442F2D370BDEE2000F0C5BF10B53C
:100F3000FF2000F0C1FFFC2000F0BEFFFF2000F00A
:100F4000BBFFBDE81040FF2000F0B6BF10B5FFF7B3
:100F5000EBFF042000F0B0FFBDE81040E7E710B55C
:100F6000FFF7E2FF042000F0A7FFBDE81040DEE736
:100F700010B5FFF7D9FF072000F09EFF352000F0E5
:100F80009BFF5A2000F098FF532000F095FFA5200A
:100F900000F092FFBDE81040C9E710B50446FFF726
:100FA000C3FF412000F088FF200A00F085FFE0B277
:100FB00000F082FFBDE81040B9E710B50446FFF726
:100FC000B3FF422000F078FF200A00F075FFE0B286
:100FD00000F072FFBDE81040A9E710B5FFF7A4FFCD
:100FE000012000F069FFBDE81040A0E770B505469C
:100FF0000C46FFF799FF432000F05EFF284600F003
:101000005BFF204600F058FFBDE870408FE770B5E9
:1010100006460C461546FFF787FF452000F04CFFBB
:10102000304600F049FF200A00F046FFE0B200F031
:1010300043FF280A00F040FFE8B200F03DFFBDE8A2
:10104000704074E770B504460D46FFF76DFF44200D
:1010500000F032FF200A00F02FFFE0B200F02CFF7A
:10106000280A00F029FFE8B200F026FFBDE8704032
:101070005DE72DE9F04104460D4616461F46DDF8B2
:101080001880FFF751FF202000F016FF200A00F023
:1010900013FFE0B200F010FF280A00F00DFFE8B2E5
:1010A00000F00AFF304600F007FF384600F004FF6A
:1010B000404600F00EFFBDE8F04138E72DE9F04171
:1010C00080460C4615461E46069FFFF72DFF212041
:1010D00000F0F2FE404600F0EFFE200A00F0ECFEC9
:1010E000E0B200F0E9FE280A00F0E6FEE8B200F007
:1010F000E3FE304600F0E0FE384600F0DDFEBDE8DD
:10110000F04114E770B504460D46FFF70DFF31209E
:1011100000F0D2FE200A00F0CFFEE0B200F0CCFEDC
:10112000284600F0C9FEBDE8704000E72DE9F04117
:1011300004460D4616461F46FFF7F6FE322000F025
:10114000BBFE200A00F0B8FEE0B200F0B5FE280AAF
:1011500000F0B2FEE8B200F0AFFE300A00F0ACFEE4
:10116000F0B200F0A9FE384600F0A6FEBDE8F0415E
:10117000DDE62DE9F05F0446DDE90CABDDE90A8927
:101180000D4616461F46FFF7CFFE332000F094FEB3
:10119000200A00F091FEE0B200F08EFE280A00F076
:1011A0008BFEE8B200F088FE300A00F085FEF0B257
:1011B00000F082FE380A00F07FFEF8B200F07CFEFC
:1011C0004FEA182000F078FE08F0FF0000F074FEEF
:1011D0004FEA192000F070FE09F0FF0000F06CFEED
:1011E0004FEA1A2000F068FE0AF0FF0000F064FEEB
:1011F000584600F061FEBDE8F05F98E62DE9F04149
:1012000004460D4616461F46DDF81880FFF78CFE93
:10121000802000F051FE200A00F04EFEE0B200F007
:101220004BFE280A00F048FEE8B200F045FE300A06
:1012300000F042FEF0B200F03FFE384600F03CFE07
:10124000404600F039FEBDE8F04170E670B5044656
:101250000D46FFF769FE502000F02EFE200A00F038
:101260002BFEE0B200F028FE280A00F025FEE8B2CE
:1012700000F022FEBDE8704059E670B504460D4608
:10128000FFF752FE582000F017FE200A00F014FE6F
:10129000E0B200F011FE280A00F00EFEE8B200F005
:1012A0000BFEBDE8704042E62DE9F04104460D46D4
:1012B00016461F46FFF738FE512000F0FDFD200ABC
:1012C00000F0FAFDE0B200F0F7FD280A00F0F4FDAE
:1012D000E8B200F0F1FD300A00F0EEFDF0B200F0EF
:1012E000EBFD380A00F0E8FDF8B200F0E5FDBDE8DE
:1012F000F0411CE670B5044615461E46FFF714FE85
:10130000592000F0D9FD200A00F0D6FDE0B200F02F
:10131000D3FD31462846FFF7E7FDBDE8704006E6FD
:101320002DE9F04104460D4616461F46FFF7FCFD29
:10133000752000F0C1FD200A00F0BEFDE0B200F013
:10134000BBFD280A00F0B8FDE8B200F0B5FD394653
:101350003046FFF7D6FDBDE8F041E8E52DE9F04164
:1013600004460D4616461F46FFF7DEFD762000F0C8
:10137000A3FD200A00F0A0FDE0B200F09DFD280AC8
:1013800000F09AFDE8B200F097FD39463046FFF7CD
:10139000B8FDBDE8F041CAE570B505460C46FFF75B
:1013A000C3FD682000F088FD4FF6FF7101EA44019B
:1013B0002846FFF7A6FDBDE87040B8E570B50546C4
:1013C0000C46FFF7B1FD692000F076FD4FF6FF7186
:1013D00001EA44012846FFF794FDBDE87040A6E508
:1013E00070B504460D461646FFF79EFD522000F0EC
:1013F00063FD200A00F060FDE0B200F05DFD280A08
:1014000000F05AFDE8B200F057FD300A00F054FD3C
:10141000F0B200F051FDBDE8704088E570B50446BB
:101420000D461646FFF780FD532000F045FD200ACB
:1014300000F042FDE0B200F03FFD280A00F03CFD64
:10144000E8B200F039FD300A00F036FDF0B200F0ED
:1014500033FDBDE870406AE52DE9F04104460D46D4
:1014600016461F46DDF81880FFF75EFD672000F086
:1014700023FD200A00F020FDE0B200F01DFD280A47
:1014800000F01AFDE8B200F017FD300A00F014FD7C
:10149000F0B200F011FD380A00F00EFDF8B200F0D5
:1014A0000BFD4FEA182000F007FD08F0FF0000F0E8
:1014B00003FDBDE8F0413AE52DE9F04104460D4653
:1014C00016461F46FFF730FD542000F0F5FC200AB9
:1014D00000F0F2FCE0B200F0EFFC280A00F0ECFCB7
:1014E000E8B200F0E9FC300A00F0E6FCF0B200F0EF
:1014F000E3FC380A00F0E0FCF8B200F0DDFCBDE8E7
:10150000F04114E52DE9F04104460D4616461F460C
:10151000FFF70AFD552000F0CFFC200A00F0CCFCBC
:10152000E0B200F0C9FC280A00F0C6FCE8B200F006
:10153000C3FC300A00F0C0FCF0B200F0BDFC380A79
:1015400000F0BAFCF8B200F0B7FCBDE8F041EEE400
:101550002DE9F04104460D4616461F46FFF7E4FC10
:10156000562000F0A9FC200A00F0A6FCE0B200F032
:10157000A3FC280A00F0A0FCE8B200F09DFC300AB1
:1015800000F09AFCF0B200F097FC380A00F094FCEE
:10159000F8B200F091FCBDE8F041C8E42DE9F0415B
:1015A00004460D4616461F46FFF7BEFC572000F0C6
:1015B00083FC200A00F080FCE0B200F07DFC280AE9
:1015C00000F07AFCE8B200F077FC300A00F074FC1E
:1015D000F0B200F071FC380A00F06EFCF8B200F0D6
:1015E0006BFCBDE8F041A2E410B50446FFF79CFC9B
:1015F000602000F061FC204600F05EFCBDE8104079
:1016000095E42DE9F04107460C4615461E46FFF7C6
:101610008BFC772000F050FC384600F04DFC204653
:1016200000F04AFC284600F047FC304600F044FC3D
:10163000BDE8F0417BE410B50446FFF775FC61207E
:1016400000F03AFC204600F037FCBDE810406EE4A4
:1016500010B5FFF769FCFE2000F02EFCBDE810403D
:1016600065E410B50446FFF75FFC702000F024FC31
:10167000204600F021FCBDE8104058E410B5FFF70B
:1016800053FC722000F018FCBDE810404FE410B588
:10169000FFF74AFC732000F00FFCBDE8104046E461
:1016A00010B50446FFF740FCA02000F005FC2046E2
:1016B00000F002FCBDE8104039E410B50446FFF725
:1016C00033FC792000F0F8FB204600F0F5FBBDE884
:1016D00010402CE470B504460D461646FFF724FC76
:1016E000872000F0E9FB200E00F0E6FBC4F3074082
:1016F00000F0E2FBC4F3072000F0DEFBE0B200F0F4
:10170000DBFB31462846FFF7EFFBBDE870400EE4F7
:1017100070B504460D46FFF707FC882000F0CCFBAF
:10172000200E00F0C9FBC4F3074000F0C5FBC4F372
:10173000072000F0C1FBE0B200F0BEFB280A00F079
:10174000BBFBE8B200F0B8FBBDE87040FFF7EFBBB1
:1017500010B50446FFF7E8FBA12000F0ADFB2046E2
:1017600000F0AAFBBDE81040FFF7E1BB10B504464E
:10177000FFF7DAFBA22000F09FFB204600F09CFB65
:10178000BDE81040FFF7D3BB70B505460C46FFF728
:10179000CBFBA42000F090FB284600F08DFB2046F8
:1017A00000F08AFBBDE87040FFF7C1BB10B50446EE
:1017B000FFF7BAFB052000F07FFB204600F07CFB22
:1017C000BDE81040FFF7B3BB10B50446FFF7ACFB14
:1017D000062000F071FB204600F06EFBBDE81040D3
:1017E000FFF7A5BB10B50446FFF79EFB462000F0AF
:1017F00063FB204600F060FBBDE81040FFF797BB9D
:1018000010B50446FFF790FB472000F055FB20463B
:1018100000F052FBBDE81040FFF789BB2DE9F04115
:101820008046DDE906560F461C46FFF77DFB852006
:1018300000F042FB404600F03FFB384600F03CFB26
:10184000384600F039FB200A00F036FBE0B200F029
:1018500033FB280A00F030FBE8B200F02DFB300A21
:1018600000F02AFBF0B200F027FBBDE8F041FFF7E3
:101870005EBB2DE9F0470746DDE9099A0C4615469F
:101880001E46DDF82080FFF74FFB812000F014FB9F
:10189000384600F011FB204600F00EFB284600F011
:1018A0000BFB304600F008FB404600F005FB4846C5
:1018B00000F002FB504600F0FFFABDE8F047FFF7EA
:1018C00036BB10B5FFF730FB822000F0F5FABDE81B
:1018D0001040FFF72CBB10B5FFF726FB082000F0E7
:1018E000EBFAA52000F0E8FA5A2000F0E5FA5F20B4
:1018F00000F0E2FAF52000F0DFFABDE81040FFF753
:1019000016BB10B5FFF710FB092000F0D5FADE205A
:1019100000F0D2FAED2000F0CFFA132000F0CCFA5C
:10192000312000F0C9FABDE81040FFF700BB10B548
:10193000FFF7FAFAB12000F0BFFA012000F0BCFA7C
:10194000BDE81040FFF7F3BA10B50446FFF7ECFA14
:10195000B12000F0B1FA002000F0AEFA200A00F049
:10196000ABFAE0B200F0A8FABDE81040FFF7DFBA2A
:1019700010B50446FFF7D8FAB32000F09DFA2046D0
:1019800000F09AFABDE81040FFF7D1BA70B50446EE
:101990000D461646FFF7C8FAB12000F08DFA032075
:1019A00000F08AFA200A00F087FAE0B200F084FA28
:1019B000280A00F081FAE8B200F07EFA304600F022
:1019C0007BFABDE87040FFF7B2BA70B504460D4629
:1019D0001646FFF7A9FAB12000F06EFA102000F0C9
:1019E0006BFA200A00F068FAE0B200F065FA280A03
:1019F00000F062FAE8B200F05FFA304600F05CFAFC
:101A0000BDE87040FFF793BA70B504460D46164620
:101A1000FFF78AFAB12000F04FFA102000F04CFADC
:101A2000200A00F049FAE0B200F046FA280A00F075
:101A300043FAE8B200F040FA304600F04AFABDE856
:101A40007040FFF774BA70B505460E461446FFF7AE
:101A50006BFAB12000F030FA102000F02DFA280ABD
:101A600000F02AFAE8B200F027FA300A00F024FA6F
:101A7000F0B200F021FA200E00F01EFAC4F3074085
:101A800000F01AFAC4F3072000F016FAE0B200F0F2
:101A900013FABDE87040FFF74ABA70B505460E4626
:101AA0001446FFF741FAB12000F006FA102000F0CA
:101AB00003FA280A00F000FAE8B200F0FDF9300A53
:101AC00000F0FAF9F0B200F0F7F9200E00F0F4F9A6
:101AD000C4F3074000F0F0F9C4F3072000F0ECF97C
:101AE000E0B200F0E9F9BDE87040FFF720BA70B548
:101AF00005460E461446FFF717FAB12000F0DCF950
:101B0000102000F0D9F9280A00F0D6F9E8B200F068
:101B1000D3F9300A00F0D0F9F0B200F0CDF9200E80
:101B200000F0CAF9C4F3074000F0C6F9C4F3072077
:101B300000F0C2F9E0B200F0BFF9BDE87040FFF775
:101B4000F6B970B504460D46FFF7EEF9B12000F086
:101B5000B3F9112000F0B0F9200A00F0ADF9E0B2BD
:101B600000F0AAF9280A00F0A7F9E8B200F0A4F9F9
:101B7000BDE87040FFF7DBB970B504460D46FFF7CE
:101B8000D3F9B12000F098F9202000F095F9200A4F
:101B900000F092F9E0B200F08FF9280A00F08CF919
:101BA000E8B200F089F9BDE87040FFF7C0B970B540
:101BB00004460D46FFF7B8F9B12000F07DF9212069
:101BC00000F07AF9200A00F077F9E0B200F074F939
:101BD000280A00F071F9E8B200F06EF9BDE8704033
:101BE000FFF7A5B970B504460D46FFF79DF9B12082
:101BF00000F062F9222000F05FF9200A00F05CF9A1
:101C0000E0B200F059F9280A00F056F9E8B200F005
:101C100053F9BDE87040FFF78AB970B504460D4628
:101C20001646FFF781F9B12000F046F9232000F0B5
:101C300043F9200A00F040F9E0B200F03DF9280A2B
:101C400000F03AF9E8B200F037F9304600F034F924
:101C5000BDE87040FFF76BB970B504460D46FFF75D
:101C600063F9B12000F028F9242000F025F9200ABA
:101C700000F022F9E0B200F01FF9280A00F01CF988
:101C8000E8B200F019F9BDE87040FFF750B970B53F
:101C900004460D46FFF748F9B12000F00DF9252064
:101CA00000F00AF9200A00F007F9E0B200F004F9A8
:101CB000280A00F001F9E8B200F0FEF8BDE8704033
:101CC000FFF735B92DE9F04104460D4617461E468B
:101CD000FFF72AF9B12000F0EFF8302000F0ECF81F
:101CE000200A00F0E9F8E0B200F0E6F8280A00F077
:101CF000E3F8E8B200F0E0F8384600F0DDF8300A2A
:101D000000F0DAF8F0B200F0D7F8BDE8F041FFF7E4
:101D10000EB970B504460D461646FFF705F9B12019
:101D200000F0CAF8312000F0C7F8200A00F0C4F82B
:101D3000E0B200F0C1F8280A00F0BEF8E8B200F006
:101D4000BBF8304600F0B8F8BDE87040FFF7EFB8D8
:101D50002DE9F04105460E4617469846069CFFF7CA
:101D6000E3F8B12000F0A8F8322000F0A5F8280A26
:101D700000F0A2F8E8B200F09FF8300A00F09CF8FA
:101D8000F0B200F099F8384600F096F8200A00F01A
:101D900093F8E0B200F090F821464046FFF7A4F82F
:101DA000BDE8F041FFF7C3B82DE9F04105460E4606
:101DB00017469846069CFFF7B7F8B12000F07CF86C
:101DC000352000F079F8280A00F076F8E8B200F043
:101DD00073F8300A00F070F8F0B200F06DF8384691
:101DE00000F06AF8200A00F067F8E0B200F064F84A
:101DF00021464046FFF778F8BDE8F041FFF797B875
:101E000070B504460D461646FFF78EF8B12000F077
:101E100053F8332000F050F8200A00F04DF8E0B2FB
:101E200000F04AF8280A00F047F8E8B200F044F859
:101E3000304600F041F8BDE87040FFF778B82DE972
:101E4000F0470446DDE908890D4616461F46FFF7B0
:101E50006BF8B12000F030F8342000F02DF8200AA3
:101E600000F02AF8E0B200F027F8280A00F024F881
:101E7000E8B200F021F8C6F3072000F01DF8F0B238
:101E800000F01AF8380A00F017F8F8B200F014F869
:101E9000C8F3072000F010F808F0FF0000F00CF87D
:101EA0004FEA192000F008F809F0FF0000F004F8EC
:101EB000BDE8F047FFF73BB810B5B04C01462046EF
:101EC00004F06EFD8021204604F0DAFD0028F9D0F0
:101ED00010BD10B5044602E0FFF7EEFF641C207849
:101EE0000028F9D110BD70B50546A54C60780128D1
:101EF00027D0032825D0B12823D1A078012810D0DD
:101F000011281ED1E07912281BDA01280FD01028E1
:101F100011D0112815D129462046BDE87040FEF7A2
:101F200095BE29462046BDE87040FEF7D3BF29463E
:101F30002046FEF7CFFF29462046BDE87040FEF759
:101F4000C8BD70BD2DE9F05F8E4F388801287DD166
:101F5000DFF83492B9F800000128F8D1DFF82CA29C
:101F6000BAF800000128F2D1DFF82482B8F80000A6
:101F70000128ECD100263E80A9F80060AAF8006094
:101F8000A8F80060834D844C2868216888427CD979
:101F9000002203211046FFF7F9FC00221B21104606
:101FA000FFF7F4FC012204210020FFF7EFFC0022E0
:101FB0001C211046FFF7EAFCDFF8E0B1802158460B
:101FC00004F0DEF9206808F035FE02460B4674A1E5
:101FD000754806F0B5F9744A1F210020FFF714FD7B
:101FE000286808F027FE02460B466DA16E4806F0F1
:101FF000A7F96D4A20210020FFF706FD206808F0B0
:1020000019FE02460B4666A1674806F099F9664A32
:1020100022210020FFF7F8FC286808F00BFE02469A
:102020000B465FA1604806F08BF95F4A2321002030
:10203000FFF7EAFC5D4829684FF47A73008882B2A2
:102040004FF47A7041432068584300E038E001F0D3
:1020500028FD3E80A9F80060AAF80060A8F800609A
:1020600053480680012203210020FFF78FFC012244
:102070001B210020FFF78AFC002204211046FFF7F5
:1020800085FC00221C21104600E014E0FFF77EFCD6
:102090004FF400642146584604F070F94548FEF7B5
:1020A0000BF900F065F92146584604F069F98021E2
:1020B000584604F063F901221C210020FFF766FC5A
:1020C000012203210020FFF761FCBDE8F05F01223F
:1020D0001B210020FFF75ABC10B5354801880129A3
:1020E00008D10021018000F043F9BDE810403248DA
:1020F000FEF7E2B810BD10B530480188012917D1AC
:1021000000210180002204211046FFF73FFC00223D
:102110001B211046FFF73AFC00221C211046FFF756
:1021200035FC00F025F9BDE810402348FEF7C4B89F
:1021300010BD10B52249088801280ED10020088062
:10214000204908801D49088001F081FD00F010F948
:10215000BDE810401848FEF7AFB810BD10B51A48DA
:102160000188012908D10021018000F001F9BDE8B2
:1021700010401148FEF7A0B810BD00000038014023
:102180008C010020240000202E00002030000020C0
:1021900032000020400000203C00002000080140E8
:1021A000252D372E306600006C00002064000020D2
:1021B00026000020801A0600A086010028000020CA
:1021C000340000202A0000202C0000202DE9F047D8
:1021D0000546634E4FF400573946304604F0CEF8BA
:1021E0004FF4804A5146304604F0C8F84FF4006975
:1021F0004946304604F0C2F800BF00BF00BF00BF30
:1022000000BF00BF4946304604F0BAF800BF00BF27
:1022100000BF00244FF6FF78280404D5514630460D
:1022200004F0ACF803E05146304604F0A9F8394612
:10223000304604F0A5F800BF3946304604F09EF859
:1022400008EA4505641CE4B2102CE5D300BF4946FA
:10225000304604F093F83946304604F091F800BF58
:10226000BDE8F08770B53E4E4FF40061304604F093
:1022700085F874142146304604F080F8650029463C
:10228000304604F07DF86011FFF7A0FF2046FFF70D
:102290009DFF2846FFF79AFF2846FFF797FF204645
:1022A000FFF794FFA5002846FFF790FF2846FFF7A9
:1022B0008DFF4FF45040FFF789FF4FF47040FFF758
:1022C00085FF2046BDE8704080E72DE9F0410C46CF
:1022D00009F0C0F808F09CFF224A234B08F0BEFC2E
:1022E0000022224B08F0E2F908F060FCC0F30D0177
:1022F00041F48046C0F38D3040F480454FF44047B0
:102300004FF4704824B1012C0DD0022C16D01FE0E0
:1023100042F22400FFF75AFF3846FFF757FF4046C6
:10232000FFF754FF14E042F20200FFF74FFF384678
:10233000FFF74CFF4046FFF749FF09E04FF400501C
:10234000FFF744FF3846FFF741FF4046FFF73EFFE7
:102350003046FFF73BFF2846BDE8F04136E7000076
:10236000000C01408DEDB5A0F7C630400000E03F05
:102370003A490020488008803949087048807047F1
:1023800010B5364B1A88511CC1F30A015C888C4287
:1023900002D01C1D1055198010BD304A5188138879
:1023A000994206D0131DCB5C0370491CC1F30A008F
:1023B00050807047294801884088081A00F500605D
:1023C000C11700EB51516FF30A01401A80B27047F8
:1023D0002DE9F84307468846002500950226204C43
:1023E00019E06846FFF7D9FF62881AB99DF8000026
:1023F000EE2810D1424504D29DF80010501C608098
:10240000B9549DF80020FF2A0BD0FC2A17D0257064
:10241000207804281ED0FFF7CDFF0028E1D1BDE8C9
:10242000F8832078022804D0032805D001202070EA
:10243000EEE703202070EBE704202070E8E7207827
:10244000012803D0032803D02570E1E72670DFE7D9
:102450002670DDE7608825706580E0E78C05002048
:102460006E0000207047FD490A885206FCD5FB4AE1
:10247000C1B2121D118070472DE9F04FADF5157DE9
:10248000342188A806F000F94FF00008CDF810823A
:10249000CDF81482CDF81882CDF81C82CDF80482D4
:1024A000CDF80882CDF80C82CDF800820024ECA093
:1024B000D0E9001280687E927D917F90EBA0006849
:1024C0007C901422EA4977A806F0ACF83422E84957
:1024D00014316AA806F0A6F83422E54948315DA80F
:1024E00006F0A0F83422E2497C3150A806F09AF8B0
:1024F0003422DF49B03143A806F094F83422DC4995
:10250000E43136A806F08EF81422DAA131A806F0DC
:1025100089F84822DC491FA806F084F82422DBA1B0
:1025200016A806F07FF82822E1A10CA806F07AF898
:102530002422E9A103A806F075F8F0A003C8CDE9AC
:102540000101F04D05F80480641CE4B2142CF9D3A9
:1025500001F0FCFFDFF8B0B318B90121584604F0D0
:1025600086FEEA49002002F0BBF802F04EF9E54988
:10257000BBA0083903F079F903F0C8FD00207DA95C
:102580000A5C2A54401CC0B20A28F9D3E048DFF89C
:1025900074A30168AAF1A80A642915D9C0F80080BB
:1025A000D9482430A0F80080CAF814808AF8008046
:1025B000D648283003F0A0FD0021584604F057FE0D
:1025C0000DF5157DBDE8F08FD248D3A1026881A832
:1025D00005F0B6FE002081A92B180A5C5A72401C37
:1025E000C0B20A28F8D342F21070CAF85400002290
:1025F000CA4BCBA188A805F0A3FE002088AE6AAF25
:10260000315C3954401CC0B23228F9D33224DAF894
:10261000440008F00FFB0022C34B08F003F9C34A43
:10262000C34B08F01BFB02460B46C2A188A805F06D
:1026300087FE00200219315CB954401CC0B2322818
:10264000F8D34FF03209DAF8580008F0F3FA0246EE
:102650000B46B3A188A805F073FE002002194A4476
:10266000315CB954401CC0B23228F7D3DAF85000BC
:1026700008F0E0FA02460B46B0A188A805F060FE1B
:102680009DF820028DF87401DAF84C0008F0D2FAB7
:102690000022AC4B08F0C6F8AB4AAC4B08F0DEFAAF
:1026A00002460B46AAA188A805F04AFE9DF8200222
:1026B0008DF87501DAF85C0008F0BCFA02460B46AA
:1026C00097A188A805F03CFE9DF820028DF87601C0
:1026D000DAE91E01A04AA14B08F0C0FA02460B46F7
:1026E0009FA188A805F02CFE9DF820028DF84001DE
:1026F000844C9D4A283C9D4BD4E9060108F0AEFA73
:1027000002460B469AA188A805F01AFE9DF8200201
:102710008DF84101DAF8600008F08CFA02460B46A9
:102720008FA188A805F00CFE9DF820028DF84201CB
:10273000DAE91C014FF000528F4B08F08FFA024685
:102740000B468EA188A805F0FBFD9DF820028DF8B0
:102750000C01D4E9022386A188A805F0F1FD9DF8BB
:1027600020028DF80D01D4E9042381A188A805F089
:10277000E7FD9DF820028DF80E0103CC814A824BC3
:1027800008F06CFA02460B4675A188A805F0D8FD42
:102790009DF820028DF8D8000021584604F067FD0E
:1027A000002001E0401CC0B2295C0029FAD12E2291
:1027B000411CC9B22A547422481CC0B26A547823FE
:1027C000411CC9B22B546A544E4A5048083A4D49EC
:1027D000283002F03BFF012600283ED103F096FC92
:1027E0000A2001F095FE0025322001F091FE002420
:1027F00005EB850006EB400526E0644830F8140040
:1028000008F018FA02460B4645A184A805F098FD89
:10281000002084A977AA0B5C1354401CC0B20F2877
:10282000F9D312A177A805F0F1FE322001F070FE75
:10283000364877AA1421283003F00EFBC0B210B935
:102840005348FDF739FD641CA542D6D8322001F06B
:102850005FFE322001F05CFE9CE0B7E000380140F2
:102860002F796F756368616F2F0000000D0A0000FB
:1028700008B7000846726520202020496D700909BC
:10288000416E670D0A000000A8BA000846702020BB
:1028900020202020202020205A6D61782020202018
:1028A00020202046322020202020090D0A20000070
:1028B000516D202020202020202020206B6566667E
:1028C0002020202020202046322D4631202020208C
:1028D00020090D0A20000000435420202020202041
:1028E0002020202043312020202020202020204391
:1028F000302020202020090D0A2000004C31200D1E
:102900000A000000200100200004004090DD0020AB
:102910002000002068000020256400000088C340DB
:10292000252D31302E31660000408F406397A8DEA0
:102930001A58F23F252D382E32660000252D382EEC
:102940003166000080842E41D1967329AE2AE33F80
:10295000252D31302E326600105839B4C876F03F3C
:10296000252D31302E3366000AD7A3703D0AEF3F84
:10297000252D31302E3466005FA00242252D382EE1
:102980003466000016139B8F6B43F73F902D002099
:1029900000093D0003F0BAFB322001F0B9FD3220FE
:1029A00001F0B6FD322001F0B3FD4FF40064214682
:1029B000FE4D284603F0E2FCFD48FDF77DFC214674
:1029C000284603F0DDFCFB4803F096FB8AF8006024
:1029D000CAF81480F4E570B50D46061E00DA4042D0
:1029E00000240A2190FBF1F201FB1202303223464F
:1029F000641CEA5490FBF1F00028F3DC002E03DAAB
:102A00002D212046641C295400202855002C06DB6B
:102A1000295DE9A005F088FC641E002CF8DA70BD81
:102A200070B59EB0E5481AAD00F118011EC91EC56B
:102A300000F1280116AD1EC91EC5D0E90F23816B18
:102A400012AC406C0EC41590302106A805F01CFE97
:102A5000002005901422D9494831684605F0E2FD6E
:102A600003F054FB322001F053FD01230022D4492E
:102A7000D04802F006FCD24CA83C002847D1D148EF
:102A8000616950F82120D0A11AA805F059FCD0485E
:102A9000616950F82120CCA116A805F051FCCD4861
:102AA000616950F82100CC4908F0E8FC08F09EFC70
:102AB0000246C5A112A805F043FC1AA906A805F014
:102AC000A5FD16A906A805F0A1FD12A906A805F006
:102AD0009DFDAFF2682106A805F098FD06AA3021F9
:102AE000B44803F0B9F9142001F012FDAF4E4FF4D1
:102AF00000652946304603F041FCAD48FDF7DCFB9C
:102B00002946304603F03CFCAA4803F0F5FA606918
:102B10000A306061322001F0FBFCB04C2046FDF72A
:102B2000CBFB03F0F3FA2046FDF7C6FB1EB070BDE9
:102B3000F0B500234E1E12E05A1C174692B20BE06D
:102B400030F8134030F81250AC4203D920F813503B
:102B500020F81240521C92B28A42F1D3BBB2B34267
:102B6000EADBCB0721F0010201D0805AF0BD4FF023
:102B7000FF3303EB510130F81110805A084440082C
:102B8000F0BD10B50023002204E030F812402344C9
:102B9000521C92B28A42F8D3B3FBF1F080B210BD5E
:102BA00070B5002503881C46012206E030F812604B
:102BB0009E4200D23346521C92B28A42F6D3012280
:102BC00006E030F81260A64200D93446521C92B298
:102BD0008A42F6D3002205E030F812603544ADB2E7
:102BE000521C92B28A42F7D3281BC01A891E90FB4E
:102BF000F1F080B270BDF0B500234E1E12E05A1CF9
:102C0000174692B20BE030F9135030F91240A5424A
:102C100003DD20F8134020F81250521C92B28A4271
:102C2000F1D3BBB2B342EADBCB0721F0010201D002
:102C3000805EF0BD4FF0FF3303EB510130F911100E
:102C4000805E084400EBD070401000B2F0BD2DE96A
:102C5000F04790B0064600243C2101A805F014FD81
:102C60005F48018821F010010180018841F00101D5
:102C7000018000275B4D4FF47A7A0DF10408DFF8EC
:102C800068910CE02F802888032802D05046FDF779
:102C900013FBB9F8000028F81400641CA4B2B44275
:102CA000F0D3314601A8FFF7A6FF4549A83948638C
:102CB00010B0BDE8F0872DE9F04194B00746282117
:102CC0000AA805F0E1FC2821684605F0DDFC002497
:102CD0000AAEE846454D0DE0288826F81400642029
:102CE000FDF7EAFA688828F814006420FDF7E4FA92
:102CF000641CA4B2BC42EFD339460AA8FFF718FF00
:102D00002F4CA83C608039466846FFF711FFA08031
:102D100014B0BDE8F0812DE9F04129490022A8391D
:102D2000334BD1E91C0107F099FF07F03FFF044640
:102D3000304F3C21384603F033FEA221384603F0E1
:102D40002FFE1621384603F02BFE0221384603F0F1
:102D500027FEE1B2384603F023FEE0B280F014050E
:102D6000C4F307210E46384603F01AFE7540C4F33B
:102D700007410E46384603F013FE7540210E3846D3
:102D800003F00EFE85EA14640021384603F008FEC5
:102D90000021384603F004FE0021384603F000FE0F
:102DA0000021384603F0FCFD002125E00008014029
:102DB000801A0600B8DD00202563000008B800086E
:102DC00020010020907D0020252D3130640000007E
:102DD000900D0020905D002000002041C0C62D0015
:102DE00020080040080000201400002002000020FD
:102DF00080842E4100380140384603F0D1FD002187
:102E0000384603F0CDFD0021384603F0C9FD00210E
:102E1000384603F0C5FD0021384603F0C1FD00210E
:102E2000384603F0BDFD0021384603F0B9FD00210E
:102E3000384603F0B5FD0021384603F0B1FD00210E
:102E4000384603F0ADFD0021384603F0A9FD2146C8
:102E5000384603F0A5FDBDE8F0414FF4FA50FDF708
:102E60002BBA2DE9F05FFE48FD4A0523C5880620F0
:102E7000FC4CFD4FDFF8F483FD4E92884FF0040CBC
:102E80004FF0030A4FF002094FF480414FF4005B0A
:102E9000082D16D2DFE805F01504173E638AB1D974
:102EA000EF4D282A0DD8A5F80690204603F068FAC1
:102EB0004FF43F41204603F061FAEE48FDF7FCF97C
:102EC000AF62BDE8F09FE64D282A10D8A5F806A00D
:102ED0005946204603F054FA4FF45F41204603F070
:102EE0004DFAE448FDF7E8F9C5F82880E9E7C82A73
:102EF000E7D30120E880C103204603F041FA4FF4F4
:102F0000FE41204603F03AFADA48FDF7D5F9DA48EF
:102F1000A862D6E7D24D282A10D8A5F806C04FF4EB
:102F20008051204603F02CFA4FF46F41204603F005
:102F300025FAD048FDF7C0F9AE62C2E7C82AC0D36F
:102F4000A5F80690204603F01BFA4FF43F412046B7
:102F500003F014FAC748FDF7AFF9AF62B1E7C04D0F
:102F6000282A10D8EB804FF40061204603F008FABD
:102F70004FF47741204603F001FABE48FDF79CF973
:102F8000BE48A8629DE7FA2A9BD3A5F806A0594639
:102F9000204603F0F5F94FF45F41204603F0EEF9C7
:102FA000B448FDF789F9C5F828808AE7AC4D282A8E
:102FB00010D8E8804FF48061204603F0E1F94FF427
:102FC0007B41204603F0DAF9AA48FDF775F9AC48D1
:102FD000A86276E7FA2A89D3A5F806C04FF4805193
:102FE000204603F0CDF94FF46F41204603F0C6F9B7
:102FF000A048FDF761F9AE6263E7994D282A11D820
:103000000720E8804FF40071204603F0B9F94FF42F
:103010007D41204603F0B2F99648FDF74DF99948F5
:10302000A8624EE7FA2A88D3EB804FF4006120466D
:1030300003F0A6F94FF47741204603F09FF98D483D
:10304000FDF73AF98D48A8623BE7854D322A10D842
:103050000820E8804101204603F092F94FF47E41B8
:10306000204603F08BF98348FDF726F98648A862CD
:1030700027E7FA2A86D3E8804FF48061204603F0E0
:103080007FF94FF47B41204603F078F97948FDF74A
:1030900013F97B48A86214E72DE9F74F86B04FF08B
:1030A0000009CB46002001908046DDE90610401A59
:1030B0004FF47A74B0FBF4F1DFF8A4A1CAF824103D
:1030C0006421B0FBF1F000900120AAF806006A48E4
:1030D000CAF828006D4900200880FFF749F90698D2
:1030E000CAF818008CE14FF47A74B0FBF4F3494647
:1030F000674A09F101091FFA89F942F82130B0FB4A
:10310000F4F00221FFF7E1F842F21070FDF7D4F875
:103110001420FFF7D0FD1420FFF799FDBAF8040042
:1031200008F098F9DAF8281008F09EF8CAF830008C
:103130004FF480615748FFF74BF9FEF7D4FE56482D
:10314000008801287ED00099069808F1010201FB51
:103150000200DAF81810884213D29046B8F1640FD2
:103160000FD2424618210020FEF76DFC4246AFF612
:10317000580101A805F0E4F801AA19210020FEF782
:1031800043FCBAF80400584506D38346DAF8180021
:10319000B0FBF4F0CAF82C003949DAF8280008F03E
:1031A0006DF908F035F804460D46DAF8300008F0FD
:1031B0002FF83A4A3A4B07F035FB06460F46BAF865
:1031C000020007F037FD374A374B07F047FD32461C
:1031D0003B4607F027FB0022344B07F03FFD224619
:1031E0002B4607F02BFF07F0E1FCCAF8200040F265
:1031F000DC51884209D207F01DFD2D4A2D4B07F006
:103200002DFD07F0D3FCCAF82000DAF820004FF4B7
:10321000FA74A0F2DC51A14209D207F00BFD264A54
:10322000264B07F01BFD07F0C1FCCAF82000DAF8B6
:103230002000A0F5FA61A1420BD807F0FBFC204A60
:10324000204B00E0C9E007F009FD07F0AFFCCAF829
:103250002000DAF8200040F6C312A0F6C51133E0D2
:103260007800002000180140000020410000F041DB
:103270000000C84220A107000000A04000009643C3
:1032800000007A4400803B4500401C4614000020AA
:10329000907D00208C01002026000020B6B9313D31
:1032A00061A90C40A8C64B378961244000005940F1
:1032B0001F85EB51B81EED3F3D0AD7A3703DEE3F91
:1032C0000E2DB29DEFA7EE3F914209D807F0B2FC58
:1032D000FD4AFE4B07F0C2FC07F068FCCAF820006C
:1032E000FB49DAF82000884209D307F0A3FCF94A29
:1032F000F94B07F0B3FC07F059FCCAF82000F74877
:10330000BAF80820DAF8201040F8221050F8290006
:1033100007F090FC07F0A2F80022F14B07F09EFCAA
:1033200007F044FCEF49BAF8084021F81400DAF835
:103330003400ED4F011241EA002127F81410A0F2E9
:103340001C7008F06FF8E94907F08EFF07F580510F
:1033500041F82400E64907F087FF07F059FFE54AE6
:10336000E54B07F07BFC07F06FF907F051FF0646CD
:10337000059107F00BF904460D463046059907F014
:1033800005F922462B4607F069FC0022DB4B07F0CB
:103390008DF904460D46DAF8200007F04BFC024692
:1033A0000B4607F05BFC22462B4607F03BFA07F082
:1033B000C7F807F0FBFBBAF8081007F5A04242F87F
:1033C0002100DAF82020101ACAF84000024407F55C
:1033D000E04040F8212021B106E0002009B0BDE81E
:1033E000F08F3888AAF80E00491CAAF80810FFF7D9
:1033F00038FDDAF82410DAF818000844CAF8180082
:10340000DAF81800079988427FF66DAEDFF8D89297
:10341000BAF80E005646A9F80000B0694FF47A7762
:10342000B0FBF7F0B061DFF8D8A24FF480684146F6
:10343000504602F0A5FF4FF47B41504602F09EFF3C
:10344000B048FCF739FF02213846FEF73EFFAD4891
:10345000FCF732FFAB48FCF72FFF1420FFF72BFCE3
:10346000B08807F0E7FBA84AA84B07F0DBF9002279
:103470009B4B07F0D7F904460D46708807F0DAFB3E
:10348000A34AA44B07F0EAFB22462B4607F0CAF9F1
:10349000A14AA24B07F0E2FBC6E91A01DFF85CB2D1
:1034A00002460B460020594607F0BCF9C6E91C014C
:1034B0004FF40041504602F063FF4146504602F08F
:1034C0005DFF9048FCF7F8FE0020DFF81082B9F8A5
:1034D000141029F81010D8F8281048F82010401CB3
:1034E00080B20A28F3D3D8F80000B063F06100205E
:1034F000F26958F82010914201D2F1617082B26BEA
:10350000914201D9B1633082401C80B2B842EFD3FE
:10351000DFF80CA2708A76495AF8200007F0A4FE62
:1035200007F076FE734A744B07F098FB07F08CF8AF
:1035300007F06EFE8146049107F028F804460D4618
:103540004846049907F022F822462B4607F086FBEE
:1035500000225B4607F0AAF804460D46F06907F022
:1035600069FB02460B4607F079FB22462B4607F023
:1035700059F906F0E5FF07F019FBF063F169081A45
:10358000306408447064308A59495AF8200007F0C2
:103590006BFE07F03DFE574A574B07F05FFB07F005
:1035A00053F807F035FE8A46814606F0EFFF0446E1
:1035B0000D464846514606F0E9FF22462B4607F0E5
:1035C0004DFB00225B4607F071F804460D46B06BD8
:1035D00007F030FB02460B4607F040FB22462B4625
:1035E00007F020F906F0ACFF0446B06B0D468346A9
:1035F00007F020FB8A46814622462B4607F01EFD37
:1036000007F0D4FAB0645844F064464C308A54F859
:1036100020003065708A54F8200070654846514695
:1036200006F01CFFDFF8B89000224B4607F016FBAF
:1036300007F0BCFA7081F06907F0FCFA06F00EFFA3
:1036400000224B4607F00AFB07F0B0FAB081642273
:1036500018210020FEF7F7F96422AFF6445101A8C3
:1036600004F06EFE01AA19210020FEF7CDF900201A
:103670003081708A0146C0B104F58043D6F81CC081
:10368000B56B726C07E008B1401E80B2491C89B26C
:10369000B5EB4C0F09D953F820A0BAEB420F04D870
:1036A00053F821A0BAEB420FEDD9401C54F820008A
:1036B000B065491E54F82110F165081A30660024DF
:1036C000DFF864A032E00000E17A14AE47E1EE3F9B
:1036D000C0C62D0085EB51B81E85EF3F900D002030
:1036E00000408F40903D0020904D00200000204180
:1036F00000003443282D4454FB2109400000F03FD2
:1037000000180140404B4C00041C42959A5D0B4050
:1037100000A94D9CDCAF204019944A702F8BB84013
:10372000905D0020907D0020902D002058F824000E
:1037300007F080FA06F092FE00224B4607F08EFA60
:1037400007F034FAC0F3072558F8240007F072FA9E
:1037500006F084FE00224B4607F080FA07F026FAB6
:1037600045EA00202AF81400641CA4B2BC42A9D384
:10377000B246306E07F05EFA06460446DAF85400A8
:1037800088460D46039007F055FA22462B4607F06F
:1037900049F8CAE91E01304641460022F84B07F0BD
:1037A00041F8F84AF84B07F059FA04460D46DAF8A2
:1037B0001C0007F03FFA0022F14B07F033F82246D5
:1037C0002B4607F02FF8DFF8C4B3CBE90001002245
:1037D000EB4B07F043FA04460D4603984FF47A7119
:1037E000B0FBF1F007F026FA06460F4603984FF4B7
:1037F0007A71B0FBF1F007F01DFAE54AE54B07F0EE
:103800002DFA32463B4607F029FA22462B4607F0AE
:1038100025FA02460B460020DF4907F003F8DF4A8D
:10382000DF4B07F01BFA04460D46CBE90201DAE94B
:103830001C014FF00052DB4B07F010FA22462B46DA
:1038400007F0FCFBCBE90401DAF850004FF47A7181
:103850000290B0FBF1F0404307F0ECF98946804656
:1038600003994FF47A70B1FBF0F007F0E3F90446E6
:103870000D4603984FF47A71B0FBF1F007F0DAF9D6
:1038800022462B4607F0EAF904460D4602984FF40B
:103890007A71B0FBF1F007F0CDF906460F460298B9
:1038A0004FF47A71B0FBF1F007F0C4F932463B46B1
:1038B00007F0D4F922462B4607F0C0FB42464B46A0
:1038C00006F0B0FF06F03CFECBE90601DAF8500046
:1038D00007F0B0F902460B46AFF6A07101A804F05C
:1038E0002FFD01AA0A210020FEF78EF8DAF84C001D
:1038F00007F0A0F90022AC4B06F094FFAB4AAC4BAA
:1039000007F0ACF902460B46AFF6BC7101A804F013
:1039100017FD01AA14210020FEF776F8DAF854000A
:1039200007F088F902460B46A24901A804F008FDF9
:1039300001AA09210020FEF767F8DAF8580007F01D
:1039400079F902460B469B4901A804F0F9FC01AA4B
:103950000E210020FEF758F8DAF85C0007F06AF94B
:1039600002460B46934901A804F0EAFC01AA0F2184
:103970000020FEF749F8DAE91E018F4A8F4B07F065
:103980006DF90B468B490246403101A804F0D8FC82
:1039900001AA0C210020FEF737F8DBE90601884A6E
:1039A000884B07F05BF90B4682490246503101A86B
:1039B00004F0C6FC01AA12210020FEF725F87D497B
:1039C000DBE90423503101A804F0BAFC01AA10215C
:1039D0000020FEF719F87749DBE90223503101A8EE
:1039E00004F0AEFC01AA11210020FEF70DF8DBE97E
:1039F0000001754A754B07F031F90B466D490246D7
:103A0000403101A804F09CFC01AA15210020FDF71B
:103A1000FBFFDAF8600007F00DF90B466549024636
:103A2000403101A804F08CFC01AA13210020FDF70D
:103A3000EBFFDAF8440007F0FDF80022504B06F0E7
:103A4000F1FE634A634B07F009F90B4659490246F8
:103A5000143101A804F074FC01AA0B210020FDF729
:103A6000D3FFDAE91C014FF000524E4B07F0F6F895
:103A70000B46504902465C3101A804F061FC01AAE2
:103A80000D210020FDF7C0FF002202211046FEF7A5
:103A9000C4F802210020FEF718FCFEF7E3FB01202A
:103AA0009CE42DE9FC41FFF7F7FA384C0026803CF6
:103AB00001280FD0FEF710FB2681474C4FF4004140
:103AC000204602F05DFC2046BDE8FC414FF4FE417B
:103AD00002F054BC0520CDE900600022212317210B
:103AE0001046FEF7ACF96089A18944F25062411A90
:103AF00092FBF1F2B9235943B42391FBF3F1401A3D
:103B000092B200B2CDE900022123002219461046EC
:103B1000FEF795F901218F07384603F0A8FB2F4CDB
:103B20004FF4FA65216849B1012907D800222C4BCE
:103B3000172110460095FEF737F9F3E7022908D060
:103B40000329EFD326603846BDE8FC41002103F08D
:103B50008EBB0022234B212110460095FEF724F94D
:103B6000E0E70FB470B5C2B0002447AB0193FF216A
:103B700002A8469A04F0BEFB1B4E02AD43E00000D3
:103B800000408F40282D4454FB211940F8000020AC
:103B9000F745BEC93CBD434065CDCD41DB8AFD65DF
:103BA000F7E4E43F5FA0024280842E41D19673295E
:103BB000AE2AE33F20290008105839B4C876F03FF8
:103BC0000AD7A3703D0AEF3F16139B8F6B43F73F55
:103BD0006397A8DE1A58F23F001801401C0000202D
:103BE000904D0020902D0020004400402046641C91
:103BF000295CE4B2304602F0D3FE8021304602F068
:103C00003FFF0028F9D0FF2C02D2285D0028EDD11B
:103C100042B070BC5DF814FB70B50546002404E0AA
:103C2000FEA0FFF79EFF641CE4B2AC42F8D370BD67
:103C300010B5FB4C40F22551204602F02CFF002825
:103C400004D0204602F0B3FEF649487010BD2DE9BD
:103C5000F8430025009501221C210020FDF796FE67
:103C6000FEF70AFCEF4C4FF47A7604E0FEF7D8FE3C
:103C7000642000F04DFC6069B042F7D3642000F08E
:103C800047FC642000F044FC642000F041FC6561C6
:103C9000642218210020FDF7D6FE6422E2A16846C6
:103CA00004F04EFB6A4619210020FDF7ADFEDF4E01
:103CB0003046FCF701FB0320FDF746FEDFF870837A
:103CC0004FF400673946404602F058FBD948FCF7EC
:103CD000F3FA3946404602F053FB65613046FCF783
:103CE000EBFA3046FCF7E8FA3046FCF7E5FA00203C
:103CF000FDF72AFEBDE8F8832DE9F84F002000907B
:103D00005A21AFF64C70FFF72CFFC5490F20091D53
:103D100008800E1F30884006FCD5C24C606D06F04E
:103D200089FF02460B46C449684604F009FB694610
:103D3000C2A0FFF716FF5621AFF68470FFF711FF00
:103D40009DF80050606C06F075FF0022BC4B06F039
:103D500069FDBC4ABC4B06F081FF0B46B6490246E2
:103D60001431684604F0ECFA6946B8A0FFF7F9FE92
:103D70009DF800702F405621AFF6C470FFF7F1FE9A
:103D8000A06D06F057FF02460B46AB49684604F0AB
:103D9000D7FA6946ADA0FFF7E4FE9DF8008008EA77
:103DA00007085621AFF6F070FFF7DBFE206D06F036
:103DB00041FF0B46A04902461C31684604F0C0FA98
:103DC0006946A2A0FFF7CDFE9DF8005005EA080560
:103DD00056219FA0FFF7C5FEE06C06F02BFF0022E6
:103DE0009C4B06F01FFD9C4A9C4B06F037FF0B4690
:103DF000914902463031684604F0A2FA694693A020
:103E0000FFF7AFFE9DF800702F40562190A0FFF7FE
:103E1000A8FEE06D06F00EFF02460B468649684696
:103E200004F08EFA694689A0FFF79BFE9DF80050CA
:103E30003D40562186A0FFF794FED4E91E01884A32
:103E4000884B06F00BFF0B467B4902464031684623
:103E500004F076FA69467DA0FFF783FE9DF80070B6
:103E60002F4056217AA0FFF77CFE04F180057E4AA0
:103E7000D5E906017D4B06F0F1FE0B466E49024680
:103E80005031684604F05CFA694670A0FFF769FE9D
:103E90009DF8008008EA070856216DA0FFF761FE33
:103EA000206E06F0C7FE0B46634902464031684665
:103EB00004F046FA694665A0FFF753FE9DF80070CE
:103EC00007EA0807562162A0FFF74BFED4E91C0160
:103ED0004FF00052664B06F0C1FE0B4656490246B3
:103EE0005C31684604F02CFA694658A0FFF739FEA9
:103EF0009DF800403C40562155A0FFF732FE4E4948
:103F0000D5E902235031684604F01AFA69464FA0F9
:103F1000FFF727FE9DF80070274056214CA0FFF7C1
:103F200020FE4549D5E904235031684604F008FADB
:103F3000694646A0FFF715FE9DF800403C4056211B
:103F400043A0FFF70EFE03CD4A4A4B4B06F086FE18
:103F50000B46394902464031684604F0F1F969469A
:103F60003AA0FFF7FEFD9DF800502540562138A0ED
:103F7000FFF7F7FD5721304602F012FD2946304683
:103F800002F00EFD4FF47A7B5846FCF795F90024B9
:103F90003A4FA7F5E049A7F500585A212CA0FFF7A2
:103FA000E0FDF021304602F0FBFC57F8241034A06D
:103FB000FFF7D7FD562126A0FFF7D3FD57F82400C1
:103FC00006F038FE02460B461B49684604F0B8F975
:103FD0009DF800A059F8241029A0FFF7C2FD562132
:103FE0001BA0FFF7BEFD59F8240006F023FE024691
:103FF0000B461149684604F0A3F99DF8005005EA04
:104000000A0558F8240007F003F902460B461DA0E4
:10401000FFF7A7FD56210EA036E0000020000000AB
:1040200000440040780000202564000000093D00A5
:1040300000080140801A06002029000825530000CE
:1040400000408F406397A8DE1A58F23F25532000A6
:104050002563000080842E41D1967329AE2AE33F68
:10406000105839B4C876F03F0AD7A3703D0AEF3F25
:104070005FA0024216139B8F6B43F73F907D002099
:10408000256C640025660000FFF76BFD58F82400DE
:1040900007F0BEF802460B460B49684604F050F99B
:1040A0009DF800A00AEA050A5721AFF25C00FFF76D
:1040B00058FD5146304602F073FC641CA4B25C45C6
:1040C000FFF46BAFBDE8F88F2029000801B5009818
:1040D00000E0401E0028FCD108BD38B501211020A9
:1040E00002F0E3FA4FF40070ADF8000004208DF800
:1040F0000300EC4C6946204602F0D1F84FF4E85139
:10410000ADF8001010218DF8031003218DF8021076
:104110006946204602F0C3F838BD70B50546E14C4B
:104120004FF033302060204602F025F900F47F4143
:1041300029436420FFF7CAFF204602F029F9A5149D
:104140002946204602F01AF9E114204602F016F939
:1041500026153146204602F013F93146204602F07A
:104160000DF929462046BDE8704002F009B970B546
:104170000546CC4C4FF033302060204602F0FBF86F
:1041800000F47F4129436420FFF7A0FF204602F09E
:10419000FFF8A5142946204602F0F2F8E114204663
:1041A00002F0ECF826153146204602F0E9F83146D7
:1041B000204602F0E3F829462046BDE8704002F0B0
:1041C000DFB82DE9F041B74D4FF044302860AE1410
:1041D0003146284602F0D2F82915284602F0CEF8DA
:1041E000EF143946284602F0CBF8284602F0B9F819
:1041F000C4B23946284602F0C1F83146284602F0DA
:10420000BFF82046BDE8F0812DE9F041A54D4FF003
:1042100044302860AE143146284602F0B1F8291522
:10422000284602F0ABF8EF143946284602F0A8F809
:10423000284602F096F8C4B23946284602F09EF8A5
:104240003146284602F09AF82046DBE770B5954DD6
:104250004FF400742146284602F07CF80028F9D17A
:104260002220FFF75AFFBDE87040CDE770B58D4CB6
:104270004FF48071204602F083F8E114204602F0EA
:104280007DF82115204602F079F80620FFF745FF5A
:104290005520FFF76CFFFFF7B7FFAA2815D064245D
:1042A000814D0520FFF739FF2846FFF70FFF062055
:1042B000FFF733FF5520FFF75AFFFFF7A5FFAA28A6
:1042C00003D0641EE4B2002CEBD11520FFF725FFCC
:1042D0000620FFF74CFFFF249620FFF7F7FEFFF7BD
:1042E00093FF512803D0641EE4B2002CF4D10CB12A
:1042F000002070BDFF2070BDA8E770B5FFF7B6FFC6
:10430000FFF7FAFF5120FFF708FFFFF79FFF142880
:1043100018D15320FFF701FFFFF798FF142807D0AB
:104320006248FFF7D3FE5320FFF7F7FEFFF78EFF3B
:10433000142807D12820FFF7F0FEFFF765FF0828B3
:1043400001D01F2070BD0024594DFFF75DFF285597
:10435000641CE4B2082CF8D1A879554C083C042818
:1043600013D0082814D0102815D0082020702078E9
:10437000800160600B20FFF7D0FE3920FFF7F7FEC9
:104380002078FFF7F4FE002070BD10202070EEE7CB
:1043900020202070EBE740202070E8E710B559207E
:1043A000FFF7BBFEBDE8104050E770B504460D4670
:1043B0005620FFF7B2FEE0B2FFF7D9FEC4F30720A4
:1043C000FFF7D5FEC4F30740FFF7D1FE200EFFF73D
:1043D000CEFE0120FFF7CBFE0026FFF737FF1E2899
:1043E0001AD12B20FFF799FE4020FFF7C0FE0024D2
:1043F0002878FFF7BCFE6D1C641CE4B2402CF7D398
:104400005720FFF78AFE761CF6B2082EE5D3FFF799
:104410001DFF142800D1002070BD70B504460D4664
:104420005420FFF77AFEE0B2FFF7A1FEC4F30720A5
:10443000FFF79DFEC4F30740FFF799FE200EFFF73C
:1044400096FE0120FFF793FE0826FFF7FFFE1D28CA
:1044500015D12820FFF761FEFFF7D6FE044605E0E0
:10446000FFF7D2FE05F8010B641EE4B2002CF7D171
:104470005520FFF752FE761EF6B2002EE5D1FFF76B
:10448000E5FE14280BD01F280AD14FF4FA60FFF77D
:104490001DFE5A20FFF741FEBDE87040D6E6002021
:1044A00070BD00000010014000D4300000E20400A4
:1044B0004001002010B56FF0040001F073FE2048A9
:1044C00020490068B0FBF1F01F49C0B2087000EB52
:1044D0004002C2EBC0104FF6FF7202EAC0004880F3
:1044E00010BD1949097848434FF0E0214861002385
:1044F0008B61086940F0010008610869C20701D0BA
:10450000C003FAD5086920F0010008618B6170478B
:104510000D49498848434FF0E021486100238B61F1
:10452000086940F0010008610869C20701D0C003B2
:10453000FAD5086920F0010008618B61704700001E
:104540007801002000127A004801002010B50024F4
:104550003948002101710160FFF7CFFE00B101244D
:10456000204610BD70B504460D46344801683448F5
:104570008D4200780BD1304B1979814205D11A68F0
:10458000A24202D10AB1002070BD18711C6028B986
:1045900029462046FFF741FF0028F9D1002070BDD1
:1045A00070B505460C462548016825488C420078C0
:1045B00002D1214A1071156028B921462846FFF71B
:1045C000F4FE0028F9D1002070BD0021002803D09E
:1045D0001B4A12782AB902E000207047491C814228
:1045E000FCD3002070470021002803D0144A127821
:1045F0002AB902E000207047491C8142FCD3002008
:10460000704730B500220D4B00244FF400751B6835
:104610009C54521CAA42FBD3094A137823B90022A6
:1046200000E0521C8242FCD3034A13710844401E2E
:104630001060002030BD00004C0100205801002017
:1046400054010020002301E0C2545B1C8B42FBD3C9
:104650000020704730B5002306E0C45CCD5CAC425E
:1046600001D0002030BD5B1C9342F6D3012030BD49
:1046700010B5002302E0CC5CC4545B1C9342FAD317
:1046800010BD002202E08354521CD2B28B5C002B7E
:10469000F9D10021815470470146002000E0401C00
:1046A0000A5C002AFBD170470146002000E0401C54
:1046B00031F81020002AFAD170470078704700883E
:1046C00070470068704710B50446002304E0C8181E
:1046D000FFF7F3FFE0545B1C9342F8D3204610BD74
:1046E000FE4AD16010700020704702460020002969
:1046F00000D01078022902D3537840EA032003291E
:1047000002D3937840EA0340042902D3D17840EAE7
:10471000016070472DE9FC410746F1A00068019057
:10472000F0A000680090ED4EF0680468641C16E08C
:1047300020467168FFF716FF7568042201A9284614
:10474000FFF788FF50B10422694605F5F270FFF7C4
:1047500081FF18B13C600020BDE8FC81641CF0685A
:104760004069A042E4D80120F6E770B5064600246F
:10477000DA4D16E0406969682044FFF7F3FE6B6884
:10478000002113F8210038B903EB8102507818B9E1
:10479000907808B9D07850B1491CC9B28029F0D3BB
:1047A000641CE868C168A142E4D8012070BD01EB37
:1047B000C4103060002070BD10B5C84CE06861685E
:1047C000C069FFF7CFFE6168E06801F5F4711C3045
:1047D00002790A708288120A4A704268120C8A7042
:1047E0004268120ECA70027A0A710289120A4A716C
:1047F0008268120C8A718268120ECA71A1F5F47176
:104800000068FFF7CDFE002010BD38B5B6A00068E7
:104810000090B24D00206968FFF7A4FE68689DF81B
:1048200000200178914209D141789DF80120914200
:1048300004D181789DF80220914207D0042100F52F
:10484000E370FFF752FFE968086002E0E9680020C2
:104850000860E86869680068FFF784FE6C6894F88F
:10486000520046280FD194F8530041280BD194F8F8
:104870005400542807D194F85500332803D194F8F4
:104880005600322801D0022038BD022104F10B006D
:10489000FFF72BFFE9688860042104F12400FFF78B
:1048A00024FFE968C860607B0861022104F10E0002
:1048B000FFF71BFFE9680A6810444861227CCB6857
:1048C00002FB03008861042104F12000FFF70DFFC3
:1048D0004108E86841601C30FFF71CFF08B1012067
:1048E00038BDE8686968C069FFF73CFE6868042164
:1048F00000F5F470FFF7F9FE0146E8680162491C13
:1049000008D142688169C1EB42010269B1FBF2F151
:10491000491E01622430FFF728FF08B1012038BD8D
:10492000FFF74AFF002038BD70B505466B4CE068C4
:10493000406900EBD5106168FFF714FE606805F070
:104940007F0100EB8100BDE870400421CDE62DE938
:10495000F05F0446DFF884A1DAF80C00D0F810808C
:10496000826808FB02F800270025CAF80840E269BF
:10497000A9468A4201D984F82A90E36A8B4203D17E
:104980004FF00000BDE8F09F0FD9A3692362D0F873
:1049900010C08669A3F1020303FB0C636362A4F8F1
:1049A0002890C4F82C9084F82A90E36AA1EB0306BF
:1049B0008A4203D8D61A012184F82A10B3FBF8F1F1
:1049C00008FB1131002974D0218D8268551AB54237
:1049D0002BD323D18569226A0169A2F1020303FB6B
:1049E0000153606AA1F10101A0EB03038B4210D1D6
:1049F00094F82A0018B91046FFF796FF2062DAF8FB
:104A00000C00216A82690069891E01FB0020606236
:104A100001E0401C6062A4F8289001E0881920851C
:104A2000E06A3044E0620020ACE7216A83690269F1
:104A3000A1F1020B0BFB0233D4F824C0521EACEBE5
:104A40000303934238D00CF1010CC4F824C0A4F83D
:104A50002890721BD0F818E0036980680BFB03EB09
:104A60005B44A3EB0C0303FB00FB5A4522D8B2FBCB
:104A7000F0F200FB025012D194F82A0018B908464F
:104A8000FFF752FF2062DAF80C00216A82690069A0
:104A9000891E01FB00206062A4F8289004E00CEB62
:104AA00002016162301A2085E06A3044E062002031
:104AB00068E710E000FB03550846FFF735FF0146A5
:104AC0002062DAF80C00891E8269006901FB00206F
:104AD0006062A4F82890AE4230D007E05401002074
:104AE0005252614172724161EB589000701BB0FBF1
:104AF000F8F90AE04544AE4202D194F82A0018B908
:104B0000206AFFF711FF20627F1C4F45F2D3DAF8CD
:104B10000C00216A82690369891E01FB032262621B
:104B2000AE420BD08168731BB3FBF1F001FB005167
:104B3000104460628E4201D0701A2085E06A3044D1
:104B4000E06200201EE700220EE05C2911D02F2930
:104B50000FD03A290DD022290BD03C2909D03E296B
:104B600007D07C2905D0521C815C0029EDD10020A2
:104B700070470120704710B5044600232046FFF718
:104B80008BFD401E00E0401E215C2029FBD00FE081
:104B9000E15C2B2910D05B290ED05D290CD02C298B
:104BA0000AD0202908D03B2906D03D2904D05B1C1F
:104BB0008342EDD9002010BD012010BD00B5034691
:104BC0001846FFF769FD401E00211A782E2A06D1EB
:104BD000012000BD1A5C2E2A00D1491C401E00286D
:104BE000F8D1012901D9012000BD002000BD30B558
:104BF00003461846FFF750FD401E022102220CE03A
:104C0000A4F16105192D01D871B10121413C192C84
:104C100002D801290AD00021401E1C5C2E2C01D094
:104C20000028EDD120B10BE0FF2030BDFF2030BDCA
:104C30001A78613A192A01D831B101210A460021B6
:104C40001C5C2E2C02D011E0FF2030BD401E0DE078
:104C50001C5CA4F16105192D01D862B10122413C0F
:104C6000192C02D8012A08D00022401E0028EFD1BA
:104C7000022A04D00DE0FF2030BDFF2030BD18789F
:104C8000A0F16103192B00D801224138192800D85E
:104C9000002242EA0110C0B230BD70B505460024C2
:104CA00000262846FFF7F8FC00E0401E291811F8FE
:104CB000011C2029F9D00C2801D9012070BD411E0A
:104CC000CBB204E0E95C2E290ED05B1EDBB2002BD8
:104CD000F8D166B1611C401AC0B2641E072C0ED810
:104CE00003280CD8002070BD1C460126F1E7C0B295
:104CF000401E072801D8002070BD012070BD012092
:104D000070BD70B507230A2201E05B1EDBB2C45CF4
:104D1000202CFAD05B1CDBB201E0521ED2B2845CC4
:104D2000202C01D1082AF8D2D21FD4B2002203E0ED
:104D3000855C8D54521CD2B29A42F9D32E258D54E3
:104D4000002206E085189E180E442D7A7570521CBC
:104D5000D2B2A242F6D3181900220B5C2E2B03D03C
:104D600008444270002070BD0A54FBE72DE9F04171
:104D700004460D46F74EB46021462846FFF7C1FFB2
:104D80002046FFF789FC401E09E02A7BD20605D5A4
:104D9000A1F14102192A00D820312154401E215C82
:104DA0002E2901D00028F0D1297B09070BD500213D
:104DB00007E0625CA2F14103192B00D82032625453
:104DC000491C8142F5D32046FFF766FC401EE97A74
:104DD0004FF00007C90601D520444770E87A607398
:104DE000022105F11A00FFF780FC8046022105F13F
:104DF0001400FFF77AFC08EB0040A061042105F1E4
:104E00001C00FFF772FCE061022105F10E00FFF7C4
:104E10006CFCC106890E2174400900F02F02E27378
:104E2000800900F01F00A073687B6422B0FBF2F0E1
:104E300008442074022105F11000FFF756FC00F031
:104E40001F016175400900F00F012175000900F094
:104E50007F0000F2BC706082A0692062002807D049
:104E6000F168A0F102008A69096900FB012001E0F4
:104E70004FF0000060622785E76202D14FF0010029
:104E800001E04FF0000084F82A004FF00000BDE878
:104E9000F081002105E02A2A08D03F2A06D0491CCB
:104EA000C9B2425C002AF6D1002070470120704749
:104EB0002DE9F04180460F46134600244046FFF797
:104EC000EBFBC6B23846FFF7E7FBC5B20AE018F8BD
:104ED00003003A5D90420ED03F2A0CD0181B401CB4
:104EE000C3B20024B34201D2AC42F0D3AC4207D1EA
:104EF000581BC0B2CBE75B1CDBB2641CE4B2F1E729
:104F0000FF20C4E72DE9F04F85B007468B4600240B
:104F10005846FFF7C1FB00F0FF083846FFF7BCFB1F
:104F2000C6B20025E9460AE0A0F16101192900D8BE
:104F3000203809F805006D1CEDB2641CE4B2B442DF
:104F400002D2385D2A28EFD1385D28B9464503D012
:104F5000012005B0BDE8F08F4FF0000A09F805A068
:104F6000002269465846FFF7A3FF08B10120F0E789
:104F70002A4601E0641CE4B2B44202D2385D2A2819
:104F8000F8D0B44201D10020E3E700250AE0A0F107
:104F90006101192900D8203809F805006D1CEDB20F
:104FA000641CE4B2B44202D2385D2A28EFD109F879
:104FB00005A0B4420BD169465846FFF779FFA8EB2C
:104FC0000501884201D00120C3E70020C1E76946FE
:104FD0005846FFF76DFFFF2802D02844C2B2CBE746
:104FE0000120B6E72DE9F0470D4600283AD0012808
:104FF00038D0584E8100F26890685269B1FBF0F3E6
:105000009F18B1FBF0F200FB121438467168FFF7ED
:10501000A9FA71680D5508194FEA152880F8018022
:105020004FEA154980F802904FEA156A80F803A00C
:105030003846FFF7B5FAF0687168C0683844FFF782
:1050400091FA71680D55081980F8018080F8029076
:1050500080F803A0F068C0683844FFF7A1FA002088
:10506000BDE8F0870120FBE710B501463948891EED
:10507000C0688269006901FB0021FFF7C2FA0020C5
:1050800010BD70B5334DE868016A002941D0491E52
:105090000162416ACC09406969682044FFF762FAFD
:1050A0006A68EB6893F8240000F07F00401C0BE076
:1050B00012F8201039B902EB80014E781EB98E78B3
:1050C0000EB9C97821B1401C8028F1D3641C1CE0C2
:1050D00000EBC4105862FFF76FFB002070BD406901
:1050E00069682044FFF73EFA6A68002012F8201031
:1050F00039B902EB80014B781BB98B780BB9C978B1
:1051000061B1401C8028F1D3641CE868C168A142E9
:10511000E5D8E96802204862072070BDE96800EB25
:10512000C4104862FFF748FB002070BD2DE9F34F23
:1051300085B08B46DBF800800598FFF704FD10B1C1
:10514000082007B006E70598FFF7A7FD20B1092062
:10515000F7E70000540100200598FFF72FFD08B184
:105160000A20EEE70598FFF706FD08B10B20E8E7F7
:105170000598FFF73CFDFF280BD0DFF814A5DAF8FF
:105180000C0002698169A8F1020000FB02190025E8
:1051900021E00C20D5E709EB0500DAF80410FFF751
:1051A000E1F9DAF80470002407EB4416F07AC0063F
:1051B0000BD53078E52808D001A93046FFF7A1FDCE
:1051C00001A90598FFF79EFEA0B1641CE4B2102C63
:1051D000EAD36D1CEDB2DAF80C000069A842DAD807
:1051E0004046FFF7A1FB80466FF070408045C6D176
:1051F0000420A6E7022106F11A00FFF776FA04461A
:10520000022106F11400FFF770FA44EA0040CBF8DF
:105210000000002095E72DE9FF470646894617461E
:1052200000240125012038600220C9F800003078F0
:105230005C2801D02F2801D1707808B1E8461BE026
:10524000002004B00CE75C2B09D02F2B07D008F806
:105250000430641CE4B20C2C0DD90920F1E70020C5
:1052600008F80400002449466846FFF75FFF00285D
:10527000E7D1681C38606D1C735D002BE3D1002002
:10528000DFE72DE9FF4F87B00D469346002700204A
:10529000069005908046FE4C0798A06005AA06A9D6
:1052A0002846FFF7B8FF002807D10598284400904A
:1052B0000098FFF748FC10B108200BB04AE60098B0
:1052C000FFF7E7FDC0B90098FFF7E7FC08B1092038
:1052D000F3E70098FFF772FC08B10A20EDE70098A9
:1052E000FFF749FC08B10B20E7E70098FFF77FFCC8
:1052F000FF2801D10C20E0E7E549C868036982690D
:105300000698801E00FB032A00263EE00AEB0600FA
:105310006168FFF727F9D4F80490002409EB4415DD
:105320000A9840B1E87AC1062BD40F2829D040B39F
:10533000082804D125E0E87AC0F3001008B32878E3
:10534000E5281ED02E281CD001A92846FFF7D9FC3D
:1053500001A90098FFF7D6FD78B9C3450CD12946BD
:105360000798FFF703FD07980AEB0601016307980A
:1053700080F834400020A0E7012717B108F10108A8
:105380000027641C102CC9D3761CC14CE06800694E
:10539000B042BBD80698FFF7C7FA06906FF070418D
:1053A0008842A9D1032088E72DE9F04F04460E4634
:1053B000174699464FF0000AD34600253046FFF7BE
:1053C0006BF900F0FF08002220212046FFF73AF990
:1053D000A8F10100C0B204E0315C2E2909D0401EC2
:1053E000C0B20028F8D12022BBF1000F31D000203C
:1053F0000CE082464FF0010BF5E7315CA1F161034F
:10540000192B00D820392154401CC0B25045F4D388
:1054100002E02254401CC0B20828FAD30AF1010A63
:105420000AF0FF000BE0315CA1F16103192B00D8F9
:105430002039631919726D1CEDB2401CC0B2404591
:10544000F1D303E0601902726D1CEDB2032DF9D3A4
:1054500019E0002008E0315CA1F16103192B00D8AC
:1054600020392154401CC0B24045F4D302E02254FC
:10547000401CC0B20828FAD3002021180A72401C30
:10548000C0B20328F9D3B9F1000F01D0202000E009
:105490003020E0723046FFF7AAFB00F00F0101292F
:1054A00003D1217B41F0080121730121B1EB101FD1
:1054B00003D1207B40F010002073B879C00701D0E1
:1054C000782000E00020607338797979C00200EB21
:1054D0004110B97900EB5101A1730B0AE3733888CD
:1054E0006422B0FBF2F502FB15001430BA784002DA
:1054F00000EB4210FA7810442074020A6274A0741F
:10550000E274A175E37520766276B9F1000F0DD1D2
:105510005F48C068416A090C2175416A090E6175CE
:1055200090F82410A176808C000AE076002011E526
:105530002DE9FF5F814616469A465548C168096ABB
:10554000002903D1072004B0BDE8F09F5049C86886
:1055500003698269A9F1020000FB032700251DE011
:1055600078196168FEF7FEFFD4F80480002408EB88
:10557000441083460B220199FFF76CF828B1781983
:1055800030608AF800400520DDE79BF80000E8B3B2
:10559000641CE4B2102CEAD36D1CEDB23C4CE06804
:1055A0000069A842DCD84D464846FFF7BDF9814660
:1055B0006FF070408145C9D1E068016A39B3416A32
:1055C0002846FFF70FFDE0686FF07041406AFFF773
:1055D00009FDE068406AFFF747FDE068416A8269BB
:1055E0000069891E01FB0020306000208AF800005D
:1055F00030686168FEF7B6FF202201996068FFF706
:1056000037F830686168FEF7CBFF01E004E01BE08B
:10561000FFF737FD002096E7781930608AF80040E0
:105620001B4C30686168FEF79DFF9AF800006168C6
:10563000202201EB40100199FFF71AF830686168E9
:10564000FEF7AEFF00207EE707207CE72DE9F04360
:105650008DB004460F46154600260C960B960A960A
:105660000996DFF82C80C8F808400BAA0CA9384628
:10567000FFF7D1FD002807D10B9807EB000948463A
:10568000FFF761FA30B108200DB0BDE8F0830000EB
:10569000540100204846FFF700FB08B10920F3E75A
:1056A0004846FFF78BFA08B10A20EDE74846FFF7B6
:1056B00062FA08B10B20E7E74846FFF798FAFF289F
:1056C00010D001232A46494601A8FFF76DFE09AB19
:1056D0000AAA01A90C98FFF72BFF074627B1052F4F
:1056E00025D038E00C20CFE749462046FEF7C9FF19
:1056F000202060732879A0736879E073A8792074FA
:1057000028886082A8782075E8786075A661E661CF
:10571000266266622685E662012084F82A000A98DD
:1057200020639DF8240084F834000020ACE7D8F80A
:1057300004100A98FEF716FF9DF82410D8F804000C
:1057400000EB41112046FFF711FB0A9820639DF8FA
:10575000240084F83400384696E7F0B58BB0044650
:105760000E46174600250A9509953046FFF7EBF9D6
:1057700010B108200BB0F0BD3046FFF78EFA08B12B
:105780000920F7E73046FFF719FA08B10A20F1E7D8
:105790003046FFF7F0F908B10B20EBE73046FFF792
:1057A00026FAFF2840D000233A46314601A8FFF7E9
:1057B000FBFD0AAB09AA01A92068FFF7B9FE002882
:1057C000D8D1FE4E6FF07041F068406AFFF70AFCD6
:1057D000F068406AFFF748FC2E278DF8047001201E
:1057E0000A9001AA20219DF828001154401CC0B243
:1057F0000A900B28F7D3202201A97068FEF738FF22
:105800008DF805702068022810D0000C8DF8180063
:105810002068000E8DF8190020788DF81E00208871
:10582000000A8DF81F0009E00C20A3E78DF81F5037
:105830008DF819508DF81E508DF818507068202280
:1058400001A92030FEF714FFF068416A82690069FF
:10585000891E01FB00207168FEF7A2FEF068406A15
:105860002060FFF70EFC002084E72DE9F04186B0B0
:1058700007468846002605960496002404AA05A932
:105880003846FFF7C8FCF8B16D4618E05C280AD02E
:105890002F2808D02855641CE4B20C2C0CD9092000
:1058A00006B0BDE8F0812E5500244246694605A8A1
:1058B000FFF753FF0028F3D10498401C049004988C
:1058C000385C0028E2D1EBE70D20E9E770B504462B
:1058D000BA4DAC60206B6968FEF744FE94F8340062
:1058E000696801EB4010227F0277A28B120A42778F
:1058F000E269120C8277E269120EC277206BFEF722
:105900004FFE002070BD70B505460C46AB4EB5602D
:10591000286B7168FEF726FE95F83400716801EB7C
:105920004010AC61220C0275220E42758476220A68
:10593000C276286BFEF734FE002070BD2DE9F05FC3
:105940008846DFF878B2DBF80450DBF80C108C687E
:105950000B696343CBF80800B2FBF3F6B2FBF3F438
:1059600003FB1422002A00D0761CB2460A6AB24217
:1059700001D20720E8E54C6A04620F698B69A21E18
:1059800002FB07324262761EB8F1000F13D04FEAD5
:10599000D817486929463844FEF7E4FD08F07F002F
:1059A00005F8204005EB8000210A4170210C817030
:1059B000210EC17005E0E709486929463844FEF721
:1059C000D1FDB7EBD41F1ED1EEBB04F07F00FF2149
:1059D00005F8201005EB8000417081700F21C17027
:1059E000DBF80C00DBF8041040693844FEF7D8FD02
:1059F000DBF80C004169C06808443844DBF8041047
:105A0000FEF7CEFD3AE0DBF80C00DBF8041040694D
:105A10003844FEF7C5FDDBF80C004169C068084456
:105A20003844DBF80410FEF7BBFDE709DBF80C0097
:105A3000DBF8041040693844FEF794FD1EB904F009
:105A40007F00FF2100E019E005F8201005EB800041
:105A5000417081700F21C170DBF80C00DBF804107D
:105A600040693844FEF79CFDDBF80C004169C068D2
:105A700008443844DBF80410FEF792FD96B1A146C5
:105A80004C464FEAD917E043400636D0DBF80C000D
:105A9000DBF8041040693844FEF764FD04F07F0031
:105AA000401C28E0DBF80C00016AA1EB0A0101624E
:105AB000FFF7E7FAFEF780FE002045E5641C15F8C5
:105AC0002010A9B905EB80014A788AB98A787AB999
:105AD000C97869B909F07F0105F8214005EB81011A
