:020000040800F2
:1000000078E300208D5B0008F5070008F70700087B
:10001000F9070008FB070008FD07000800000000C2
:10002000000000000000000000000000FF070008C2
:100030000108000800000000030800080508000887
:10004000A75B0008A75B0008A75B0008A75B000888
:10005000A75B0008A75B0008A75B0008A75B000878
:10006000A75B0008A75B0008A75B0008A75B000868
:10007000A75B0008A75B0008A75B0008A75B000858
:10008000A75B0008A75B0008A75B0008A75B000848
:10009000A75B0008A75B0008A75B0008A75B000838
:1000A000A75B0008A75B0008A75B0008A75B000828
:1000B00007080008A75B00083B080008A75B0008CA
:1000C000A75B0008A75B0008A75B0008A75B000808
:1000D000A75B000857090008B9320008A75B0008B1
:1000E000A75B0008A75B0008A75B0008A75B0008E8
:1000F000A75B0008A75B0008A75B0008A75B0008D8
:10010000A75B0008A75B0008A75B0008A75B0008C7
:10011000A75B0008A75B0008A75B0008A75B0008B7
:10012000A75B0008A75B0008A75B0008A75B0008A7
:1001300000F002F800F090F80AA090E8000C824469
:100140008344AAF10107DA4501D100F085F8AFF246
:10015000090EBAE80F0013F0010F18BFFB1A43F0A5
:10016000010318472491000044910000103A24BF75
:1001700078C878C1FAD8520724BF30C830C144BF0C
:1001800004680C607047000000230024002500264E
:10019000103A28BF78C1FBD8520728BF30C148BFEA
:1001A0000B6070476E2905F0EC87702906F04383D9
:1001B000662908F0CD86652908F0CA86672908F007
:1001C000C7866129AFF3008003681B0A28BF41F08E
:1001D0008001692905F00C86642905F009867529D6
:1001E00005F006866F2906F0D082782906F00F8385
:1001F000E92906F06B82E42906F06882F52906F009
:100200006582EF2906F0CD82F82906F00E83036897
:10021000DB0928BF41F08001632906F0AF83732911
:1002200006F0B483E32906F0BF83F32906F0C48304
:10023000002070471FB506F009FB040000200021D4
:1002400007F0A6FE401C60600020002107F08AFE37
:10025000E0601FBD10B510BD06F044FC1146FFF76D
:10026000E9FF00F08DFA06F06BFC03B4FFF7F2FF34
:1002700003BC06F0AFFC000001B502E00098401E90
:10028000009000980028F9D108BD70B503F012FE67
:100290004FF48035284603F026FE03F052FEFE4957
:1002A0000870012829D1102005F02EFA022005F04F
:1002B0001BFA002003F07FFE002003F08AFE0020DE
:1002C00003F080FEAC10204603F09AFE4FF4E011DC
:1002D000284603F059FE204603F092FE012003F069
:1002E0005BFE392003F018FE0028FAD0022003F04C
:1002F00056FE03F05BFE0828FBD170BD2DE9F84FD8
:100300000121052003F0F9FE0121082003F0F5FE8C
:100310000121402003F0F1FE0121202003F0EDFE39
:100320004FF40070ADF800004FF018088DF803800E
:1003300003248DF802406946D84803F0D8FC4FF4F6
:100340008060ADF8000004268DF803606946D3484C
:1003500003F0CDFC4FF40069ADF8009010258DF846
:1003600003508DF802406946CC4803F0C0FC80275A
:10037000ADF800708DF803508DF802406946C7480B
:1003800003F0B5FC4020ADF800004FF0280A8DF8CE
:1003900003A08DF80240DFF808B36946584603F021
:1003A000A6FCADF800708DF803A08DF802406946F8
:1003B000584603F09CFCADF800908DF803508DF882
:1003C00002406946584603F092FC6802ADF800000E
:1003D0008DF803508DF802406946584603F087FCBB
:1003E000A802ADF800008DF803508DF80240694670
:1003F000584603F07CFC4FF47F40ADF800008DF8C8
:1004000003508DF802406946A64803F070FC802135
:10041000A24803F0DBFCADF800608DF803808DF896
:10042000024069469D4803F062FC0820ADF80000D8
:100430008DF803606946994803F059FC04219748F8
:1004400003F0C6FCBDE8F88F2DE9FF4101218803C8
:1004500003F053FEDFF85082404603F0A5FE4FF450
:10046000E13600960024ADF80440ADF80640ADF842
:100470000840ADF80C400C25ADF80A5069464046DE
:1004800003F0DAFE40F2255701223946404603F0D8
:100490005AFF0121404603F04AFF0121480403F0BE
:1004A00037FEDFF80882404603F07EFE0096ADF886
:1004B0000440ADF80640ADF80840ADF80C40ADF88A
:1004C0000A506946404603F0B7FE012239464046CD
:1004D00003F039FF0121404603F029FFBDE8FF8109
:1004E00010B58CB00121084603F0FCFD704C20468D
:1004F00005F006F86F4801906748801C02900021C3
:1005000003910222049205918022069252000792E2
:10051000900008902020099000020A900B9101A9F8
:10052000204605F064F80121204605F08AF80CB059
:1005300010BD10B586B00121480203F0DEFD002099
:10054000019001218DF808108DF809104FF46021F9
:100550000391049002208DF81400564C01A94C3CE4
:10056000204604F035FE072301220821204604F02E
:10057000B9FE072302220921204604F0B3FE01211F
:10058000204604F059FE0121204604F049FE204691
:1005900004F069FE204604F06BFE0028FAD12046E4
:1005A00004F06DFE204604F06FFE0028FAD1012110
:1005B000204604F070FE06B010BD38B500214FF0A3
:1005C000006003F004FB4FF4E06003F0CBFA252059
:1005D0008DF8000000258DF8025001248DF80340AD
:1005E000684603F0C4FA26208DF8000002208DF83A
:1005F00002008DF80340684603F0B9FA1C208DF81C
:1006000000008DF801508DF802508DF803406846C7
:1006100003F0ADFA1E208DF800008DF801408DF832
:1006200002508DF80340684603F0A1FA38BDF0B5DA
:1006300087B04FF08045284603F088FF0121084627
:1006400003F066FD0121022003F062FD0121042078
:1006500003F05EFD2321ADF810101021ADF812104B
:100660004FF4FA61ADF814100024ADF816408DF87F
:10067000184004A9284604F051F80021284604F047
:100680001EFB01221146284604F033FB4FF6FE7094
:10069000ADF8140010E00000000000200008014048
:1006A000000C0140001801400038014000440040A7
:1006B000080002404C240140ADF81040ADF816404F
:1006C000ADF81240464F04A9384604F027F8ADF8BB
:1006D0000440ADF806400125ADF80850ADF80A40D9
:1006E0000526ADF80C6001A9384604F045FA04204F
:1006F000ADF80400ADF80640ADF80850ADF80A407A
:10070000ADF80C6001A9384604F036FA00213846ED
:1007100004F0EEFC0121384604F0D1FA0122022156
:10072000384604F0E6FA01220421384604F0E1FAE2
:100730002B482030018821F001010180018821F03F
:100740001001018007B0F0BD10B5FFF79EFDFFF767
:10075000D5FDFFF779FEFFF7C3FEFFF7EAFEFFF7CF
:100760002CFFFFF764FF1F4C4FF40041204603F0BD
:100770002FFB2046BDE810404FF4FE4103F026BB9E
:10078000FFF7E2FF01F048FC01F0CCFC00F0CAFAF0
:10079000154C2046FFF770FD00F0FEF82046FFF7ED
:1007A0006BFD124C0125AE02208828B9258001225C
:1007B0000321002000F0C4FF31460D4801F0E2FCA7
:1007C0000028F1D001F069FA01F096FA01F05EFB21
:1007D00001F06BFB01F087FB01F09AFBE4E70000FE
:1007E0000008004000180140C0C62D001C00002079
:1007F000100100207047FEE7FEE7FEE7FEE77047C6
:1008000070477047704710B501218C07204604F0EF
:10081000A3FC01280BD1594A5188491C89B2518047
:10082000642904D3002050801069401C10612046C8
:10083000BDE81040012104F09BBC70B54F4E3088DC
:100840004F4D4F4C203D002803D0308802281DD04A
:1008500035E00221284604F07FFC012811D1022155
:10086000284604F085FC284604F05FFCB080022096
:100870003080208820F001002080208840F0100087
:1008800020800421284604F073FC18E00122042192
:10089000284604F02EFA0421284604F05DFC0128C5
:1008A0000DD10421284604F063FC284604F03FFCE7
:1008B000F08003203080208820F01000208002216A
:1008C000284604F055FC0421284604F051FC3088E9
:1008D00003283BD1F088B188884204D9F088B188D8
:1008E000401AF06006E0B0884FF6FF71081AF188F0
:1008F0000844F0602348006807F056FE0022224BAF
:1009000007F04AFC04460D46F06807F036FE224622
:100910002B4607F05DFE00221C4B07F059FE00221B
:100920001B4B07F039FC07F0CBFDB0604FF4616161
:1009300002E0A0F56160B060B0688842F9DCB1689F
:10094000B1F5E16F03DDA0F5E160B06070BD00F5C9
:10095000E160B06070BD10B50E4C40F225512046EC
:1009600003F0C1FD002807D0204603F048FDC0B2C7
:10097000BDE8104001F0DEBB10BD00000800002003
:10098000200800406400002000408F400020AC4060
:10099000882A91410038014010B50924BAA20621E5
:1009A000002000F00BFFB8A20721002000F006FF96
:1009B000B6A20821002000F001FFB5A219210020F5
:1009C00000F0FCFEA1B2B0A2002000F0F7FE641C13
:1009D000162CF7DB01221146002000F0F8FF002260
:1009E0000221104600F0F3FF0022BDE8104018215C
:1009F000104600F002BF7047704710B50179C27809
:100A0000A44B41EA022159828279407942EA0020CE
:100A100098820122002901D1032801D071B32FE06F
:100A20001A8001220221002000F0D1FF00221721AC
:100A3000104601F0BFF800222121104601F0BAF85B
:100A40009548FFF719FC00221F231721104601F0DB
:100A500013F800224FF478432121104601F00CF8DE
:100A60000621002000F047FF0721002000F043FF8F
:100A70000821BDE81040002000F03DBF042801D04F
:100A800041B109E05A800022BDE810400221104621
:100A900000F09DBF1A286AD009B91B2802D000298E
:100AA0004DD04EE09A8078A20621002000F086FE0C
:100AB00075A20721002000F081FE73A2022101200F
:100AC00000F07CFE72A21921002000F077FE6EA2D9
:100AD0001F21002000F072FE6BA22021002000F0F8
:100AE0006DFE69A22221002000F068FE66A223218B
:100AF000002000F063FE0924A1B263A2002000F0F0
:100B00005DFE641C162CF7DB01221146002000F06C
:100B10005EFF00220221104600F059FF002218213A
:100B2000104600F06AFE00221721104601F042F83C
:100B30000022BDE810402121104601F03BB81C28DE
:100B400001D069B10EE0DA8000221821104600F0D1
:100B500054FE1921BDE810404DA2002000F02EBE29
:100B60001D2805D0012902D1032800D11A8210BD09
:100B70001A8110BDF0B500210279C378454E42EAD2
:100B8000032474828279437942EA0322B282334693
:100B90004FF0010C1D8800236FF02F07002C01D1AE
:100BA000062A01D0C4B119E0012D02D07381B361CE
:100BB0000DE0A6F80AC0FAE70A460244491C137A77
:100BC000B26902EB820207EB42021A44B261421898
:100BD000127A002AF0D1F0BD072A01D0C4B119E081
:100BE000012D02D0B381F3610DE0A6F80CC0FAE745
:100BF0000A460244491C137AF26902EB820207EBAF
:100C000042021A44F2614218127A002AF0D1F0BD71
:100C1000082A05D0012CFAD1022AF8D1736222E009
:100C2000012D02D0F38133620DE0A6F80EC0FAE781
:100C30000A460244491C137A326A02EB820207EB2D
:100C400042021A4432624218127A002AF0D1F0BDF0
:100C50000A460244491C137A726A02EB820207EBCD
:100C600042021A4472624218127A002AF0D1F0BD90
:100C700070477047704770470179C07841EA00209B
:100C80000449C88270470000000000003130300085
:100C9000300000001C000020A086010070B5054651
:100CA0000E46002404E0285D00F0E0FF641CA4B2BE
:100CB000B442F8D370BD70B505460E4600240AE074
:100CC00035F81400000A00F0D1FF15F8140000F008
:100CD000CDFF641CA4B2B442F2D370BDEE2000F08C
:100CE000C5BF10B5FF2000F0C1FFFC2000F0BEFF23
:100CF000FF2000F0BBFFBDE81040FF2000F0B6BFB2
:100D000010B5FFF7EBFF042000F0B0FFBDE8104086
:100D1000E7E710B5FFF7E2FF042000F0A7FFBDE80A
:100D20001040DEE710B5FFF7D9FF072000F09EFF67
:100D3000352000F09BFF5A2000F098FF532000F070
:100D400095FFA52000F092FFBDE81040C9E710B55F
:100D50000446FFF7C3FF412000F088FF200A00F09F
:100D600085FFE0B200F082FFBDE81040B9E710B5A2
:100D70000446FFF7B3FF422000F078FF200A00F09E
:100D800075FFE0B200F072FFBDE81040A9E710B5B2
:100D9000FFF7A4FF012000F069FFBDE81040A0E7C5
:100DA00070B505460C46FFF799FF432000F05EFF43
:100DB000284600F05BFF204600F058FFBDE8704079
:100DC0008FE770B506460C461546FFF787FF4520AE
:100DD00000F04CFF304600F049FF200A00F046FFCB
:100DE000E0B200F043FF280A00F040FFE8B200F054
:100DF0003DFFBDE8704074E770B504460D46FFF74F
:100E00006DFF442000F032FF200A00F02FFFE0B217
:100E100000F02CFF280A00F029FFE8B200F026FFBE
:100E2000BDE870405DE72DE9F04104460D461646E9
:100E30001F46DDF81880FFF751FF202000F016FF55
:100E4000200A00F013FFE0B200F010FF280A00F0C3
:100E50000DFFE8B200F00AFF304600F007FF384609
:100E600000F004FF404600F00EFFBDE8F04138E717
:100E70002DE9F04180460C4615461E46069FFFF7B9
:100E80002DFF212000F0F2FE404600F0EFFE200A88
:100E900000F0ECFEE0B200F0E9FE280A00F0E6FE09
:100EA000E8B200F0E3FE304600F0E0FE384600F025
:100EB000DDFEBDE8F04114E770B504460D46FFF7CE
:100EC0000DFF312000F0D2FE200A00F0CFFEE0B28C
:100ED00000F0CCFE284600F0C9FEBDE8704000E7F7
:100EE0002DE9F04104460D4616461F46FFF7F6FE73
:100EF000322000F0BBFE200A00F0B8FEE0B200F0A5
:100F0000B5FE280A00F0B2FEE8B200F0AFFE300AEB
:100F100000F0ACFEF0B200F0A9FE384600F0A6FEEC
:100F2000BDE8F041DDE62DE9F05F0446DDE90CABFC
:100F3000DDE90A890D4616461F46FFF7CFFE33202E
:100F400000F094FE200A00F091FEE0B200F08EFE68
:100F5000280A00F08BFEE8B200F088FE300A00F0AC
:100F600085FEF0B200F082FE380A00F07FFEF8B293
:100F700000F07CFE4FEA182000F078FE08F0FF0039
:100F800000F074FE4FEA192000F070FE09F0FF0037
:100F900000F06CFE4FEA1A2000F068FE0AF0FF0035
:100FA00000F064FE584600F061FEBDE8F05F98E690
:100FB0002DE9F04104460D4616461F46DDF818801F
:100FC000FFF78CFE802000F051FE200A00F04EFE5C
:100FD000E0B200F04BFE280A00F048FEE8B200F054
:100FE00045FE300A00F042FEF0B200F03FFE384607
:100FF00000F03CFE404600F039FEBDE8F04170E6EE
:1010000070B504460D46FFF769FE502000F02EFE35
:10101000200A00F02BFEE0B200F028FE280A00F0C3
:1010200025FEE8B200F022FEBDE8704059E670B53A
:1010300004460D46FFF752FE582000F017FE200A26
:1010400000F014FEE0B200F011FE280A00F00EFEDF
:10105000E8B200F00BFEBDE8704042E62DE9F04139
:1010600004460D4616461F46FFF738FE512000F095
:10107000FDFD200A00F0FAFDE0B200F0F7FD280ABD
:1010800000F0F4FDE8B200F0F1FD300A00F0EEFDF2
:10109000F0B200F0EBFD380A00F0E8FDF8B200F025
:1010A000E5FDBDE8F0411CE670B5044615461E4658
:1010B000FFF714FE592000F0D9FD200A00F0D6FDFC
:1010C000E0B200F0D3FD31462846FFF7E7FDBDE86A
:1010D000704006E62DE9F04104460D4616461F46CF
:1010E000FFF7FCFD752000F0C1FD200A00F0BEFDF9
:1010F000E0B200F0BBFD280A00F0B8FDE8B200F055
:10110000B5FD39463046FFF7D6FDBDE8F041E8E5CC
:101110002DE9F04104460D4616461F46FFF7DEFD59
:10112000762000F0A3FD200A00F0A0FDE0B200F060
:101130009DFD280A00F09AFDE8B200F097FD3946BF
:101140003046FFF7B8FDBDE8F041CAE570B5054689
:101150000C46FFF7C3FD682000F088FD4FF6FF71D5
:1011600001EA44012846FFF7A6FDBDE87040B8E556
:1011700070B505460C46FFF7B1FD692000F076FD1D
:101180004FF6FF7101EA44012846FFF794FDBDE8E0
:101190007040A6E570B504460D461646FFF79EFD65
:1011A000522000F063FD200A00F060FDE0B200F084
:1011B0005DFD280A00F05AFDE8B200F057FD300A44
:1011C00000F054FDF0B200F051FDBDE8704088E53C
:1011D00070B504460D461646FFF780FD532000F01B
:1011E00045FD200A00F042FDE0B200F03FFD280A74
:1011F00000F03CFDE8B200F039FD300A00F036FDA9
:10120000F0B200F033FDBDE870406AE52DE9F04131
:1012100004460D4616461F46DDF81880FFF75EFDB2
:10122000672000F023FD200A00F020FDE0B200F06E
:101230001DFD280A00F01AFDE8B200F017FD300A83
:1012400000F014FDF0B200F011FD380A00F00EFDC0
:10125000F8B200F00BFD4FEA182000F007FD08F08F
:10126000FF0000F003FDBDE8F0413AE52DE9F04153
:1012700004460D4616461F46FFF730FD542000F089
:10128000F5FC200A00F0F2FCE0B200F0EFFC280AC6
:1012900000F0ECFCE8B200F0E9FC300A00F0E6FCFB
:1012A000F0B200F0E3FC380A00F0E0FCF8B200F025
:1012B000DDFCBDE8F04114E52DE9F04104460D46A2
:1012C00016461F46FFF70AFD552000F0CFFC200A06
:1012D00000F0CCFCE0B200F0C9FC280A00F0C6FC2B
:1012E000E8B200F0C3FC300A00F0C0FCF0B200F03D
:1012F000BDFC380A00F0BAFCF8B200F0B7FCBDE85B
:10130000F041EEE42DE9F04104460D4616461F4635
:10131000FFF7E4FC562000F0A9FC200A00F0A6FC30
:10132000E0B200F0A3FC280A00F0A0FCE8B200F054
:101330009DFC300A00F09AFCF0B200F097FC380AED
:1013400000F094FCF8B200F091FCBDE8F041C8E474
:101350002DE9F04104460D4616461F46FFF7BEFC38
:10136000572000F083FC200A00F080FCE0B200F07F
:101370007DFC280A00F07AFCE8B200F077FC300A25
:1013800000F074FCF0B200F071FC380A00F06EFC62
:10139000F8B200F06BFCBDE8F041A2E410B50446E1
:1013A000FFF79CFC602000F061FC204600F05EFC32
:1013B000BDE8104095E42DE9F04107460C4615467E
:1013C0001E46FFF78BFC772000F050FC384600F0FB
:1013D0004DFC204600F04AFC284600F047FC304611
:1013E00000F044FCBDE8F0417BE410B50446FFF793
:1013F00075FC612000F03AFC204600F037FCBDE8A7
:1014000010406EE410B5FFF769FCFE2000F02EFCE2
:10141000BDE8104065E410B50446FFF75FFC70209E
:1014200000F024FC204600F021FCBDE8104058E408
:1014300010B5FFF753FC722000F018FCBDE8104017
:101440004FE410B5FFF74AFC732000F00FFCBDE835
:10145000104046E410B50446FFF740FCA02000F021
:1014600005FC204600F002FCBDE8104039E410B550
:101470000446FFF733FC792000F0F8FB204600F02B
:10148000F5FBBDE810402CE470B504460D46164649
:10149000FFF724FC872000F0E9FB200E00F0E6FBBC
:1014A000C4F3074000F0E2FBC4F3072000F0DEFBCA
:1014B000E0B200F0DBFB31462846FFF7EFFBBDE86A
:1014C00070400EE470B504460D46FFF707FC882017
:1014D00000F0CCFB200E00F0C9FBC4F3074000F085
:1014E000C5FBC4F3072000F0C1FBE0B200F0BEFB77
:1014F000280A00F0BBFBE8B200F0B8FBBDE8704082
:10150000FFF7EFBB10B50446FFF7E8FBA12000F0A2
:10151000ADFB204600F0AAFBBDE81040FFF7E1BBA1
:1015200010B50446FFF7DAFBA22000F09FFB20462F
:1015300000F09CFBBDE81040FFF7D3BB70B505463B
:101540000C46FFF7CBFBA42000F090FB284600F0F0
:101550008DFB204600F08AFBBDE87040FFF7C1BB61
:1015600010B50446FFF7BAFB052000F07FFB2046CC
:1015700000F07CFBBDE81040FFF7B3BB10B504469C
:10158000FFF7ACFB062000F071FB204600F06EFB7D
:10159000BDE81040FFF7A5BB10B50446FFF79EFB62
:1015A000462000F063FB204600F060FBBDE81040E1
:1015B000FFF797BB10B50446FFF790FB472000F0FC
:1015C00055FB204600F052FBBDE81040FFF789BBF9
:1015D0002DE9F0418046DDE906560F461C46FFF72F
:1015E0007DFB852000F042FB404600F03FFB384683
:1015F00000F03CFB384600F039FB200A00F036FBD7
:10160000E0B200F033FB280A00F030FBE8B200F053
:101610002DFB300A00F02AFBF0B200F027FBBDE8FA
:10162000F041FFF75EBB2DE9F0470746DDE9099A77
:101630000C4615461E46DDF82080FFF74FFB812043
:1016400000F014FB384600F011FB204600F00EFBC2
:10165000284600F00BFB304600F008FB404600F047
:1016600005FB484600F002FB504600F0FFFABDE8DB
:10167000F047FFF736BB10B5FFF730FB822000F0D4
:10168000F5FABDE81040FFF72CBB10B5FFF726FBBD
:10169000082000F0EBFAA52000F0E8FA5A2000F04C
:1016A000E5FA5F2000F0E2FAF52000F0DFFABDE88D
:1016B0001040FFF716BB10B5FFF710FB092000F034
:1016C000D5FADE2000F0D2FAED2000F0CFFA132098
:1016D00000F0CCFA312000F0C9FABDE81040FFF765
:1016E00000BB10B5FFF7FAFAB12000F0BFFA0120F5
:1016F00000F0BCFABDE81040FFF7F3BA10B504469D
:10170000FFF7ECFAB12000F0B1FA002000F0AEFAD9
:10171000200A00F0ABFAE0B200F0A8FABDE81040F1
:10172000FFF7DFBA10B50446FFF7D8FAB32000F090
:101730009DFA204600F09AFABDE81040FFF7D1BAB2
:1017400070B504460D461646FFF7C8FAB12000F002
:101750008DFA032000F08AFA200A00F087FAE0B23E
:1017600000F084FA280A00F081FAE8B200F07EFA6C
:10177000304600F07BFABDE87040FFF7B2BA70B5B2
:1017800004460D461646FFF7A9FAB12000F06EFA9E
:10179000102000F06BFA200A00F068FAE0B200F0C6
:1017A00065FA280A00F062FAE8B200F05FFA304603
:1017B00000F05CFABDE87040FFF793BA70B50446DC
:1017C0000D461646FFF78AFAB12000F04FFA1020B6
:1017D00000F04CFA200A00F049FAE0B200F046FAB4
:1017E000280A00F043FAE8B200F040FA304600F070
:1017F0004AFABDE87040FFF774BA70B505460E4668
:101800001446FFF76BFAB12000F030FA102000F018
:101810002DFA280A00F02AFAE8B200F027FA300A76
:1018200000F024FAF0B200F021FA200E00F01EFAC7
:10183000C4F3074000F01AFAC4F3072000F016FAC8
:10184000E0B200F013FABDE87040FFF74ABA70B595
:1018500005460E461446FFF741FAB12000F006FA9D
:10186000102000F003FA280A00F000FAE8B200F0B5
:10187000FDF9300A00F0FAF9F0B200F0F7F9200EA5
:1018800000F0F4F9C4F3074000F0F0F9C4F30720C6
:1018900000F0ECF9E0B200F0E9F9BDE87040FFF7C4
:1018A00020BA70B505460E461446FFF717FAB12068
:1018B00000F0DCF9102000F0D9F9280A00F0D6F980
:1018C000E8B200F0D3F9300A00F0D0F9F0B200F03D
:1018D000CDF9200E00F0CAF9C4F3074000F0C6F9B4
:1018E000C4F3072000F0C2F9E0B200F0BFF9BDE890
:1018F0007040FFF7F6B970B504460D46FFF7EEF9F4
:10190000B12000F0B3F9112000F0B0F9200A00F086
:10191000ADF9E0B200F0AAF9280A00F0A7F9E8B2A0
:1019200000F0A4F9BDE87040FFF7DBB970B50446DC
:101930000D46FFF7D3F9B12000F098F9202000F010
:1019400095F9200A00F092F9E0B200F08FF9280A28
:1019500000F08CF9E8B200F089F9BDE87040FFF7BB
:10196000C0B970B504460D46FFF7B8F9B12000F0D4
:101970007DF9212000F07AF9200A00F077F9E0B231
:1019800000F074F9280A00F071F9E8B200F06EF97D
:10199000BDE87040FFF7A5B970B504460D46FFF7E6
:1019A0009DF9B12000F062F9222000F05FF9200AD1
:1019B00000F05CF9E0B200F059F9280A00F056F99D
:1019C000E8B200F053F9BDE87040FFF78AB970B58E
:1019D00004460D461646FFF781F9B12000F046F99E
:1019E000232000F043F9200A00F040F9E0B200F0B3
:1019F0003DF9280A00F03AF9E8B200F037F930462C
:101A000000F034F9BDE87040FFF76BB970B50446DB
:101A10000D46FFF763F9B12000F028F9242000F00B
:101A200025F9200A00F022F9E0B200F01FF9280A97
:101A300000F01CF9E8B200F019F9BDE87040FFF7BA
:101A400050B970B504460D46FFF748F9B12000F0D3
:101A50000DF9252000F00AF9200A00F007F9E0B29C
:101A600000F004F9280A00F001F9E8B200F0FEF8ED
:101A7000BDE87040FFF735B92DE9F04104460D4649
:101A800017461E46FFF72AF9B12000F0EFF8302084
:101A900000F0ECF8200A00F0E9F8E0B200F0E6F817
:101AA000280A00F0E3F8E8B200F0E0F8384600F069
:101AB000DDF8300A00F0DAF8F0B200F0D7F8BDE84F
:101AC000F041FFF70EB970B504460D461646FFF714
:101AD00005F9B12000F0CAF8312000F0C7F8200A5B
:101AE00000F0C4F8E0B200F0C1F8280A00F0BEF837
:101AF000E8B200F0BBF8304600F0B8F8BDE870403E
:101B0000FFF7EFB82DE9F04105460E461746984617
:101B1000069CFFF7E3F8B12000F0A8F8322000F0AF
:101B2000A5F8280A00F0A2F8E8B200F09FF8300A01
:101B300000F09CF8F0B200F099F8384600F096F802
:101B4000200A00F093F8E0B200F090F821464046F9
:101B5000FFF7A4F8BDE8F041FFF7C3B82DE9F04165
:101B600005460E4617469846069CFFF7B7F8B12083
:101B700000F07CF8352000F079F8280A00F076F8BB
:101B8000E8B200F073F8300A00F070F8F0B200F03C
:101B90006DF8384600F06AF8200A00F067F8E0B205
:101BA00000F064F821464046FFF778F8BDE8F041C0
:101BB000FFF797B870B504460D461646FFF78EF846
:101BC000B12000F053F8332000F050F8200A00F064
:101BD0004DF8E0B200F04AF8280A00F047F8E8B201
:101BE00000F044F8304600F041F8BDE87040FFF7DF
:101BF00078B82DE9F0470446DDE908890D46164618
:101C00001F46FFF76BF8B12000F030F8342000F0E9
:101C10002DF8200A00F02AF8E0B200F027F8280A90
:101C200000F024F8E8B200F021F8C6F3072000F035
:101C30001DF8F0B200F01AF8380A00F017F8F8B200
:101C400000F014F8C8F3072000F010F808F0FF00C7
:101C500000F00CF84FEA192000F008F809F0FF0036
:101C600000F004F8BDE8F047FFF73BB810B5B04C02
:101C70000146204602F0BCFB8021204602F028FCF1
:101C80000028F9D010BD10B5044602E0FFF7EEFFC2
:101C9000641C20780028F9D110BD70B50546A54C0C
:101CA0006078012827D0032825D0B12823D1A07837
:101CB000012810D011281ED1E07912281BDA012842
:101CC0000FD0102811D0112815D129462046BDE883
:101CD0007040FEF74FBF29462046BDE87040FEF732
:101CE000CBBF29462046FEF7C7FF29462046BDE860
:101CF0007040FEF782BE70BD2DE9F05F8E4F3888D0
:101D000001287DD1DFF83492B9F800000128F8D11C
:101D1000DFF82CA2BAF800000128F2D1DFF8248203
:101D2000B8F800000128ECD100263E80A9F8006038
:101D3000AAF80060A8F80060834D844C28682168E8
:101D400088427CD9002203211046FFF7F9FC0022CB
:101D50001B211046FFF7F4FC012204210020FFF7AD
:101D6000EFFC00221C211046FFF7EAFCDFF8E0B18F
:101D70008021584602F02CF8206806F015FC024637
:101D80000B4674A1754803F0F5FF744A1F2100202B
:101D9000FFF714FD286806F007FC02460B466DA10C
:101DA0006E4803F0E7FF6D4A20210020FFF706FD93
:101DB000206806F0F9FB02460B4666A1674803F06F
:101DC000D9FF664A22210020FFF7F8FC286806F0B8
:101DD000EBFB02460B465FA1604803F0CBFF5F4A76
:101DE00023210020FFF7EAFC5D4829684FF47A734D
:101DF000008882B24FF47A7041432068584300E073
:101E000038E001F0CAF93E80A9F80060AAF8006045
:101E1000A8F8006053480680012203210020FFF744
:101E20008FFC01221B210020FFF78AFC00220421E5
:101E30001046FFF785FC00221C21104600E014E04C
:101E4000FFF77EFC4FF400642146584601F0BEFFC8
:101E50004548FEF711FA00F065F92146584601F0B1
:101E6000B7FF8021584601F0B1FF01221C2100205C
:101E7000FFF766FC012203210020FFF761FCBDE8AB
:101E8000F05F01221B210020FFF75ABC10B5354836
:101E90000188012908D10021018000F043F9BDE843
:101EA00010403248FEF7E8B910BD10B5304801883F
:101EB000012917D100210180002204211046FFF7DB
:101EC0003FFC00221B211046FFF73AFC00221C2198
:101ED0001046FFF735FC00F025F9BDE81040234817
:101EE000FEF7CAB910BD10B52249088801280ED1E5
:101EF00000200880204908801D49088001F0EBF986
:101F000000F010F9BDE810401848FEF7B5B910BD53
:101F100010B51A480188012908D10021018000F07C
:101F200001F9BDE810401148FEF7A6B910BD000048
:101F300000380140100100201C0000202600002075
:101F4000280000202A000020380000203400002053
:101F500000080140252D372E306600004400002087
:101F60003C0000201E000020801A0600A086010010
:101F7000200000202C00002022000020240000204F
:101F80002DE9F0470546634E4FF400573946304679
:101F900001F01CFF4FF4804A5146304601F016FF15
:101FA0004FF400694946304601F010FF00BF00BF02
:101FB00000BF00BF00BF00BF4946304601F008FF28
:101FC00000BF00BF00BF00244FF6FF78280404D5EF
:101FD0005146304601F0FAFE03E05146304601F02A
:101FE000F7FE3946304601F0F3FE00BF3946304671
:101FF00001F0ECFE08EA4505641CE4B2102CE5D3C0
:1020000000BF4946304601F0E1FE3946304601F056
:10201000DFFE00BFBDE8F08770B53E4E4FF40061B3
:10202000304601F0D3FE74142146304601F0CEFE56
:1020300065002946304601F0CBFE6011FFF7A0FF96
:102040002046FFF79DFF2846FFF79AFF2846FFF737
:1020500097FF2046FFF794FFA5002846FFF790FF63
:102060002846FFF78DFF4FF45040FFF789FF4FF4EC
:102070007040FFF785FF2046BDE8704080E72DE9FE
:10208000F0410C4606F084FE06F07CFD224A234B0C
:1020900006F09EFA0022224B05F0C2FF06F040FA3D
:1020A000C0F30D0141F48046C0F38D3040F480450B
:1020B0004FF440474FF4704824B1012C0DD0022C4E
:1020C00016D01FE042F22400FFF75AFF3846FFF710
:1020D00057FF4046FFF754FF14E042F20200FFF7BB
:1020E0004FFF3846FFF74CFF4046FFF749FF09E036
:1020F0004FF40050FFF744FF3846FFF741FF4046DA
:10210000FFF73EFF3046FFF73BFF2846BDE8F041B2
:1021100036E70000000C01408DEDB5A0F7C6304059
:102120000000E03F3A4900204880088039490870A3
:102130004880704710B5364B1A88511CC1F30A010C
:102140005C888C4202D01C1D1055198010BD304A8D
:1021500051881388994206D0131DCB5C0370491C2B
:10216000C1F30A0050807047294801884088081A46
:1021700000F50060C11700EB51516FF30A01401ADE
:1021800080B270472DE9F843074688460025009540
:102190000226204C19E06846FFF7D9FF62881AB979
:1021A0009DF80000EE2810D1424504D29DF80010A1
:1021B000501C6080B9549DF80020FF2A0BD0FC2AE7
:1021C00017D02570207804281ED0FFF7CDFF0028F7
:1021D000E1D1BDE8F8832078022804D0032805D097
:1021E00001202070EEE703202070EBE70420207030
:1021F000E8E72078012803D0032803D02570E1E721
:102200002670DFE72670DDE7608825706580E0E7EF
:102210001005002046000020F0B500234E1E12E0FD
:102220005A1C174692B20BE030F8134030F81250A7
:10223000AC4203D920F8135020F81240521C92B23D
:102240008A42F1D3BBB2B342EADBCB0721F00102F1
:1022500001D0805AF0BD4FF0FF3303EB510130F84D
:102260001110805A08444008F0BD10B50023002228
:1022700004E030F812402344521C92B28A42F8D350
:10228000B3FBF1F080B210BD70B5002503881C4689
:10229000012206E030F812609E4200D23346521C02
:1022A00092B28A42F6D3012206E030F81260A642CA
:1022B00000D93446521C92B28A42F6D3002205E07D
:1022C00030F812603544ADB2521C92B28A42F7D354
:1022D000281BC01A891E90FBF1F080B270BDF0B5CA
:1022E00000234E1E12E05A1C174692B20BE030F942
:1022F000135030F91240A54203DD20F8134020F8B6
:102300001250521C92B28A42F1D3BBB2B342EADB02
:10231000CB0721F0010201D0805EF0BD4FF0FF330A
:1023200003EB510130F91110805E084400EBD070CE
:10233000401000B2F0BD2DE9F04790B006460024F1
:102340003C2101A803F054FEF848018821F0100157
:102350000180018841F0010101800027F44D4FF414
:102360007A7A0DF10408DFF8CC930CE02F802888EE
:10237000032802D05046FDF77FFFB9F8000028F887
:102380001400641CA4B2B442F0D3314601A8FFF794
:10239000A6FFE949086310B0BDE8F0872DE9F041D8
:1023A00094B0074628210AA803F022FE2821684697
:1023B00003F01EFE00240AAEE846E04D0DE028883A
:1023C00026F814006420FDF757FF688828F81400E9
:1023D0006420FDF751FF641CA4B2BC42EFD3394620
:1023E0000AA8FFF719FFD44C608039466846FFF70A
:1023F00013FFA08014B0BDE8F0812DE9F041CE4973
:102400000022CF4BD1E91A0106F0E2F806F088F875
:102410000446CC4F3C21384601F0EAFFA221384661
:1024200001F0E6FF1621384601F0E2FF02213846AE
:1024300001F0DEFFE1B2384601F0DAFFE0B280F0F1
:102440001405C4F307210E46384601F0D1FF75404C
:10245000C4F307410E46384601F0CAFF7540210E0D
:10246000384601F0C5FF85EA14640021384601F0C2
:10247000BFFF0021384601F0BBFF0021384601F0C4
:10248000B7FF0021384601F0B3FF0021384601F0C4
:10249000AFFF0021384601F0ABFF0021384601F0C4
:1024A000A7FF0021384601F0A3FF0021384601F0C4
:1024B0009FFF0021384601F09BFF0021384601F0C4
:1024C00097FF0021384601F093FF0021384601F0C4
:1024D0008FFF0021384601F08BFF0021384601F0C4
:1024E00087FF2146384601F083FFBDE8F0414FF4F5
:1024F000FA50FDF7C1BE2DE9F05F8F488E4A0523E3
:10250000C5880620904C914FDFF84482914E928806
:102510004FF0040C4FF0030A4FF002094FF48041D2
:102520004FF4005B082D16D2DFE805F01504173EC6
:10253000638AB1D9804D282A0DD8A5F80690204687
:1025400001F046FC4FF43F41204601F03FFC824839
:10255000FDF792FE6F62BDE8F09F774D282A10D8F4
:10256000A5F806A05946204601F032FC4FF45F4121
:10257000204601F02BFC7848FDF77EFEC5F824804C
:10258000E9E7C82AE7D30120E880C103204601F02B
:102590001FFC4FF4FE41204601F018FC6E48FDF789
:1025A0006BFE6E486862D6E7634D282A10D8A5F8FE
:1025B00006C04FF48051204601F00AFC4FF46F41F1
:1025C000204601F003FC6448FDF756FE6E62C2E748
:1025D000C82AC0D3A5F80690204601F0F9FB4FF4B5
:1025E0003F41204601F0F2FB5B48FDF745FE6F627C
:1025F000B1E7514D282A10D8EB804FF400612046F6
:1026000001F0E6FB4FF47741204601F0DFFB524832
:10261000FDF732FE524868629DE7FA2A9BD3A5F87F
:1026200006A05946204601F0D3FB4FF45F412046F7
:1026300001F0CCFB4848FDF71FFEC5F824808AE76F
:102640003D4D282A10D8E8804FF48061204601F0E3
:10265000BFFB4FF47B41204601F0B8FB3E48FDF73D
:102660000BFE4048686276E7FA2A89D3A5F806C0CF
:102670004FF48051204601F0ABFB4FF46F412046F0
:1026800001F0A4FB3448FDF7F7FD6E6263E72A4DC5
:10269000282A11D80720E8804FF40071204601F065
:1026A00097FB4FF47D41204601F090FB2A48FDF74F
:1026B000E3FD2D4868624EE7FA2A88D3EB804FF499
:1026C0000061204601F084FB4FF47741204601F081
:1026D0007DFB2148FDF7D0FD214868623BE7164DA0
:1026E000322A10D80820E8804101204601F070FB12
:1026F0004FF47E41204601F069FB1748FDF7BCFD11
:102700001A48686227E7FA2A86D3E8804FF4806186
:10271000204601F05DFB4FF47B41204601F056FB63
:102720000D48FDF7A9FD0F48686214E72008004036
:1027300008000020100000205000002002000020AF
:1027400080842E41003801400018014000002041E3
:102750000000F0410000C84220A107000000A04096
:102760000000964300007A4400803B4500401C4630
:102770002DE9F74F86B04FF00009CB4600200290BC
:102780008046DDE90610401A4FF47A74B0FBF4F18C
:10279000DFF808A4CAF820106421B0FBF1F0019022
:1027A0000120AAF80600FE48CAF82400FD490020CE
:1027B0000880FFF7B7FC0698CAF8140057E14FF4F9
:1027C0007A74B0FBF4F34946F74A09F101091FFA9C
:1027D00089F942F82130B0FBF4F00221FFF74FFCF9
:1027E00042F21070FDF748FD1420FFF7D7FD1420CA
:1027F000FFF7A1FDBAF8040006F0CAFADAF82410CF
:1028000006F0ECF9CAF82C004FF48061E748FFF7B6
:10281000B9FCFFF742FAE648008801287DD001990B
:10282000069808F1010201FB0200DAF81410884250
:1028300012D29046B8F1640F0ED242461821002001
:10284000FEF7DBFF4246DBA102A803F093FA02AADF
:1028500019210020FEF7B2FFBAF80400584506D34C
:102860008346DAF81400B0FBF4F0CAF82800D24925
:10287000DAF8240006F0A0FA06F084F904460D46C2
:10288000DAF82C0006F07EF9CC4ACD4B05F084FC3A
:1028900006460F46BAF8020005F086FEC94ACA4B42
:1028A00005F096FE32463B4605F076FC0022C74B0B
:1028B00005F08EFE22462B4606F07AF805F030FE33
:1028C000CAF81C0040F2DC51884209D205F06CFEC7
:1028D000BF4AC04B05F07CFE05F022FECAF81C0082
:1028E000DAF81C004FF4FA74A0F2DC51A14209D2CC
:1028F00005F05AFEB84AB94B05F06AFE05F010FE25
:10290000CAF81C00DAF81C00A0F5FA61A1420BD845
:1029100005F04AFEB24AB34B00E095E005F058FEE0
:1029200005F0FEFDCAF81C00DAF81C0040F6C312E0
:10293000A0F6C51191420AD805F036FEA44AAA4B6A
:10294000524205F045FE05F0EBFDCAF81C00A74910
:10295000DAF81C00884209D305F026FEA44AA54BEC
:1029600005F036FE05F0DCFDCAF81C00A248BAF8F6
:102970000820DAF81C1040F8221050F8290005F061
:1029800013FE05F025FA00229C4B05F021FE05F010
:10299000C7FD9B49BAF8084021F81400DAF8300066
:1029A000984F011241EA002127F81410A0F21C7080
:1029B00006F0D6F9944906F011F907F5805141F86F
:1029C0002400924906F00AF906F0DCF8904A914B8F
:1029D00005F0FEFD05F0F2FA06F0D4F80646059182
:1029E00005F08EFA04460D463046059905F088FA42
:1029F00022462B4605F0ECFD0022874B05F010FB2C
:102A000004460D46DAF81C0005F0CEFD02460B46E2
:102A100005F0DEFD22462B4605F0BEFB05F04AFA26
:102A200005F07EFDBAF8081007F5A04242F8210033
:102A3000DAF81C20101ACAF83C00024407F5E040FE
:102A400040F8212021B106E0002009B0BDE8F08F58
:102A50003888AAF80E00491CAAF80810FFF74BFDA9
:102A6000DAF82010DAF814000844CAF81400DAF88A
:102A70001400079988427FF6A2AEDFF88881BAF881
:102A80000E005646A8F8000070694FF47A7BB0FB40
:102A9000FBF07061DFF884914FF480673946484657
:102AA00001F096F94FF47B41484601F08FF95C48FC
:102AB000FDF7E2FB02215846FFF7E1FA5848FDF71F
:102AC000DBFB5748FDF7D8FB1420FFF767FCB08805
:102AD00005F06AFD534A544B05F05EFB0022474B5C
:102AE00005F05AFB04460D46708805F05DFD4F4A1F
:102AF0004F4B05F06DFD22462B4605F04DFB4D4A30
:102B00004D4B05F065FDC6E91801DFF80CA1024642
:102B10000B460020514605F03FFBC6E91A0179013A
:102B2000484601F055F93946484601F04FF93C480E
:102B3000FDF7A2FB0020304FB8F8141028F8101051
:102B4000B96A47F82010401C80B20A28F4D33868CC
:102B50007063B0610020B26957F82010914201D231
:102B6000B1617082726B914201D971633082401CF5
:102B700080B25845EFD3DFF8C490708A234959F8E2
:102B8000200006F02BF805F0FDFF214A214B05F04F
:102B90001FFD05F013FA05F0F5FF51E0500000208D
:102BA0000000A04010000020147D00201001002033
:102BB0001E0000202564000000007A44B6B9313DB3
:102BC00061A90C40A8C64B378961244000005940D8
:102BD0001F85EB51B81EED3F3D0AD7A3703DEE3F78
:102BE0000E2DB29DEFA7EE3F47E1EE3FC0C62D0090
:102BF00085EB51B81E85EF3F140D002000408F403B
:102C0000143D0020144D00200000204100003443FA
:102C1000282D4454FB2109400000F03F00180140DA
:102C2000404B4C00041C42959A5D0B4000A94D9C02
:102C3000DCAF204019944A702F8BB840145D0020FF
:102C40008046049105F05CF904460D46404604991F
:102C500005F056F922462B4605F0BAFC00225346F1
:102C600005F0DEF904460D46B06905F09DFC02460C
:102C70000B4605F0ADFC22462B4605F08DFA05F01B
:102C800019F905F04DFCB063B169081AF063084406
:102C90003064308AFF4959F8200005F09FFF05F0A5
:102CA00071FFFD4AFD4B05F093FC05F087F905F037
:102CB00069FF8946804605F023F904460D464046E3
:102CC000494605F01DF922462B4605F081FC0022FD
:102CD000534605F0A5F904460D46706B05F064FCFB
:102CE00002460B4605F074FC22462B4605F054FACA
:102CF00005F0E0F80446706B0D46824605F054FC82
:102D00008946804622462B4605F052FE05F008FC17
:102D100070645044B064E24C308A54F82000F0648F
:102D2000708A54F8200030654046494605F050F856
:102D3000DFF8709300224B4605F04AFC05F0F0FBEB
:102D40007081B06905F030FC05F042F800224B4676
:102D500005F03EFC05F0E4FBB08164221821002060
:102D6000FEF74BFD6422AFF2B41102A803F002F8A3
:102D700002AA19210020FEF721FD00203081708A6F
:102D80000146C0B104F58043D6F818C0756B326CAB
:102D900007E008B1401E80B2491C89B2B5EB4C0F68
:102DA00009D953F82080B8EB420F04D853F821809A
:102DB000B8EB420FEDD9401C54F820007065491E55
:102DC00054F82110B165081AF0650024DFF8D882A4
:102DD00057F8240005F0E8FB04F0FAFF00224B4608
:102DE00005F0F6FB05F09CFBC0F3072557F824001F
:102DF00005F0DAFB04F0ECFF00224B4605F0E8FB9F
:102E000005F08EFB45EA002028F81400641CA4B2EB
:102E10005C45DDD3B246F06D05F0C6FB06460446C0
:102E2000DAF850000F460D46804605F0BDFB2246FD
:102E30002B4605F0B1F9CAE91C013046394600229B
:102E4000984B05F0A9F9944A984B05F0C1FB04464C
:102E50000D46DAF8180005F0A7FB0022914B05F0AB
:102E60009BF922462B4605F097F9CAE91E0100227C
:102E70008C4B05F0ADFB0446B8FBFBF00D4605F0AE
:102E800093FB0646B8FBFBF00F4605F08DFB884A26
:102E9000884B05F09DFB32463B4605F099FB2246E8
:102EA0002B4605F095FB02460B460020824905F0B3
:102EB00073F9824A824B05F08BFB824A04460D4629
:102EC00003C2DAE91A014FF000527F4B05F080FB94
:102ED00022462B4605F06CFD7A4AC2E90201DAF877
:102EE0004C000390B0FBFBF0404305F05DFB044653
:102EF000B8FBFBF00D4605F057FB0646B8FBFBF0B0
:102F00000F4605F051FB32463B4605F061FB80461B
:102F100003988946B0FBFBF005F046FB0646039894
:102F20000F46B0FBFBF005F03FFB32463B4605F099
:102F30004FFB42464B4605F03BFD22462B4605F033
:102F40002BF904F0B7FF5F4AC2E90401DAF84C003C
:102F500005F02AFB02460B465CA102A802F00AFF1C
:102F600002AA0A210020FEF729FCDAF8480005F041
:102F70001BFB0022574B05F00FF9574A574B05F042
:102F800027FB02460B4656A102A802F0F3FE02AA56
:102F900014210020FEF712FCDAF8500005F004FBC3
:102FA00002460B4650A102A802F0E4FE02AA092143
:102FB0000020FEF703FCDAF8540005F0F5FA0246AB
:102FC0000B4649A102A802F0D5FE02AA0E2100205C
:102FD000FEF7F4FBDAF8580005F0E6FA02460B4675
:102FE00041A102A802F0C6FE02AA0F210020FEF7AE
:102FF000E5FBDAE91C013E4A3E4B05F0E9FA0246E0
:103000000B463DA102A802F0B5FE02AA0C21002049
:10301000FEF7D4FB2B493A4A3A4BD1E9040105F0BB
:10302000D7FA02460B4638A102A802F0A3FE02AA74
:1030300012210020FEF7C2FB224833A1D0E902236F
:1030400002A802F097FE02AA10210020FEF7B6FBAC
:103050001C482DA10CC802A802F08CFE02AA112166
:103060000020FEF7ABFBDAE91E01294A294B05F0E7
:10307000AFFA02460B4620A102A802F07BFE02AA8C
:1030800015210020FEF79AFBDAF85C0005F08CFAB7
:10309000024641E000003443282D4454FB210940FE
:1030A000147D002000408F40142D0020FB2119408A
:1030B000F745BEC93CBD434065CDCD41DB8AFD65CA
:1030C000F7E4E43FD00000205FA00242252D382E17
:1030D0003166000080842E41D1967329AE2AE33FE9
:1030E000252D31302E326600252D31302E316600EF
:1030F000105839B4C876F03F252D31302E33660094
:103100000AD7A3703D0AEF3F252D31302E346600DB
:1031100016139B8F6B43F73F0B46AFF2240102A8B7
:1031200002F028FE02AA13210020FEF747FBDAF87E
:10313000400005F039FA0022FE4B05F02DF8FE4A5A
:10314000FE4B05F045FA02460B46FDA102A802F02F
:1031500011FE02AA0B210020FEF730FBDAE91A016A
:103160004FF00052F84B05F033FA02460B46F7A138
:1031700002A802F0FFFD02AA0D210020FEF71EFBAF
:10318000002202211046FEF722FC02210020FEF759
:1031900076FFFEF741FF012057E42DE9FC41FFF7E0
:1031A000E7FAEC4C002601280FD0FEF76FFE2681CF
:1031B000E94C4FF40041204600F00AFE2046BDE8ED
:1031C000FC414FF4FE4100F001BE0520CDE9006056
:1031D0000022212317211046FEF70BFD6089A189EB
:1031E00044F25062411A92FBF1F2B9235943B423DD
:1031F00091FBF3F1401A92B200B2CDE90002212313
:10320000002219461046FEF7F4FC01218F073846CC
:1032100001F055FDD14C4FF4FA65216849B10129FF
:1032200007D80022CE4B172110460095FEF796FCDA
:10323000F3E7022908D00329EFD326603846BDE81A
:10324000FC41002101F03BBD0022C64B212110466C
:103250000095FEF783FCE0E70FB470B5C2B0002420
:1032600047AB0193FF2102A8469A02F069FDBE4ECA
:1032700002AD0CE02046641C295CE4B2304601F04B
:10328000B7F88021304601F023F90028F9D0FF2C4F
:1032900002D2285D0028EDD142B070BC5DF814FB6D
:1032A00070B50546002404E0B0A0FFF7D5FF641C0C
:1032B000E4B2AC42F8D370BD10B5AB4C40F225512E
:1032C000204601F010F9002804D0204601F097F8BC
:1032D000A049087010BD2DE9F84F0025A946CDF88A
:1032E000009000221C211046FEF72AFADFF878A28F
:1032F00054200AF1040AAAF800009B4E30884006C8
:10330000FCD59B480168AFF25470FFF7A5FF562427
:10331000AAF8004030884006FCD5DFF83882D8F89B
:10332000500005F041F902460B46AFF244216846D1
:1033300002F020FD69468FA0FFF78EFF0220FFF705
:10334000AFFFD8F8400005F02FF90022794B04F0C8
:1033500023FF794A794B05F03BF902460B4678A1E9
:10336000684602F007FD694682A0FFF775FF02205C
:10337000FFF796FFD8F8540005F016F902460B4601
:10338000AFF29C21684602F0F5FC694679A0FFF790
:1033900063FFAAF8004030884006FCD5D8F84C00FE
:1033A00005F002F902460B46AFF2E021684602F052
:1033B000E1FC69466FA0FFF74FFF0320FFF770FFA6
:1033C000D8F8480005F0F0F800226B4B04F0E4FE5A
:1033D0006A4A6B4B05F0FCF802460B46AFF200312F
:1033E000684602F0C7FC694662A0FFF735FF01207E
:1033F000FFF756FFD8F8580005F0D6F802460B46FE
:10340000AFF21C31684602F0B5FC694659A0FFF7DF
:1034100023FFAAF8004030884006FCD5D8E91C01FB
:10342000584A594B05F0D4F802460B46AFF23831F2
:10343000684602F09FFC69464EA0FFF70DFF012091
:10344000FFF72EFF434F514A8037514BD7E9040114
:1034500005F0BEF802460B46AFF25431684602F062
:1034600089FC694643A0FFF7F7FE0120FFF718FF2C
:10347000D8F85C0005F098F802460B46AFF28831A8
:10348000684602F077FC69463AA0FFF7E5FEAAF825
:10349000004030884006FCD5D8E91A014FF00052B0
:1034A000294B05F095F802460B4628A1684602F024
:1034B00061FC69462FA0FFF7CFFE0320FFF7F0FE67
:1034C000AFF2BC31D7E90023684602F053FC6946ED
:1034D00028A0FFF7C1FE0120FFF7E2FEAFF2D831CE
:1034E000D7E90223684602F045FC694621A0FFF7B0
:1034F000B3FEAAF8004030884006FCD5D8E91E018A
:10350000244A254B05F064F802460B46AFF21841F9
:10351000684602F02FFC694616A0FFF79DFEAAF848
:10352000004030884006FCD54FF0550BAAF800B09B
:10353000308833E000408F406397A8DE1A58F23F8E
:10354000252D382E326600005FA00242252D382E30
:1035500034660000500000200018014018000020D0
:10356000144D0020142D00200044004020000000D5
:10357000400000202553000080842E41D1967329FD
:10358000AE2AE33F105839B4C876F03F0AD7A3708B
:103590003D0AEF3F16139B8F6B43F73F4006C7D59D
:1035A000AAF800B030884006FCD50121880701F058
:1035B00086FBFE480068B0F5967F1DD988F800901C
:1035C0000220FEF79BF8FA4D4FF40064214628468E
:1035D00000F0FCFBF748FCF74FFE2146284600F0C0
:1035E000F7FBF54C2046FCF747FE2046FCF744FE6F
:1035F0000020FEF783F867E0432D18D364221821DA
:103600000020FEF7FAF86422AFF65821684602F06F
:10361000B1FB6A4619210020FEF7D0F8E648FCF716
:103620002BFE98F80000592810D058282FD098F871
:1036300000005128BDD15420AAF80000308840066F
:10364000FCD5C5EB0517BCB20F3764E088F80090D5
:103650000320FEF753F8D64D4FF400642146284668
:1036600000F0B4FBD348FCF707FE2146284600F0E3
:10367000AFFBD14C2046FCF7FFFD2046FCF7FCFDDC
:103680002046FCF7F9FD0020FEF738F81CE088F82A
:1036900000900220FEF732F8C54D4FF40064214639
:1036A000284600F093FBC348FCF7E6FD2146284678
:1036B00000F08EFBC04C2046FCF7DEFD2046FCF7F8
:1036C000DBFD0020FEF71AF8B848C0F80090012290
:1036D0001C210020FEF734F800214FF0804001F05B
:1036E000EEFABDE8F88FB54850F82410B4A0FFF703
:1036F000B3FDB54850F82410B4A0FFF7ADFDB548B0
:1037000050F8240005F03EFA02460B46B2A0FFF73F
:10371000A3FD641CA4B2A742E5D86D1CADB2AAF803
:1037200000B030884006FCD5AAF800B030884006CA
:10373000FCD588F80090642105FB01F04424B0FB1F
:10374000F4F2074618210020FEF757F8B7FBF4F211
:10375000AFF6A031684602F00DFB6A461921002041
:10376000FEF72CF825E72DE9F84F002000905A21AC
:103770009BA0FFF771FD9B490F2008800E1F30882A
:103780004006FCD5984C206D04F00EFF02460B4617
:10379000AFF2AC61684602F0EDFA6946AFF22C2058
:1037A000FFF75AFD56218EA0FFF756FD9DF80050F9
:1037B000206C04F0F9FE00228C4B04F0EDFC8C4AE6
:1037C0008C4B04F005FF02460B46AFF28C21684695
:1037D00002F0D0FA694688A0FFF73EFD9DF8007020
:1037E0002F4056217EA0FFF737FD606D04F0DCFE10
:1037F00002460B46AFF21071684602F0BBFA69460A
:103800007DA0FFF729FD9DF8008008EA07085621F2
:1038100073A0FFF721FDE06C04F0C6FE02460B46E4
:10382000AFF25871684602F0A5FA694672A0FFF738
:1038300013FD9DF8005005EA0805562168A0FFF722
:103840000BFDA06C04F0B0FE00226C4B04F0A4FC55
:103850006B4A6C4B04F0BCFE02460B46AFF2807123
:10386000684602F087FA694663A0FFF7F5FC9DF809
:1038700000702F4056215AA0FFF7EEFCA06D04F017
:1038800093FE02460B46AFF2A071684602F072FA50
:10389000694659A0FFF7E0FC9DF800503D405621D5
:1038A0004FA0FFF7D9FCD4E91C01574A574B04F04D
:1038B0008FFE02460B46AFF2C071684602F05AFA1C
:1038C00069464DA0FFF7C8FC9DF800702F405621B7
:1038D00043A0FFF7C1FC04F180054D4AD5E904017E
:1038E0004C4B04F075FE02460B46AFF2E47168469D
:1038F00002F040FA694640A0FFF7AEFC9DF8008058
:1039000008EA0708562136A0FFF7A6FCE06D04F090
:103910004BFE02460B46AFF62001684602F02AFA3B
:10392000694635A0FFF798FC9DF8007007EA080784
:1039300056212BA0FFF790FCD4E91A014FF000525A
:10394000354B04F045FE02460B46AFF20041684697
:1039500002F010FA694628A0FFF77EFC9DF800806F
:1039600008EA070856211EA0FFF776FCAFF66801AB
:10397000D5E90023684602F0FDF969461EA0FFF76D
:103980006BFC9DF8007007EA0807562114A0FFF7AA
:1039900063FCAFF68C01D5E90223684602F0EAF930
:1039A000694615A0FFF758FC38E000001800002019
:1039B00000080140801A060000093D00147D002027
:1039C0002564202020000000140D00202564202004
:1039D00020200000145D002025662020200D0A0014
:1039E00025630000044400405000002000408F4048
:1039F0006397A8DE1A58F23F2553200080842E4199
:103A0000D1967329AE2AE33F105839B4C876F03FF7
:103A10000AD7A3703D0AEF3F5FA002429DF8005015
:103A20003D405621AFF24800FFF716FCD4E91E01D5
:103A3000474A484B04F0CCFD02460B46AFF648110E
:103A4000684602F097F96946AFF25400FFF704FCAC
:103A50009DF800402C405621AFF27C00FFF7FCFBA4
:103A60005721304600F0C4FC2146304600F0C0FC2F
:103A70004FF47A7B5846FCF7FFFB0024364FA7F53E
:103A8000E049A7F500585A21AFF2AC00FFF7E4FB7C
:103A9000F021304600F0ACFC57F824102FA0FFF7BF
:103AA000DBFB5621AFF2C800FFF7D6FB57F8240026
:103AB00004F07AFD02460B46AFF6D411684602F0D8
:103AC00059F99DF800A059F8241024A0FFF7C4FB71
:103AD0005621AFF2F400FFF7BFFB59F8240004F0C1
:103AE00063FD02460B46AFF60021684602F042F93C
:103AF0009DF8005005EA0A0558F8240005F042F840
:103B000002460B4616A0FFF7A7FB5621AFF2301076
:103B1000FFF7A2FB58F8240005F034F802460B46E4
:103B2000AFF63C21684602F025F99DF800A00AEAAC
:103B3000050A5721AFF25810FFF78EFB5146304669
:103B400000F056FC641CA4B25C459CD3C9E500009F
:103B500016139B8F6B43F73F147D0020256C640088
:103B6000256600002A4908432A490860704770B555
:103B70000F23C27801260178002A1ED0254A126838
:103B800002F4E062C2F5E062120AC2F10404D3401A
:103B90004578A54082781A402A43120101F1E021BC
:103BA00081F80024007800F01F018E404009800059
:103BB00000F1E020C0F8006170BD01F01F008640F8
:103BC0004809800000F1E020C0F8806170BD124A11
:103BD000114001430F48001F016070470D4A121D3C
:103BE000002903D0116801431160704711688143B7
:103BF000116070474FF0E021042804D0086920F0DC
:103C0000040008617047086940F0040008617047CB
:103C10000000FA050CED00E080FFFF1F10B59C4985
:103C2000884209D10121042000F07DFA0021BDE87D
:103C30001040042000F077BA9649884209D101214A
:103C4000082000F070FA0021BDE81040082000F0C4
:103C50006ABA9149884209D10121102000F063FA23
:103C60000021BDE81040102000F05DBA8B49884269
:103C700009D10121202000F056FA0021BDE81040B2
:103C8000202000F050BA8649884209D10121402005
:103C900000F049FA0021BDE81040402000F043BA8E
:103CA0008049884209D10121802000F03CFA00219E
:103CB000BDE81040802000F036BA7B4988420AD126
:103CC00084150121204600F02EFA2046BDE8104060
:103CD000002100F028BA10BD10B50121084600F0FF
:103CE00022FA0021BDE81040012000F01CBA2DE9A5
:103CF000F0410022CC7804F00F03E40601D58C7863
:103D000023430C784FF00F0714F0FF0F4FF0010C16
:103D10001CD005680CFA02F40E882640A64211D188
:103D2000960007FA06F825EA080503FA06F848EAB5
:103D30000505CE78282E02D0482E02D002E044613C
:103D400000E00461521C082AE4D305600A88FF2AB7
:103D50001ED94568002202F108060CFA06F40E8806
:103D60002640A64210D1960007FA06F825EA080573
:103D700003FA06F848EA0505CE78282E00D14461FA
:103D8000CE78482E00D10461521C082AE3D3456046
:103D9000BDE8F0814FF6FF7101800221817004219E
:103DA000C17070470246002092680A4200D001208C
:103DB0007047806880B2704702460020D2680A428D
:103DC00000D001207047C06880B270470161704721
:103DD00041617047002A01D001617047416170471D
:103DE000C160704741F48032826181618261816982
:103DF0008069704710B52D4B1A684FF680742240C9
:103E000042EA00100843186010BD2949C861704794
:103E1000F0B5264C002801DAE36900E06368C0F3DE
:103E20000346420D120185B2C0F301579540032F9E
:103E300007D0C2020CD50322B240934343F0706214
:103E400009E023F07062636823F07063636002E04E
:103E5000AB4343F0706201B12A43002801DAE2610A
:103E6000F0BD6260F0BD10B58A07120F0F239340BA
:103E700021F003040D4921448C689C438C608B68BD
:103E8000904003438B6010BD0949DC3108607047E6
:103E900000080140000C01400010014000140140E6
:103EA00000180140001C01400020014000000140BA
:103EB00000002042B448016841F0010101604168FE
:103EC000B24A114041600168B14A11400160016885
:103ED00021F480210160416821F4FE0141604FF42A
:103EE0001F0181607047A8490A6822F480320A6085
:103EF0000A6822F480220A60B0F5803F07D0B0F54E
:103F0000802F03D1086840F4A0200860704708683B
:103F100040F48030086070470346002059099A4AEF
:103F200001290AD002290AD0516A03F01F02012395
:103F300093400B4200D0012070471168F5E7116AE9
:103F4000F3E718B5002000904FF4A0643120FFF78C
:103F5000E3FF0099491C00910099A14201D000287B
:103F6000F4D03120FFF7D8FF08B1012018BD0020A0
:103F700018BD854A116821F0F80141EAC0001060BF
:103F800070478449086070477F4B5A6822F47C125E
:103F900008431043586070477E49086670477A4A64
:103FA000516821F003010143516070477648406831
:103FB00000F00C007047744A516821F0F001014391
:103FC00051607047704A516821F4E06101435160CB
:103FD00070476D4A516821F4605141EAC000506059
:103FE0007047694A002903D0517A014351727047E2
:103FF000517A8143517270476649D83108607047E1
:10400000614A516821F440410143516070475E4963
:10401000002220310A7001F82029012805D0042847
:1040200002D1052081F820007047012081F820008E
:10403000704759490860704753490A6A02430A6247
:104040007047554944390860704710B54E4A516869
:1040500001F00C01514B002927D0042927D0082951
:1040600027D00360516801F0F00109094C4B5C5CFA
:104070000168E1404160546804F4E064240A1C5D76
:1040800021FA04F48460546804F46054E40A1B5D6B
:10409000D940C160526802F44042920B404B1B1F52
:1040A0009A5CB1FBF2F1016110BD0360DAE70360D5
:1040B000D8E7516801F47011536803F48033022487
:1040C00004EB914133B153689B0307D5354B5943FA
:1040D0000160C7E7334B59430160C3E72F4B594396
:1040E0000160BFE7284A002903D0516901435161AB
:1040F00070475169814351617047234A002903D0B9
:104100009169014391617047916981439161704761
:104110001D4A002903D0D1690143D1617047D1699B
:104120008143D1617047184A002903D0D168014307
:10413000D1607047D1688143D1607047124A00292D
:1041400003D0116901431161704711698143116105
:10415000704711494039086070470E49C86470477C
:104160000949C87170470848416A41F0807141624D
:10417000704701460020044A92680A4200D001209C
:104180007047014988727047001002400000FFF834
:10419000FFFFF6FE000042428004424200127A0015
:1041A000EC00002000093D0010B5E34988420AD127
:1041B00001218C032046FFF7B6FF2046BDE81040E2
:1041C0000021FFF7B0BFDD4988420AD101214C042C
:1041D0002046FFF7B3FF2046BDE810400021FFF75F
:1041E000ADBFD74988420AD101218C042046FFF790
:1041F000A5FF2046BDE810400021FFF79FBFD14931
:1042000088420AD10121CC042046FFF797FF2046BF
:10421000BDE810400021FFF791BFCB4988420AD189
:1042200001210C052046FFF789FF2046BDE810401C
:104230000021FFF783BF10BD30B585B004460D46A1
:10424000208A4CF6FF710840E98801432182A08949
:104250004EF6F3110840A9882A8911436A8902435E
:104260001143A181A08A4FF6FF410840A98901436B
:10427000A1826846FFF7E9FEAF48844201D1039866
:1042800000E00298A189090408D500EBC00101EB08
:10429000001029684900B0FBF1F007E000EBC00115
:1042A00001EB001029688900B0FBF1F06422B0FB3B
:1042B000F2F109010B096FF018056B4300EB830065
:1042C000A3891D044FF0320307D503EBC000B0FBF8
:1042D000F2F000F00700084306E003EB0010B0FB2B
:1042E000F2F000F00F000843208105B030BD4FF41C
:1042F0001651016000218180C18001810C22428120
:104300008181704710B5038A4FF2FF0213400A887B
:104310004C8822438C88C9880C4322431A4302826A
:1043200010BD0021018041808180C180704700293B
:1043300004D0818941F4005181817047818921F441
:1043400000518181704710B540F66A13C1F34213E2
:1043500001F01F040121A140012B07D0022B07D03F
:1043600014303AB102680A43026010BD0C30F8E71D
:104370001030F6E702688A43026010BD002A03D0BD
:10438000828A0A4382827047828A8A438282704785
:10439000028A22F00F020282028A0A4302827047D6
:1043A000828922F40062828182890A438281704775
:1043B000002904D0818941F00201818170478189FF
:1043C00021F0020181817047028A22F020020282DC
:1043D000028A0A4302827047002904D0018A41F40C
:1043E000804101827047018A21F480410182704737
:1043F000C1F30801818001884906FCD57047808897
:10440000C0F308007047818941F001018181704744
:10441000028BD2B20283028B42EA012101837047F0
:10442000028B02F47F420283028B0A4302837047AD
:10443000002904D0818A41F0200181827047818A5D
:1044400021F0200181827047002904D0818A41F047
:10445000100181827047818A21F0100181827047AA
:10446000002904D0818A41F0080181827047818A45
:1044700021F0080181827047002904D0818941F42C
:104480000041818170478189C1F30E0181817047AC
:10449000002904D0818A41F4006181827047818AB9
:1044A00021F4006181827047828A22F004028282B4
:1044B000828A0A4382827047002904D0818A41F0AF
:1044C000020181827047818A21F002018182704756
:1044D0000246002012880A4200D0012070478A0557
:1044E000C9430180704770B5002440F66A12C1F3D9
:1044F000421301F01F05012606FA05F2012B0CD02C
:10450000022B0DD0838A1340090A8E400088304068
:104510000BB100B10124204670BD83891340F3E73D
:10452000038A1340F0E740F66A120A0A012191401B
:10453000C94301807047000000380140004400403A
:1045400000480040004C00400050004010B5FE49BB
:1045500088420AD1C41401212046FFF7E4FD204619
:10456000BDE810400021FFF7DEBDB0F1804F0CD058
:10457000F649884213D101210220FFF7DFFD002117
:10458000BDE810400220FFF7D9BD01210846FFF722
:10459000D5FD0021BDE810400120FFF7CFBDEC495B
:1045A000884209D101210420FFF7C8FD0021BDE8A0
:1045B00010400420FFF7C2BDE649884209D101211D
:1045C0000820FFF7BBFD0021BDE810400820FFF7E1
:1045D000B5BDE149884209D101211020FFF7AEFDA8
:1045E0000021BDE810401020FFF7A8BDDB4988423C
:1045F00009D101212020FFF7A1FD0021BDE81040D5
:104600002020FFF79BBDD64988420AD144140121DE
:104610002046FFF788FD2046BDE810400021FFF747
:1046200082BDD04988420AD10121CC042046FFF73F
:104630007AFD2046BDE810400021FFF774BDCA494D
:1046400088420AD101210C052046FFF76CFD204667
:10465000BDE810400021FFF766BDC44988420AD179
:1046600001214C052046FFF75EFD2046BDE81040C5
:104670000021FFF758BDBE49884209D101214020E1
:10468000FFF75CFD0021BDE810404020FFF756BD5C
:10469000B849884209D101218020FFF74FFD002150
:1046A000BDE810408020FFF749BDB34988420AD1D8
:1046B000841501212046FFF741FD2046BDE810404A
:1046C0000021FFF73BBDAD4988420AD101210C040E
:1046D0002046FFF728FD2046BDE810400021FFF7E7
:1046E00022BDA74988420AD101214C042046FFF788
:1046F0001AFD2046BDE810400021FFF714BDA14976
:1047000088420AD101218C042046FFF70CFD204687
:10471000BDE810400021FFF706BD10BD30B502888E
:10472000894C8F4DA0420DD0A8420BD0B0F1804FE4
:1047300008D0864B984205D0854B984202D0854BD5
:10474000984203D122F070034A881A43824B984260
:1047500006D0824B984203D022F44073CA881A4391
:1047600002808A8882850A880285A0420AD0A842EF
:1047700008D0824A904205D0814A904202D0814AB4
:10478000904201D1097A01860121818230BD30B584
:10479000028C22F001020284028C8388048B24F0B4
:1047A000700424F003050C882C4322F002020D89CA
:1047B00015434A882A43644DA8420BD0684DA8424D
:1047C00008D06E4DA84205D06D4DA84202D06D4D67
:1047D000A8420FD122F008054A892A4322F0040595
:1047E0008A882A4323F4807323F400738D891D4340
:1047F000CB892B4383800483C9888186028430BDA2
:1048000070B5028C22F010020284028C8388048B23
:1048100024F4E04424F440760D884FF6FF7404EA53
:104820000525354322F020020E8904EA06161643B8
:104830004A8804EA02123243434EB04202D0484E44
:10484000B04217D122F080024E8904EA06161643C0
:1048500026F040068A8804EA0212324323F4806379
:1048600023F400638E8904EA86061E43CB8904EA9A
:104870008303334383800583C9880187028470BD25
:1048800070B5028C22F480720284028C8388848B3F
:1048900024F0700424F003040D88254322F40072F0
:1048A0000E894FF6FF7404EA062616434A8804EA86
:1048B00002223243244EB04202D0294EB04217D1D8
:1048C00022F400664A8904EA0222324322F4806616
:1048D0008A8804EA0222324323F4805323F40053EB
:1048E0008E8904EA06161E43CB8904EA0313334378
:1048F00083808583C9888187028470BD70B5028CEE
:1049000022F480520284058C8288838B23F4E04356
:1049100023F440760C884FF6FF7303EA04243443F3
:1049200025F400550E8903EA06362E434D8803EA26
:1049300005353543044EB04202D0094EB04226D16F
:1049400022F480468A891FE0002C014000040040C8
:1049500000080040000C004000100040001400401F
:1049600000340140004C014000500140005401401F
:1049700000180040001C00400020004000400140A2
:10498000004401400048014003EA82123243828021
:104990008483C988A0F84010058470BD828B22F4FE
:1049A00040628283828B4FF6FF7303EA01210A4340
:1049B00082837047F0B5048C24F480540484868B81
:1049C000048C4FF6FF7505EA013726F4734605EAB5
:1049D0000222324305EA03331343F74A90420ED0D2
:1049E000F64A90420BD0B0F1804F08D0F44A904282
:1049F00005D0F44A904202D0F34A904205D124F403
:104A00000051394341F4805104E024F402420A4346
:104A100042F4805183830184F0BD828B22F00C022A
:104A20008283828B0A4382837047F0B5048C24F41E
:104A300080740484858B048C4FF6FF7707EA012687
:104A400025F0F30507EA031313432B43DA4A904298
:104A50000ED0DA4A90420BD0B0F1804F08D0D84A3D
:104A6000904205D0D74A904202D0D74A904205D111
:104A700024F40071314341F4807104E024F4206295
:104A80000A4342F4807183830184F0BD028B22F4D7
:104A900040620283028B4FF6FF7303EA01210A434F
:104AA00002837047F0B5048C24F010040484068B54
:104AB000048C4FF6FF7505EA011726F4734605EAE4
:104AC0000333334305EA02221A43BB4B98420ED00C
:104AD000BA4B98420BD0B0F1804F08D0B84B9842F7
:104AE00005D0B84B984202D0B74B984205D124F07C
:104AF0002001394341F0100104E024F0A0030B43EE
:104B000043F0100102830184F0BD028B22F00C02FD
:104B10000283028B0A430283704770B5048C24F031
:104B200001040484058B048C25F0F3054FF6FF7611
:104B300006EA031313432B439F4A90420ED09F4A29
:104B400090420BD0B0F1804F08D09D4A904205D0E2
:104B50009C4A904202D09C4A904205D124F0020225
:104B60000A4342F0010104E024F00A020A4342F041
:104B700001010383018470BD70B505460C468E4863
:104B8000854209D08D48854206D0B5F1804F03D0CB
:104B90008B48854200D08B4820886188A288238971
:104BA00058B1042811D0082817D02846FFF702FF73
:104BB000E1882846BDE87040F0E62846FFF7ADFFE3
:104BC000E1882846BDE870409FE72846FFF76AFF66
:104BD000E1882846BDE8704058E72846FFF725FFE2
:104BE000E1882846BDE8704017E72DE9F041074607
:104BF0000C46002501266188002900D10225A288E3
:104C0000012A00D102262088238988B13846FFF77F
:104C100049FFE1883846FFF739FF238932462946A4
:104C20003846FFF77AFFE1883846BDE8F0416CE787
:104C30003846FFF772FFE1883846FFF766FF2389A1
:104C4000324629463846FFF72DFFE1883846BDE851
:104C5000F0411BE710B50A884B88CC881A438B8833
:104C600023431A430B891A434B8989891A430A4300
:104C7000A0F8442010BD4FF6FF7181800021018013
:104C8000C180418001727047002101804180818094
:104C9000C180018141818181C181704700210180F2
:104CA000418001228280C180018170470021018002
:104CB00041808180C18001814181818170470029CB
:104CC00004D0018841F0010101807047018821F082
:104CD000010101807047002905D030F8441F41F4DC
:104CE00000410180704730F8441FC1F30E0101807C
:104CF0007047002A03D082890A43828170478289E3
:104D00008A4382817047818270471143A0F848101E
:104D10007047002A03D082890A43828170478289C2
:104D20008A4382817047018921F007010181704720
:104D3000028922F070020A430281704700B50346DF
:104D40001846FFF7F5FF188940F00700188100BDED
:104D500070B50D4604461146602D0CD00122204648
:104D6000FFF7DBFE29462046FFF7E2FF208940F0EF
:104D70000700208170BD01222046FFF793FEF1E776
:104D800030B50489E4B24FF6FF7505EA03231343F7
:104D90000B432343038130BD10B504462046FFF783
:104DA000EFFF208920F0070040F0070020F070009E
:104DB00040F07000208110BD002C01400034014003
:104DC0000004004000080040000C004010B50446FC
:104DD0002046FFF7D5FF208940F480402081EAE794
:104DE000018582827047028822F070020A430280A5
:104DF000704770B50589048B068C25F007050D43B7
:104E00004FF6FC410C4040F201110C4326F0220603
:104E10004FF6FF7101EA0311114331430581048309
:104E2000018470BD028B22F070020A430283704736
:104E3000028B22F4E0424FF6FF7303EA0121114393
:104E400001837047828B22F070020A43828370478D
:104E5000828B22F4E0424FF6FF7303EA01211143F3
:104E600081837047002904D0018841F080010180CE
:104E70007047018821F0800101807047002904D02B
:104E8000818841F0040181807047818821F004010C
:104E900081807047002904D0818841F00801818019
:104EA0007047818821F0080181807047002904D073
:104EB000818841F0010181807047818821F00101E2
:104EC00081807047028B22F008020A4302837047F8
:104ED000028B22F400624FF6FF7303EA01211143B3
:104EE00001837047828B22F008020A438283704755
:104EF000828B22F400624FF6FF7303EA0121114313
:104F000081837047028B22F004020A4302837047B8
:104F1000028B22F480624FF6FF7303EA01211143F2
:104F200001837047828B22F004020A438283704718
:104F3000828B22F480624FF6FF7303EA0121114352
:104F400081837047028B22F080020A4302837047FC
:104F5000028BC2F30E024FF6FF7303EA01211143E5
:104F600001837047828B22F080020A43828370475C
:104F7000828BC2F30E024FF6FF7303EA0121114345
:104F800081837047028C22F002020A430284704738
:104F9000028C22F008020A4302847047028C22F03D
:104FA00020024FF6FF7303EA011111430184704799
:104FB000028C22F080024FF6FF7303EA01111143C5
:104FC00001847047028C22F400724FF6FF7303EAEB
:104FD0000121114301847047028C22F400624FF6D4
:104FE000FF7303EA0121114301847047028C22F40C
:104FF00000524FF6FF7303EA0131114301847047F9
:1050000010B501238B40048C9C430484038C8A409C
:1050100013430384CFE610B504238B40048C9C43D8
:105020000484038C8A4013430384C4E630B500F142
:10503000180301248C40058CA5430584002911D058
:1050400008290FD0091FC1F34E001844016821F44C
:10505000E041016001684FF6FF7303EA0222114349
:10506000016030BD03EB5100016821F07001016067
:1050700001681143016030BD002904D0018841F06E
:10508000020101807047018821F002010180704710
:10509000002904D0018841F0040101807047018893
:1050A00021F0040101807047002904D0818841F07B
:1050B000800181807047818821F080018180704764
:1050C000028822F00802028002880A4302807047A8
:1050D000828822F07002828082880A438280704730
:1050E000028922F00702028102890A430281704785
:1050F000028922F08002028102890A4302817047FC
:105100008184704781857047818670470187704729
:1051100081877047A0F840107047028822F44072DF
:10512000028002880A4302807047808E7047008F99
:105130007047808F7047B0F840007047808C704790
:10514000008D704702460020128A0A4200D00120DA
:105150007047C9430182704702460020138A0B4002
:1051600092890A40002B02D0002A00D0012070470B
:10517000C94301827047000010B5DB4988420AD15B
:10518000441501212046FEF7CEFF2046BDE8104021
:105190000021FEF7C8BFD54988420AD10415012174
:1051A0002046FEF7C0FF2046BDE810400021FEF774
:1051B000BABFCF4988420AD10121CC032046FEF76D
:1051C000B2FF2046BDE810400021FEF7ACBF10BD85
:1051D00010B54268C74B1A400C790B6842EA0422AA
:1051E000134343608268C44B1A40D1E9024323430E
:1051F0004C7942EA440213438360C26A22F470028B
:10520000097C491EC9B242EA0151C16210BD0021A8
:105210000160017141718160C160012101747047B9
:10522000002904D0816841F00101816070478168E4
:1052300021F0010181607047002904D0816841F4A8
:10524000807181607047816821F48071816070474E
:10525000C9B2002A03D042680A43426070474268DC
:105260008A4342607047816841F00801816070475D
:10527000014600208968090700D501207047816830
:1052800041F00401816070470146002089684907A8
:1052900000D501207047002904D0816841F4A001A5
:1052A00081607047816821F4A001816070470146E8
:1052B00000208968490200D501207047426822F425
:1052C0006042491E42EA413141607047002904D0E2
:1052D000416841F4006141607047416821F4006118
:1052E0004160704770B5072609290AD9C568A1F140
:1052F0000A0404EB4404A640B543A3401D43C56023
:1053000007E0056901EB4104A640B543A3401D43F6
:1053100005611F23072A09D2446B521E02EB820249
:1053200093409C4391400C43446370BD0D2A09D2C5
:10533000046BD21F02EB820293409C4391400C43CA
:10534000046370BDC46A0D3A02EB820293409C4331
:1053500091400C43C46270BD002904D0816841F4BF
:10536000801181607047816821F4801181607047ED
:10537000C06C80B270475C484C30006870470029B0
:1053800004D0416841F4806141607047416821F474
:10539000806141607047002904D0416841F4805128
:1053A00041607047416821F48051416070478268D4
:1053B00022F4E0420A4382607047002904D08168E9
:1053C00041F4004181607047816821F400418160AF
:1053D0007047002904D0816841F402118160704750
:1053E000816821F4021181607047014600208968BC
:1053F000890200D50120704770B5072609290AD90E
:10540000C568A1F10A0404EB4404A640B543A340D7
:105410001D43C56007E0056901EB4104A640B543A3
:10542000A3401D430561836BC3F30154121B921CFF
:1054300002EB82021F249440A34391400B438363F9
:1054400070BD826B22F44012491E42EA0151816311
:10545000704708B5009000980844009000980260DA
:1054600008BD08B5009000980844283000900098C6
:10547000006880B208BD4268204B1A400A4342606F
:105480007047416282627047426822F01F020A43FD
:105490004260704714490831002804D0086840F47D
:1054A000000008607047086820F40000086070473A
:1054B0000246002012680A4200D001207047C9430A
:1054C0000160704710B5024600200B0A5468C9B24B
:1054D0000C401168194202D0002C00D0012010BDF0
:1054E000090AC943016070470024014000280140B7
:1054F000003C0140FFFEF0FFFDF7F1FFFFFD3FFF25
:1055000001684FF6FE7211400160002101604160A8
:105510008160C1607249724A0839904204D148687A
:1055200040F00F00486070476D4A1432904204D139
:10553000486840F0F00048607047694A283290425D
:1055400004D1486840F4706048607047644A3C3257
:10555000904204D1486840F4704048607047604A07
:105560005032904204D1486840F47020486070473F
:105570005B4A6432904204D1486840F4700048604D
:105580007047574A7832904204D1486840F07060C2
:1055900048607047534A111F904204D1086840F098
:1055A0000F00086070474F4A1432904204D10868D7
:1055B00040F0F000086070474A4A2832904204D117
:1055C000086840F4706008607047464A3C32904278
:1055D00004D1086840F4704008607047414A503276
:1055E0009042FAD1086840F470200860704730B5E6
:1055F000026847F6F0739A430C6A8B682343D1E93B
:1056000004452C4323438C692343CC6923434C6AD0
:1056100023438C6A234313430360CA6842600A68C9
:1056200082604968C16030BD0021016041608160D5
:10563000C160016141618161C16101624162816258
:105640007047002904D0016841F0010101607047F2
:1056500001684FF6FE72114001607047002A03D0C6
:1056600002680A430260704702688A43026070471A
:1056700041607047406880B2704702460020D10008
:1056800003D518490839096802E01549083909683D
:10569000114200D001207047C10003D51149091FF4
:1056A000086070470E49083948607047024600207C
:1056B000D10003D50B490839096802E008490839C7
:1056C0000968114200D001207047C10003D5054987
:1056D000091F086070470249083948607047000098
:1056E0000800024008040240FE4A116801F0380137
:1056F000014311607047FB490A6822F008020A6002
:105700000A6802430A607047F6490A6822F01002EC
:105710000A600A6802430A607047F248F249416031
:10572000F24941607047EF48EF494160EF494160FD
:105730007047EC48016941F0800101617047E94818
:10574000016941F08001016170470420E549CA68A0
:10575000D20701D001207047CA68520701D5022044
:105760007047C968C906FBD50320704700B50346DA
:10577000FFF7EBFF02E0FFF7E8FF5B1E012801D116
:10578000002BF8D1002B00D1052000BD70B50546D7
:105790004FF430263046FFF7E9FF042811D1D14CF1
:1057A000206940F0020020616561206940F04000FE
:1057B00020613046FFF7DAFF216941F6FD721140A2
:1057C000216170BD30B54FF430252846FFF7CEFF7C
:1057D000042810D1C34C206940F0040020612069E6
:1057E00040F0400020612846FFF7C0FF216941F6E4
:1057F000FB721140216130BD00B50346FFF7A5FFE4
:1058000002E0FFF7A2FF5B1E012801D1002BF8D1B7
:10581000002B00D1052000BD30B54FF430252846BF
:10582000FFF7EAFF042810D1AE4C206940F00400D5
:105830002061206940F0400020612846FFF7DCFF2E
:10584000216941F6FB721140216130BD0020A5495C
:10585000C969890700D50120704770B5A525FFF7F4
:10586000F5FF00B100254FF430263046FFF77EFFEC
:10587000042818D19B4C9C48A0609C48A0602069DB
:1058800040F020002061206940F040002061304657
:10589000FFF76CFF41F6EF76042805D0052802D00B
:1058A00021693140216170BD206941F6DF710840F6
:1058B0002061206940F0100020618D4805804FF480
:1058C0000050FFF753FF0528EDD0216931402161D9
:1058D00070BD2DE9F84105460E46002000904FF4BA
:1058E00000573846FFF742FF04280FD17D4C20694E
:1058F00040F0010020612E80B8464046FFF736FF99
:10590000BF1E042804D0216939402161BDE8F88117
:10591000AD1C00950099300C08804046FFF726FF2B
:10592000216939402161F1E7F0B506460D464FF493
:1059300000573846FFF71AFF04280CD1694C20693C
:1059400040F00100206135803846FFF70FFF2169E4
:10595000BA1E11402161F0BDF0B505460E464FF468
:1059600000573846FFF702FF042813D15D4C5E480C
:10597000A0605E48A060206940F0100020612E8089
:105980003846FFF7F3FE052804D0216941F6EF728F
:1059900011402161F0BD2DE9F043C043C4B2C0F312
:1059A0000725C0F30746070E4FF400594846FFF796
:1059B000DDFE04283CD1DFF82C814B49C8F80810E3
:1059C0004A49C8F80810D8F8101041F01001C8F87A
:1059D0001010FF2C05D04648083004804846FFF7D9
:1059E000C5FE042807D1FF2D05D041480A300580A7
:1059F0004846FFF7BBFE042807D1FF2E05D03C48E0
:105A00000C3006804846FFF7B1FE042807D1FF2F6F
:105A100005D037480E3007804846FFF7A7FE052817
:105A200006D0D8F8101041F6EF721140C8F81010E7
:105A3000BDE8F08370B505464FF430263046FFF7D9
:105A400095FE042818D1274C2748A0602748A0605D
:105A5000206940F020002061206940F04000206172
:105A60003046FFF783FE41F6DF71042805D0052894
:105A700002D022690A40226170BD2069084020617D
:105A8000206940F010002061194815B10021018003
:105A900001E0A52101803046FFF768FE0528EBD024
:105AA000216941F6EF721140216170BD2DE9F0418D
:105AB00006460D4617460B4C0B48A0600B48A060ED
:105AC0004FF400584046FFF751FE04281DD12069CD
:105AD00040F0100020613D433543054945F0F80092
