:020000040800F2
:10000000688E0020A168000895080008970800087D
:10001000990800089B0800089D08000800000000DF
:100020000000000000000000000000009F08000821
:10003000A108000800000000A3080008A5080008A7
:10004000BB680008BB680008BB680008BB68000804
:10005000BB680008BB680008BB680008BB680008F4
:10006000BB680008BB680008BB680008BB680008E4
:10007000BB680008BB680008BB680008BB680008D4
:10008000BB680008BB680008BB680008BB680008C4
:10009000BB680008BB680008BB680008BB680008B4
:1000A000BB680008BB680008BB680008BB680008A4
:1000B000A7080008DB0800080F090008BB68000853
:1000C000BB680008BB680008BB680008BB68000884
:1000D000BB6800082B0A0008CF420008BB68000874
:1000E000BB680008BB680008BB680008BB68000864
:1000F000BB680008BB680008BB680008BB68000854
:10010000BB680008BB680008BB680008BB68000843
:10011000BB680008BB680008BB680008BB68000833
:10012000BB680008BB680008BB680008BB68000823
:1001300000F002F800F0B0F80AA090E8000C824449
:100140008344AAF10107DA4501D100F0A5F8AFF226
:10015000090EBAE80F0013F0010F18BFFB1A43F0A5
:1001600001031847A4C70000C4C700000A444FF0A9
:10017000000C10F8013B13F0070408BF10F8014B06
:100180001D1108BF10F8015B641E05D010F8016B4B
:10019000641E01F8016BF9D113F0080F1EBF10F8AF
:1001A000014BAD1C0C1B09D16D1E58BF01F801CBD2
:1001B000FAD505E014F8016B01F8016B6D1EF9D555
:1001C0009142D6D37047000000230024002500266A
:1001D000103A28BF78C1FBD8520728BF30C148BFAA
:1001E0000B6070476E2909F0FF81702908F09D8728
:1001F00066290CF02B8165290CF0288167290CF009
:1002000025816129AFF3008003681B0A28BF41F0F4
:100210008001692908F00E87642908F00B87752989
:1002200008F008876F2909F0F884782908F06987B1
:10023000E92909F09384E42909F09084F52909F06B
:100240008D84EF2909F0F584F82908F068870368A0
:10025000DB0928BF41F08001632909F08D857329EE
:1002600009F09285E32909F09D85F32909F0A2851B
:10027000002070471FB509F0E7FC040000200021B2
:100280000BF092F8401C6060002000210BF076F823
:10029000E0601FBD10B510BD09F02AFE1146FFF742
:1002A000E9FF00F0B6FA09F051FE03B4FFF7F2FFE0
:1002B00003BC02F01BFA000001B502E00098401EEA
:1002C000009000980028F9D108BD70B504F07CFCBE
:1002D0004FF48035284604F090FC04F0BCFCFE4945
:1002E0000870012829D1102006F098F8022006F0A5
:1002F00085F8002004F0E9FC002004F0F4FC002064
:1003000004F0EAFCAC10204604F004FD4FF4E011C8
:10031000284604F0C3FC204604F0FCFC012004F055
:10032000C5FC392004F082FC0028FAD0022004F039
:10033000C0FC04F0C5FC0828FBD170BD2DE9F84FC6
:100340000121052004F063FD0121082004F05FFD78
:100350000121402004F05BFD0121202004F057FD25
:100360004FF40070ADF800004FF018088DF80380CE
:1003700003248DF802406946D84804F042FB4FF44C
:100380008060ADF8000004268DF803606946D3480C
:1003900004F037FB4FF40069ADF8009010258DF89C
:1003A00003508DF802406946CC4804F02AFB8027B0
:1003B000ADF800708DF803508DF802406946C748CB
:1003C00004F01FFB4020ADF800004FF0280A8DF824
:1003D00003A08DF80240DFF808B36946584604F0E0
:1003E00010FBADF800708DF803A08DF8024069464F
:1003F000584604F006FBADF800908DF803508DF8D8
:1004000002406946584604F0FCFA6802ADF8000064
:100410008DF803508DF802406946584604F0F1FA11
:10042000A802ADF800008DF803508DF8024069462F
:10043000584604F0E6FA4FF47F40ADF800008DF81E
:1004400003508DF802406946A64804F0DAFA80218C
:10045000A24804F045FBADF800608DF803808DF8EC
:10046000024069469D4804F0CCFA0820ADF800002F
:100470008DF803606946994804F0C3FA042197484F
:1004800004F030FBBDE8F88F2DE9FF41012188031E
:1004900004F0BDFCDFF85082404604F00FFD4FF43D
:1004A000E13600960024ADF80440ADF80640ADF802
:1004B0000840ADF80C400C25ADF80A50694640469E
:1004C00004F044FD40F2255701223946404604F02D
:1004D000C4FD0121404604F0B4FD0121480404F0AC
:1004E000A1FCDFF80882404604F0E8FC0096ADF875
:1004F0000440ADF80640ADF80840ADF80C40ADF84A
:100500000A506946404604F021FD01223946404622
:1005100004F0A3FD0121404604F093FDBDE8FF81F6
:1005200010B58CB00121084604F066FC704C2046E2
:1005300005F070FE6F4801906748801C0290002112
:1005400003910222049205918022069252000792A2
:10055000900008902020099000020A900B9101A9B8
:10056000204605F0CEFE0121204605F0F4FE0CB039
:1005700010BD10B586B00121480204F048FC0020EF
:10058000019001218DF808108DF809104FF46021B9
:100590000391049002208DF81400564C01A94C3CA4
:1005A000204605F09FFC072301220821204605F084
:1005B00023FD072302220921204605F01DFD01210C
:1005C000204605F0C3FC0121204605F0B3FC20467F
:1005D00005F0D3FC204605F0D5FC0028FAD12046D2
:1005E00005F0D7FC204605F0D9FC0028FAD10121FE
:1005F000204605F0DAFC06B010BDF8B500214FF03A
:10060000006004F06EF94FF4E06004F035F9252045
:100610008DF8000000258DF8025001248DF803406C
:10062000684604F02EF926208DF8000002268DF889
:1006300002608DF80340684604F023F91C208DF811
:1006400000008DF801508DF802508DF80340684687
:1006500004F017F91D208DF800008DF801608DF869
:1006600002508DF80340684604F00BF91E208DF807
:1006700000008DF801408DF802508DF80340684667
:1006800004F0FFF8F8BD2DE9F04786B04FF0804543
:10069000284604F0E5FD0121084604F0C3FB0121D2
:1006A000022004F0BFFB0121042004F0BBFB232641
:1006B000ADF80C601027ADF80E704FF4FA68ADF885
:1006C00010800024ADF812408DF8144003A928468C
:1006D00004F0AEFE00210FE0000000200008014001
:1006E000000C014000180140003801400044004067
:1006F000080002404C240140284605F06AF9012216
:100700001146284605F07FF94FF6FE70ADF810004F
:10071000ADF80C40ADF81240ADF80E40DFF85CA12A
:1007200003A9504604F084FEADF80040ADF8024045
:100730004FF00109ADF80490ADF806400525ADF87D
:1007400008506946504605F0A1F80420ADF80000B5
:10075000ADF80240ADF80490ADF80640ADF8085091
:100760006946504605F092F80021504605F04AFBD4
:100770000121504605F02DF901220221504605F0D5
:1007800042F901220421504605F03DF93B48203052
:10079000018821F001010180018821F01001018010
:1007A0000121022004F03EFBADF81080ADF80C6092
:1007B000ADF80E70ADF81240314C03A9204604F09C
:1007C00037FE01221146204605F01DF90021204682
:1007D00005F0FFF806B0BDE8F08710B5FFF775FD2E
:1007E000FFF7ACFDFFF750FEFFF79AFEFFF7C1FEE3
:1007F000FFF703FFFFF747FF224C4FF4004120466D
:1008000004F070F92046BDE810404FF4FE4104F0BA
:1008100067B94D24FFF7E1FF01F068FE01F0ECFE3F
:1008200000F0D0FC184D2846FFF746FD00F020F9F7
:100830002846FFF741FD22460821002001F00EFA6C
:10084000124C0125AE02208828B9258001220321FF
:10085000002001F0C5F931460D4801F0FDFE0028E9
:10086000F1D001F06AFC01F0A2FC01F072FD01F090
:100870007FFD01F0A3FD01F0B6FDE4E700080040B4
:100880000004004000180140C0C62D0024000020D4
:10089000E40100207047FEE7FEE7FEE7FEE7704751
:1008A00070477047704710B501218C07204605F04E
:1008B000DDFA01280BD1664A5188491C89B2518062
:1008C000642904D3002050805069401C50612046A8
:1008D000BDE81040012105F0D5BA10B55D4C0121ED
:1008E000204605F0C3FA01280BD1594A9188491CCA
:1008F00089B29180642904D3002090809069401CC3
:1009000090612046BDE81040012105F0BBBA70B5EA
:100910004F4E3088504D504C203D002803D0308839
:1009200002281DD035E00221284605F09FFA012853
:1009300011D10221284605F0A5FA284605F07FFAD4
:10094000F08002203080208820F001002080208864
:1009500040F0100020800421284605F093FA18E0AA
:1009600001220421284605F04EF80421284605F00E
:100970007DFA01280DD10421284605F083FA284686
:1009800005F05FFA308103203080208820F01000CD
:1009900020800221284605F075FA0421284605F03A
:1009A00071FA308803283BD13089F188884204D914
:1009B0003089F188401A306106E0F0884FF6FF7107
:1009C000081A318908443061244800680AF0F8FFA9
:1009D0000022234B0AF0ECFD04460D4630690AF074
:1009E000D8FF22462B460BF03BF800221D4B0BF0A4
:1009F00037F800221C4B0AF0DBFD0AF06DFFF060B7
:100A00004FF4616102E0A0F56160F060F068884237
:100A1000F9DCF168B1F5E16F03DDA0F5E160F060AC
:100A200070BD00F5E160F06070BD10B50F4C40F294
:100A30002551204604F0E1FB002807D0204604F0B1
:100A400068FBC0B2BDE8104001F0DEBD10BD000083
:100A5000080000200004004020080040C8000020DA
:100A600000408F400020AC40882A9141003801406E
:100A700010B50924F9A20621002001F0EFF8F7A231
:100A80000721002001F0EAF8F5A20821002001F07A
:100A9000E5F8F4A21921002001F0E0F8A1B2EFA2DC
:100AA000002001F0DBF8641C162CF7DB0122114654
:100AB000002001F0DCF900220221104601F0D7F9F4
:100AC0000022BDE810401821104601F0E6B870473A
:100AD000704710B50179C278E34B41EA022199824F
:100AE0008279407942EA0020D8820122002901D18E
:100AF000032801D071B32FE01A80012202210020C7
:100B000001F0B5F900221721104601F0A3FA0022E6
:100B10002121104601F09EFAD448FFF7CDFB0022B8
:100B20001F231721104601F0F7F900224FF47843F4
:100B30002121104601F0F0F90621002001F02BF9E7
:100B40000721002001F027F90821BDE8104000200E
:100B500001F021B9042801D011B103E05A8010BD81
:100B60001A28FCD009B91B2802D000294DD04EE02C
:100B70009A80BAA20621002001F070F8B7A20721DE
:100B8000002001F06BF8B5A20221012001F066F807
:100B9000B4A21921002001F061F8B0A21F210020A9
:100BA00001F05CF8ADA22021002001F057F8ABA2C3
:100BB0002221002001F052F8A8A22321002001F0F8
:100BC0004DF80924A1B2A5A2002001F047F8641C49
:100BD000162CF7DB00221A21104601F048F90022FA
:100BE0001921104601F043F900221821104601F0A6
:100BF00054F800221721104601F02CFA0022BDE81B
:100C000010402121104601F025BA1C2801D069B1FD
:100C10000EE0DA8000221821104601F03EF819217A
:100C2000BDE810408FA2002001F018B81D2802D0A6
:100C3000012902D003E01A8110BD032802D00E2939
:100C400002D003E01A8210BD022802D00E2903D080
:100C500004E00020588210BD032802D00E2902D0E3
:100C600003E05A8210BD042802D00E2903D004E00C
:100C70000220588210BD052802D00E2903D004E0BE
:100C80000320588210BD062806D00E29FAD1072865
:100C9000F8D10520588210BD0420588210BDF0B54F
:100CA00000210279C378704E42EA0323B38282792D
:100CB000447942EA0422F28234464FF0010C27883C
:100CC00000246FF02F05002B01D1062A01D0C3B1FB
:100CD00019E0012F02D07481F4610DE0A6F80AC07A
:100CE000FAE70A460244491C137AF26902EB8202CF
:100CF00005EB42021A44F2614218127A002AF0D13E
:100D0000F0BD072A01D0C3B119E0012F02D0B48190
:100D100034620DE0A6F80CC0FAE70A460244491C0A
:100D2000137A326A02EB820205EB42021A44326203
:100D30004218127A002AF0D1F0BD082A02D0012B05
:100D400018D019E0012F02D0F481F4660DE0A6F866
:100D50000EC0FAE70A460244491C137AF26E02EB0F
:100D6000820205EB42021A44F2664218127A002A05
:100D7000F0D1F0BD022A02D0052B12D013E0346767
:100D80000AE00A460244491C137A326F02EB8202DF
:100D900005EB42021A4432674218127A002AF0D157
:100DA000F0BD022A02D0052B12D013E074620AE0D3
:100DB0000A460244491C137A726A02EB820205EB6E
:100DC00042021A4472624218127A002AF0D1F0BD2F
:100DD0000B2A02D0052B12D013E0B4620AE00A46B7
:100DE0000244491C137AB26A02EB820205EB42020A
:100DF0001A44B2624218127A002AF0D1F0BD032AD6
:100E000002D0052B12D013E0F4620AE00A46024435
:100E1000491C137AF26A02EB820205EB42021A4481
:100E2000F2624218127A002AF0D1F0BD0C2A02D0E8
:100E3000052B1DD01EE034630AE00A460244491C1B
:100E4000137A326B02EB820205EB42021A443263E0
:100E50004218127A002AF0D1F0BD00000000000014
:100E6000313030003000000024000020A086010056
:100E7000042A02D0052B12D013E074630AE00A465C
:100E80000244491C137A726B02EB820205EB4202A8
:100E90001A4472634218127A002AF0D1DCE70D2A54
:100EA00002D0052B12D013E0B4630AE00A460244D4
:100EB000491C137AB26B02EB820205EB42021A4420
:100EC000B2634218127A002AF0D1C5E7052A02D08F
:100ED000062B12D013E0F4630AE00A460244491CD0
:100EE000137AF26B02EB820205EB42021A44F263C0
:100EF0004218127A002AF0D1AEE70E2A02D0052B52
:100F000012D013E034640AE00A460244491C137A02
:100F1000326C02EB820205EB42021A443264421840
:100F2000127A002AF0D197E7062A02D0052B12D0B8
:100F300013E074640AE00A460244491C137A726C96
:100F400002EB820205EB42021A4472644218127AE2
:100F5000002AF0D180E70F2A02D0052B12D013E02F
:100F6000B4640AE00A460244491C137AB26C02EBEC
:100F7000820205EB42021A44B2644218127A002A35
:100F8000F0D169E7072A02D0052B12D013E0F464F0
:100F90000AE00A460244491C137AF26C02EB820210
:100FA00005EB42021A44F2644218127A002AF0D188
:100FB00052E7102A02D0052B12D013E034650AE064
:100FC0000A460244491C137A326D02EB820205EB99
:100FD00042021A4432654218127A002AF0D13BE7E5
:100FE000082A02D0052B12D013E074650AE00A46E5
:100FF0000244491C137A726D02EB820205EB420235
:101000001A4472654218127A002AF0D124E7112A94
:1010100002D0052B12D013E0B4650AE00A46024460
:10102000491C137AB26D02EB820205EB42021A44AC
:10103000B2654218127A002AF0D10DE7092A02D0CF
:10104000052B12D013E0F4650AE00A460244491C5D
:10105000137AF26D02EB820205EB42021A44F2654A
:101060004218127A002AF0D1F6E6122A02D0052B95
:1010700012D013E034660AE00A460244491C137A8F
:10108000326E02EB820205EB42021A4432664218CB
:10109000127A002AF0D1DFE60A2A05D0052B87D183
:1010A000132A85D1B4661CE074660AE00A4602443D
:1010B000491C137A726E02EB820205EB42021A445B
:1010C00072664218127A002AF0D1C5E60A46024436
:1010D000491C137AB26E02EB820205EB42021A44FB
:1010E000B2664218127A002AF0D1B5E610B501793D
:1010F000C278114B41EA022199828279447942EA0D
:101100000422DA82002908D1192A06D11A88012A74
:1011100004D05981407A3038586710BD0121598177
:10112000F8E770477047704770470179C07841EA27
:1011300000200149088370472400002070B505464F
:101140000E46002404E0285D00F0E0FF641CA4B219
:10115000B442F8D370BD70B505460E4600240AE0CF
:1011600035F81400000A00F0D1FF15F8140000F063
:10117000CDFF641CA4B2B442F2D370BDEE2000F0E7
:10118000C5BF10B5FF2000F0C1FFFC2000F0BEFF7E
:10119000FF2000F0BBFFBDE81040FF2000F0B6BF0D
:1011A00010B5FFF7EBFF042000F0B0FFBDE81040E2
:1011B000E7E710B5FFF7E2FF042000F0A7FFBDE866
:1011C0001040DEE710B5FFF7D9FF072000F09EFFC3
:1011D000352000F09BFF5A2000F098FF532000F0CC
:1011E00095FFA52000F092FFBDE81040C9E710B5BB
:1011F0000446FFF7C3FF412000F088FF200A00F0FB
:1012000085FFE0B200F082FFBDE81040B9E710B5FD
:101210000446FFF7B3FF422000F078FF200A00F0F9
:1012200075FFE0B200F072FFBDE81040A9E710B50D
:10123000FFF7A4FF012000F069FFBDE81040A0E720
:1012400070B505460C46FFF799FF432000F05EFF9E
:10125000284600F05BFF204600F058FFBDE87040D4
:101260008FE770B506460C461546FFF787FF452009
:1012700000F04CFF304600F049FF200A00F046FF26
:10128000E0B200F043FF280A00F040FFE8B200F0AF
:101290003DFFBDE8704074E770B504460D46FFF7AA
:1012A0006DFF442000F032FF200A00F02FFFE0B273
:1012B00000F02CFF280A00F029FFE8B200F026FF1A
:1012C000BDE870405DE72DE9F04104460D46164645
:1012D0001F46DDF81880FFF751FF202000F016FFB1
:1012E000200A00F013FFE0B200F010FF280A00F01F
:1012F0000DFFE8B200F00AFF304600F007FF384665
:1013000000F004FF404600F00EFFBDE8F04138E772
:101310002DE9F04180460C4615461E46069FFFF714
:101320002DFF212000F0F2FE404600F0EFFE200AE3
:1013300000F0ECFEE0B200F0E9FE280A00F0E6FE64
:10134000E8B200F0E3FE304600F0E0FE384600F080
:10135000DDFEBDE8F04114E770B504460D46FFF729
:101360000DFF312000F0D2FE200A00F0CFFEE0B2E7
:1013700000F0CCFE284600F0C9FEBDE8704000E752
:101380002DE9F04104460D4616461F46FFF7F6FECE
:10139000322000F0BBFE200A00F0B8FEE0B200F000
:1013A000B5FE280A00F0B2FEE8B200F0AFFE300A47
:1013B00000F0ACFEF0B200F0A9FE384600F0A6FE48
:1013C000BDE8F041DDE62DE9F05F0446DDE90CAB58
:1013D000DDE90A890D4616461F46FFF7CFFE33208A
:1013E00000F094FE200A00F091FEE0B200F08EFEC4
:1013F000280A00F08BFEE8B200F088FE300A00F008
:1014000085FEF0B200F082FE380A00F07FFEF8B2EE
:1014100000F07CFE4FEA182000F078FE08F0FF0094
:1014200000F074FE4FEA192000F070FE09F0FF0092
:1014300000F06CFE4FEA1A2000F068FE0AF0FF0090
:1014400000F064FE584600F061FEBDE8F05F98E6EB
:101450002DE9F04104460D4616461F46DDF818807A
:10146000FFF78CFE802000F051FE200A00F04EFEB7
:10147000E0B200F04BFE280A00F048FEE8B200F0AF
:1014800045FE300A00F042FEF0B200F03FFE384662
:1014900000F03CFE404600F039FEBDE8F04170E649
:1014A00070B504460D46FFF769FE502000F02EFE91
:1014B000200A00F02BFEE0B200F028FE280A00F01F
:1014C00025FEE8B200F022FEBDE8704059E670B596
:1014D00004460D46FFF752FE582000F017FE200A82
:1014E00000F014FEE0B200F011FE280A00F00EFE3B
:1014F000E8B200F00BFEBDE8704042E62DE9F04195
:1015000004460D4616461F46FFF738FE512000F0F0
:10151000FDFD200A00F0FAFDE0B200F0F7FD280A18
:1015200000F0F4FDE8B200F0F1FD300A00F0EEFD4D
:10153000F0B200F0EBFD380A00F0E8FDF8B200F080
:10154000E5FDBDE8F0411CE670B5044615461E46B3
:10155000FFF714FE592000F0D9FD200A00F0D6FD57
:10156000E0B200F0D3FD31462846FFF7E7FDBDE8C5
:10157000704006E62DE9F04104460D4616461F462A
:10158000FFF7FCFD752000F0C1FD200A00F0BEFD54
:10159000E0B200F0BBFD280A00F0B8FDE8B200F0B0
:1015A000B5FD39463046FFF7D6FDBDE8F041E8E528
:1015B0002DE9F04104460D4616461F46FFF7DEFDB5
:1015C000762000F0A3FD200A00F0A0FDE0B200F0BC
:1015D0009DFD280A00F09AFDE8B200F097FD39461B
:1015E0003046FFF7B8FDBDE8F041CAE570B50546E5
:1015F0000C46FFF7C3FD682000F088FD4FF6FF7131
:1016000001EA44012846FFF7A6FDBDE87040B8E5B1
:1016100070B505460C46FFF7B1FD692000F076FD78
:101620004FF6FF7101EA44012846FFF794FDBDE83B
:101630007040A6E570B504460D461646FFF79EFDC0
:10164000522000F063FD200A00F060FDE0B200F0DF
:101650005DFD280A00F05AFDE8B200F057FD300A9F
:1016600000F054FDF0B200F051FDBDE8704088E597
:1016700070B504460D461646FFF780FD532000F076
:1016800045FD200A00F042FDE0B200F03FFD280ACF
:1016900000F03CFDE8B200F039FD300A00F036FD04
:1016A000F0B200F033FDBDE870406AE52DE9F0418D
:1016B00004460D4616461F46DDF81880FFF75EFD0E
:1016C000672000F023FD200A00F020FDE0B200F0CA
:1016D0001DFD280A00F01AFDE8B200F017FD300ADF
:1016E00000F014FDF0B200F011FD380A00F00EFD1C
:1016F000F8B200F00BFD4FEA182000F007FD08F0EB
:10170000FF0000F003FDBDE8F0413AE52DE9F041AE
:1017100004460D4616461F46FFF730FD542000F0E4
:10172000F5FC200A00F0F2FCE0B200F0EFFC280A21
:1017300000F0ECFCE8B200F0E9FC300A00F0E6FC56
:10174000F0B200F0E3FC380A00F0E0FCF8B200F080
:10175000DDFCBDE8F04114E52DE9F04104460D46FD
:1017600016461F46FFF70AFD552000F0CFFC200A61
:1017700000F0CCFCE0B200F0C9FC280A00F0C6FC86
:10178000E8B200F0C3FC300A00F0C0FCF0B200F098
:10179000BDFC380A00F0BAFCF8B200F0B7FCBDE8B6
:1017A000F041EEE42DE9F04104460D4616461F4691
:1017B000FFF7E4FC562000F0A9FC200A00F0A6FC8C
:1017C000E0B200F0A3FC280A00F0A0FCE8B200F0B0
:1017D0009DFC300A00F09AFCF0B200F097FC380A49
:1017E00000F094FCF8B200F091FCBDE8F041C8E4D0
:1017F0002DE9F04104460D4616461F46FFF7BEFC94
:10180000572000F083FC200A00F080FCE0B200F0DA
:101810007DFC280A00F07AFCE8B200F077FC300A80
:1018200000F074FCF0B200F071FC380A00F06EFCBD
:10183000F8B200F06BFCBDE8F041A2E410B504463C
:10184000FFF79CFC602000F061FC204600F05EFC8D
:10185000BDE8104095E42DE9F04107460C461546D9
:101860001E46FFF78BFC772000F050FC384600F056
:101870004DFC204600F04AFC284600F047FC30466C
:1018800000F044FCBDE8F0417BE410B50446FFF7EE
:1018900075FC612000F03AFC204600F037FCBDE802
:1018A00010406EE410B5FFF769FCFE2000F02EFC3E
:1018B000BDE8104065E410B50446FFF75FFC7020FA
:1018C00000F024FC204600F021FCBDE8104058E464
:1018D00010B5FFF753FC722000F018FCBDE8104073
:1018E0004FE410B5FFF74AFC732000F00FFCBDE891
:1018F000104046E410B50446FFF740FCA02000F07D
:1019000005FC204600F002FCBDE8104039E410B5AB
:101910000446FFF733FC792000F0F8FB204600F086
:10192000F5FBBDE810402CE470B504460D461646A4
:10193000FFF724FC872000F0E9FB200E00F0E6FB17
:10194000C4F3074000F0E2FBC4F3072000F0DEFB25
:10195000E0B200F0DBFB31462846FFF7EFFBBDE8C5
:1019600070400EE470B504460D46FFF707FC882072
:1019700000F0CCFB200E00F0C9FBC4F3074000F0E0
:10198000C5FBC4F3072000F0C1FBE0B200F0BEFBD2
:10199000280A00F0BBFBE8B200F0B8FBBDE87040DD
:1019A000FFF7EFBB10B50446FFF7E8FBA12000F0FE
:1019B000ADFB204600F0AAFBBDE81040FFF7E1BBFD
:1019C00010B50446FFF7DAFBA22000F09FFB20468B
:1019D00000F09CFBBDE81040FFF7D3BB70B5054697
:1019E0000C46FFF7CBFBA42000F090FB284600F04C
:1019F0008DFB204600F08AFBBDE87040FFF7C1BBBD
:101A000010B50446FFF7BAFB052000F07FFB204627
:101A100000F07CFBBDE81040FFF7B3BB10B50446F7
:101A2000FFF7ACFB062000F071FB204600F06EFBD8
:101A3000BDE81040FFF7A5BB10B50446FFF79EFBBD
:101A4000462000F063FB204600F060FBBDE810403C
:101A5000FFF797BB10B50446FFF790FB472000F057
:101A600055FB204600F052FBBDE81040FFF789BB54
:101A70002DE9F0418046DDE906560F461C46FFF78A
:101A80007DFB852000F042FB404600F03FFB3846DE
:101A900000F03CFB384600F039FB200A00F036FB32
:101AA000E0B200F033FB280A00F030FBE8B200F0AF
:101AB0002DFB300A00F02AFBF0B200F027FBBDE856
:101AC000F041FFF75EBB2DE9F0470746DDE9099AD3
:101AD0000C4615461E46DDF82080FFF74FFB81209F
:101AE00000F014FB384600F011FB204600F00EFB1E
:101AF000284600F00BFB304600F008FB404600F0A3
:101B000005FB484600F002FB504600F0FFFABDE836
:101B1000F047FFF736BB10B5FFF730FB822000F02F
:101B2000F5FABDE81040FFF72CBB10B5FFF726FB18
:101B3000082000F0EBFAA52000F0E8FA5A2000F0A7
:101B4000E5FA5F2000F0E2FAF52000F0DFFABDE8E8
:101B50001040FFF716BB10B5FFF710FB092000F08F
:101B6000D5FADE2000F0D2FAED2000F0CFFA1320F3
:101B700000F0CCFA312000F0C9FABDE81040FFF7C0
:101B800000BB10B5FFF7FAFAB12000F0BFFA012050
:101B900000F0BCFABDE81040FFF7F3BA10B50446F8
:101BA000FFF7ECFAB12000F0B1FA002000F0AEFA35
:101BB000200A00F0ABFAE0B200F0A8FABDE810404D
:101BC000FFF7DFBA10B50446FFF7D8FAB32000F0EC
:101BD0009DFA204600F09AFABDE81040FFF7D1BA0E
:101BE00070B504460D461646FFF7C8FAB12000F05E
:101BF0008DFA032000F08AFA200A00F087FAE0B29A
:101C000000F084FA280A00F081FAE8B200F07EFAC7
:101C1000304600F07BFABDE87040FFF7B2BA70B50D
:101C200004460D461646FFF7A9FAB12000F06EFAF9
:101C3000102000F06BFA200A00F068FAE0B200F021
:101C400065FA280A00F062FAE8B200F05FFA30465E
:101C500000F05CFABDE87040FFF793BA70B5044637
:101C60000D461646FFF78AFAB12000F04FFA102011
:101C700000F04CFA200A00F049FAE0B200F046FA0F
:101C8000280A00F043FAE8B200F040FA304600F0CB
:101C90004AFABDE87040FFF774BA70B505460E46C3
:101CA0001446FFF76BFAB12000F030FA102000F074
:101CB0002DFA280A00F02AFAE8B200F027FA300AD2
:101CC00000F024FAF0B200F021FA200E00F01EFA23
:101CD000C4F3074000F01AFAC4F3072000F016FA24
:101CE000E0B200F013FABDE87040FFF74ABA70B5F1
:101CF00005460E461446FFF741FAB12000F006FAF9
:101D0000102000F003FA280A00F000FAE8B200F010
:101D1000FDF9300A00F0FAF9F0B200F0F7F9200E00
:101D200000F0F4F9C4F3074000F0F0F9C4F3072021
:101D300000F0ECF9E0B200F0E9F9BDE87040FFF71F
:101D400020BA70B505460E461446FFF717FAB120C3
:101D500000F0DCF9102000F0D9F9280A00F0D6F9DB
:101D6000E8B200F0D3F9300A00F0D0F9F0B200F098
:101D7000CDF9200E00F0CAF9C4F3074000F0C6F90F
:101D8000C4F3072000F0C2F9E0B200F0BFF9BDE8EB
:101D90007040FFF7F6B970B504460D46FFF7EEF94F
:101DA000B12000F0B3F9112000F0B0F9200A00F0E2
:101DB000ADF9E0B200F0AAF9280A00F0A7F9E8B2FC
:101DC00000F0A4F9BDE87040FFF7DBB970B5044638
:101DD0000D46FFF7D3F9B12000F098F9202000F06C
:101DE00095F9200A00F092F9E0B200F08FF9280A84
:101DF00000F08CF9E8B200F089F9BDE87040FFF717
:101E0000C0B970B504460D46FFF7B8F9B12000F02F
:101E10007DF9212000F07AF9200A00F077F9E0B28C
:101E200000F074F9280A00F071F9E8B200F06EF9D8
:101E3000BDE87040FFF7A5B970B504460D46FFF741
:101E40009DF9B12000F062F9222000F05FF9200A2C
:101E500000F05CF9E0B200F059F9280A00F056F9F8
:101E6000E8B200F053F9BDE87040FFF78AB970B5E9
:101E700004460D461646FFF781F9B12000F046F9F9
:101E8000232000F043F9200A00F040F9E0B200F00E
:101E90003DF9280A00F03AF9E8B200F037F9304687
:101EA00000F034F9BDE87040FFF76BB970B5044637
:101EB0000D46FFF763F9B12000F028F9242000F067
:101EC00025F9200A00F022F9E0B200F01FF9280AF3
:101ED00000F01CF9E8B200F019F9BDE87040FFF716
:101EE00050B970B504460D46FFF748F9B12000F02F
:101EF0000DF9252000F00AF9200A00F007F9E0B2F8
:101F000000F004F9280A00F001F9E8B200F0FEF848
:101F1000BDE87040FFF735B92DE9F04104460D46A4
:101F200017461E46FFF72AF9B12000F0EFF83020DF
:101F300000F0ECF8200A00F0E9F8E0B200F0E6F872
:101F4000280A00F0E3F8E8B200F0E0F8384600F0C4
:101F5000DDF8300A00F0DAF8F0B200F0D7F8BDE8AA
:101F6000F041FFF70EB970B504460D461646FFF76F
:101F700005F9B12000F0CAF8312000F0C7F8200AB6
:101F800000F0C4F8E0B200F0C1F8280A00F0BEF892
:101F9000E8B200F0BBF8304600F0B8F8BDE8704099
:101FA000FFF7EFB82DE9F04105460E461746984673
:101FB000069CFFF7E3F8B12000F0A8F8322000F00B
:101FC000A5F8280A00F0A2F8E8B200F09FF8300A5D
:101FD00000F09CF8F0B200F099F8384600F096F85E
:101FE000200A00F093F8E0B200F090F82146404655
:101FF000FFF7A4F8BDE8F041FFF7C3B82DE9F041C1
:1020000005460E4617469846069CFFF7B7F8B120DE
:1020100000F07CF8352000F079F8280A00F076F816
:10202000E8B200F073F8300A00F070F8F0B200F097
:102030006DF8384600F06AF8200A00F067F8E0B260
:1020400000F064F821464046FFF778F8BDE8F0411B
:10205000FFF797B870B504460D461646FFF78EF8A1
:10206000B12000F053F8332000F050F8200A00F0BF
:102070004DF8E0B200F04AF8280A00F047F8E8B25C
:1020800000F044F8304600F041F8BDE87040FFF73A
:1020900078B82DE9F0470446DDE908890D46164673
:1020A0001F46FFF76BF8B12000F030F8342000F045
:1020B0002DF8200A00F02AF8E0B200F027F8280AEC
:1020C00000F024F8E8B200F021F8C6F3072000F091
:1020D0001DF8F0B200F01AF8380A00F017F8F8B25C
:1020E00000F014F8C8F3072000F010F808F0FF0023
:1020F00000F00CF84FEA192000F008F809F0FF0092
:1021000000F004F8BDE8F047FFF73BB810B5BD4C50
:102110000146204602F0F6FF8021204603F062F8D7
:102120000028F9D010BD10B5044602E0FFF7EEFF1D
:10213000641C20780028F9D110BD70B50546B24C5A
:102140006078012832D0032830D0B1282ED1A07871
:10215000012811D0112829D1E079132826D011DCCB
:10216000012819D010281BD011281FD1294620463C
:10217000BDE87040FEF793BD29462046BDE870409B
:10218000FEF7D3BF142811D01A280FD129462046B4
:10219000BDE87040FEF7AABF29462046FEF7C5FFFE
:1021A00029462046BDE87040FEF793BC70BD2DE97E
:1021B000F05F964F388801287DD1DFF85492B9F846
:1021C00000000128F8D1DFF84CA2BAF8000001287D
:1021D000F2D1DFF84482B8F800000128ECD10026E3
:1021E0003E80A9F80060AAF80060A8F800601D21F0
:1021F0000020FFF706FE1A210020FFF702FE874DA0
:10220000874C2868216888427ED900220321104625
:10221000FFF7E6FC00221B211046FFF7E1FC01223C
:1022200004210020FFF7DCFC00221C211046FFF7F0
:10223000D7FCDFF8F0B18021584602F053FC20684B
:1022400009F0BEFB02460B4677A1794806F0B4FEC2
:10225000774A1F210020FFF701FD286809F0B0FB35
:1022600002460B4670A1724806F0A6FE704A202175
:102270000020FFF7F3FC206809F0A2FB02460B46A2
:1022800069A16B4806F098FE694A22210020FFF7F9
:10229000E5FC286809F094FB02460B4662A16448FD
:1022A00006F08AFE624A23210020FFF7D7FC61482E
:1022B000008882B200E040E029684FF47A70414320
:1022C00020684FF47A73584301F01AFF3E80A9F852
:1022D0000060AAF80060A8F8006057480680012254
:1022E00003210020FFF77CFC01221B210020FFF7C7
:1022F00077FC002204211046FFF772FC00221C210B
:102300001046FFF76DFC00E012E04FF40064214638
:10231000584602F0E5FB4948FDF7CEFF00F06CF9A6
:102320002146584602F0DEFB8021584602F0D8FBD9
:1023300001221C210020FFF753FC01220321002071
:10234000FFF74EFCBDE8F05F01221B210020FFF7E4
:1023500047BC10B538480188012908D10021018007
:1023600000F04AF9BDE810403548FDF7A5BF10BDA3
:1023700010B53448018801291FD1002101800022B5
:1023800004211046FFF72CFC00221B211046FFF70A
:1023900027FC00221C211046FFF722FC00F02CF93C
:1023A0001D210020FFF72DFD1A210020FFF729FD38
:1023B000BDE810402248FDF77FBF10BD10B522498F
:1023C000088801280ED100200880204908801D4976
:1023D000088001F08BFF00F00FF9BDE810401848AD
:1023E000FDF76ABF10BD10B519480188012908D151
:1023F0000021018000F000F9BDE810401048FDF711
:102400005BBF10BD00380140E40100202400002023
:102410002E00002030000020320000204400002068
:102420004000002000080140252D372E30660000B6
:102430009C0000209000002026000020801A06004A
:10244000A086010028000020340000202A0000207F
:102450002C0000202DE9F0470546634E4FF400574D
:102460003946304602F03CFB4FF4804A5146304634
:1024700002F036FB4FF400694946304602F030FB6B
:1024800000BF00BF00BF00BF00BF00BF49463046CD
:1024900002F028FB00BF00BF00BF00244FF6FF780A
:1024A000280404D55146304602F01AFB03E0514699
:1024B000304602F017FB3946304602F013FB00BFEE
:1024C0003946304602F00CFB08EA4505641CE4B2CC
:1024D000102CE5D300BF4946304602F001FB3946D7
:1024E000304602F0FFFA00BFBDE8F08770B53E4EFF
:1024F0004FF40061304602F0F3FA7414214630467E
:1025000002F0EEFA65002946304602F0EBFA60115F
:10251000FFF7A0FF2046FFF79DFF2846FFF79AFF31
:102520002846FFF797FF2046FFF794FFA5002846AF
:10253000FFF790FF2846FFF78DFF4FF45040FFF75D
:1025400089FF4FF47040FFF785FF2046BDE87040DB
:1025500080E72DE9F0410C4609F098FE09F090FD66
:10256000224A234B09F07CFA0022224B08F064FF38
:1025700009F0E2F9C0F30D0141F48046C0F38D305B
:1025800040F480454FF440474FF4704824B1012C8B
:102590000DD0022C16D01FE042F22400FFF75AFFA4
:1025A0003846FFF757FF4046FFF754FF14E042F26A
:1025B0000200FFF74FFF3846FFF74CFF4046FFF79A
:1025C00049FF09E04FF40050FFF744FF3846FFF79A
:1025D00041FF4046FFF73EFF3046FFF73BFF2846EE
:1025E000BDE8F04136E70000000C01408DEDB5A0DC
:1025F000F7C630400000E03F3A490020488008809C
:10260000394908704880704710B5364B1A88511CFC
:10261000C1F30A015C888C4202D01C1D1055198040
:1026200010BD304A51881388994206D0131DCB5CE7
:102630000370491CC1F30A00508070472948018883
:102640004088081A00F50060C11700EB51516FF384
:102650000A01401A80B270472DE9F84307468846C0
:10266000002500950226204C19E06846FFF7D9FFA7
:1026700062881AB99DF80000EE2810D1424504D2B4
:102680009DF80010501C6080B9549DF80020FF2A6E
:102690000BD0FC2A17D02570207804281ED0FFF715
:1026A000CDFF0028E1D1BDE8F8832078022804D0CE
:1026B000032805D001202070EEE703202070EBE70F
:1026C00004202070E8E72078012803D0032803D0F5
:1026D0002570E1E72670DFE72670DDE7608825706A
:1026E0006580E0E7E40500209E0000207047F9497E
:1026F0000A885206FCD5F74AC1B2121D11807047F4
:1027000010B5002804D00146F3A006F049FCFEE70E
:1027100010BD30B5FDB0F4A000687C903422F349C0
:102720006FA806F065FE3422F049343162A806F045
:102730005FFE3422ED49683155A806F059FE342277
:10274000EA499C3148A806F053FE3422E749D031CB
:102750003BA806F04DFE1822E5A135A806F048FE7C
:102760001C22E9A12EA806F043FE1C22EDA127A8F9
:1027700006F03EFE1C22F2A120A806F039FE1C2223
:10278000F6A119A806F034FEFBA003C8CDE9170195
:102790001C22FBA110A806F02BFE342103A806F092
:1027A00059FEFE48D0E90112C068CDE9001202903E
:1027B000FB48FCA1026803A806F0FEFB03A96846DB
:1027C00006F0C5FDF8A1684606F0C1FDF84CE06DC5
:1027D00009F0F6F802460B46F6A103A806F0ECFB5A
:1027E00003A96FA806F070FDE06C09F0E9F800227B
:1027F000F24B08F0DDFEF24AF24B09F031F90246E5
:102800000B46F1A103A806F0D7FB03A96FA806F0B9
:102810009EFD206E09F0D4F802460B46E5A103A800
:1028200006F0CAFB03A96FA806F091FDAEA16FA840
:1028300006F08DFDA06D09F0C3F802460B46DDA140
:1028400003A806F0B9FB03A962A806F03DFD606D80
:1028500009F0B6F80022DE4B08F0AAFEDD4ADE4B96
:1028600009F0FEF802460B46D7A103A806F0A4FB28
:1028700003A962A806F06BFD606E09F0A1F802469C
:102880000B46CCA103A806F097FB03A962A806F0AB
:102890005EFD95A162A806F05AFD04F18005CF4ABD
:1028A000D5E90001CE4B09F0DBF802460B46CDA17D
:1028B00003A806F081FB03A955A806F005FDD5E99C
:1028C0000801CA4ACA4B09F0CBF802460B46C9A117
:1028D00003A806F071FB03A955A806F038FDA06E09
:1028E00009F06EF802460B46BEA103A806F064FB91
:1028F00003A955A806F02BFD7BA155A806F027FDDE
:10290000D4E91E014FF00052BC4B09F0A9F8024671
:102910000B46B8A103A806F04FFB03A948A806F090
:10292000D3FCD5E90423B3A103A806F045FB03A912
:1029300048A806F00CFDD5E90623AEA103A806F0D1
:102940003BFB03A948A806F002FD67A148A806F0D2
:10295000FEFCD5E90201AA4AAA4B09F081F8024619
:102960000B46A0A103A806F027FB03A93BA806F08D
:10297000ABFC5DA13BA806F0EAFC6946A24806F064
:10298000A3FC05F0A4FDFFF7BBFE9F4C35A9601C1E
:1029900006F09AFC35A806F0BBFC207006F0B2F9F0
:1029A000FFF7AEFE2EA9601C06F08EFC2EA806F0E6
:1029B000AFFC207006F0A6F9FFF7A2FE6FA9601C1D
:1029C00006F082FC6FA806F0A3FC207006F09AF9CE
:1029D000FFF796FE27A9601C06F076FC27A806F0F4
:1029E00097FC207006F08EF9FFF78AFE62A9601C42
:1029F00006F06AFC62A806F08BFC207006F082F9F3
:102A0000FFF77EFE20A9601C06F05EFC20A806F001
:102A10007FFC207006F076F9FFF772FE55A9601C66
:102A200006F052FC55A806F073FC207006F06AF917
:102A3000FFF766FE19A9601C06F046FC19A806F00F
:102A400067FC207006F05EF9FFF75AFE48A9601C8B
:102A500006F03AFC48A806F05BFC207006F052F93C
:102A6000FFF74EFE17A9601C06F02EFC17A806F013
:102A70004FFC207006F046F9FFF742FE3BA9601CB0
:102A800006F022FC3BA806F043FC207006F03AF961
:102A9000FFF736FE10A9601C06F016FC10A806F021
:102AA00037FC207006F02EF9FFF72AFE7DB030BD0E
:102AB00030B5A5B0394821AD00F110011EC91EC5C1
:102AC00000F120011DAD1EC91EC5D0E90D23016B0B
:102AD000C06B9BE0003801404572726F723A20254E
:102AE0003032580A000000000D0A000040C50008FE
:102AF00020202020202020202020D7E8BFB9B7D6D2
:102B0000CEF6D2C70D0A00004653202020202020F8
:102B100020205231202020202020202046310D0A64
:102B200000000000467020202020202020205A6D28
:102B3000617820202020202046320D0A000000006D
:102B4000516D20202020202020206B6566662020EB
:102B50002020202046322D46310D0A0043542020EB
:102B60002020202020204331202020202020202031
:102B700043300D0A000000004C310D0A0000000037
:102B80000D0A4672652020202020496D70202020EB
:102B900020202020416E670D0A00000040C600087A
:102BA00094000020256400002E54585400000000BA
:102BB000A8000020252D31302E31660000408F40C6
:102BC0006397A8DE1A58F23F252D31302E32660069
:102BD00080842E41D1967329AE2AE33F105839B430
:102BE000C876F03F252D31302E3366000AD7A3700A
:102BF0003D0AEF3F252D31302E3466005FA00242A2
:102C000016139B8F6B43F73FE885002019AC0EC469
:102C10001C903022FE490DA806F0EAFB34216846DC
:102C200006F018FCFC4CFB48E16950F82120FBA1A0
:102C300021A806F0C1F9FB48E16950F82120FAA16A
:102C40001DA806F0B9F9FA48E16950F8210009F029
:102C500017FA02460B46F7A119A806F0ADF921A90B
:102C60000DA806F031FB1DA90DA806F070FB19A9EF
:102C70000DA806F06CFBAFF290110DA806F067FBF3
:102C8000EE4D0DA9681C06F01FFB0DA806F040FBD9
:102C9000287006F037F8FFF733FDE069401CE0616B
:102CA0001421B0FBF1F201FB1201002918D16421BB
:102CB00048434FF47A75B0FBF5F218210020FEF777
:102CC000ECFFE06964214843B0FBF5F2AFF22C1150
:102CD000684606F071F96A4619210020FEF7BEFF2A
:102CE00025B030BDF0B500234E1E12E05A1C174629
:102CF00092B20BE030F8134030F81250AC4203D9D6
:102D000020F8135020F81240521C92B28A42F1D39C
:102D1000BBB2B342EADBCB0721F0010201D0805AFB
:102D2000F0BD4FF0FF3303EB510130F81110805A22
:102D300008444008F0BD10B50023002204E030F83C
:102D400012402344521C92B28A42F8D3B3FBF1F0F2
:102D500080B210BD70B5002503881C46012206E034
:102D600030F812609E4200D23346521C92B28A4220
:102D7000F6D3012206E030F81260A64200D93446AC
:102D8000521C92B28A42F6D3002205E030F812605B
:102D90003544ADB2521C92B28A42F7D3281BC01AF6
:102DA000891E90FBF1F080B270BDF0B500234E1E7D
:102DB00012E05A1C174692B20BE030F9135030F96A
:102DC0001240A54203DD20F8134020F81250521C97
:102DD00092B28A42F1D3BBB2B342EADBCB0721F015
:102DE000010201D0805EF0BD4FF0FF3303EB5101D3
:102DF00030F91110805E084400EBD070401000B232
:102E0000F0BD2DE9F04790B0064600243C2101A812
:102E100006F020FB8A48018821F01001018001881A
:102E200041F0010101800027864D4FF47A7A0DF1BF
:102E30000408DFF814920CE02F802888032802D0C1
:102E40005046FDF739FAB9F8000028F81400641C60
:102E5000A4B2B442F0D3314601A8FFF7A6FF6E49F1
:102E6000C86310B0BDE8F0872DE9F04194B0074683
:102E700028210AA806F0EEFA2821684606F0EAFAA8
:102E800000240AAEE846714D0DE0288826F81400AB
:102E90006420FDF711FA688828F814006420FDF713
:102EA0000BFA641CA4B2BC42EFD339460AA8FFF760
:102EB00019FF594C608039466846FFF713FFA08020
:102EC00014B0BDE8F0812DE9F04153490022604B78
:102ED000D1E91E0108F0C4FD08F02EFD04465D4F47
:102EE0003C21384602F00EF9A221384602F00AF9D8
:102EF0001621384602F006F90221384602F002F99E
:102F0000E1B2384602F0FEF8E0B280F01405C4F3F6
:102F100007210E46384602F0F5F87540C4F3074124
:102F20000E46384602F0EEF87540210E384602F0A3
:102F3000E9F885EA14640021384602F0E3F800213C
:102F4000384602F0DFF80021384602F0DBF80021B5
:102F5000384602F0D7F80021384602F0D3F80021B5
:102F6000384602F0CFF80021384602F0CBF80021B5
:102F7000384602F0C7F80021384602F0C3F80021B5
:102F8000384602F0BFF80021384602F0BBF80021B5
:102F9000384602F0B7F80021384602F0B3F80021B5
:102FA000384602F0AFF80021384602F0ABF821466F
:102FB000384602F0A7F8BDE8F0414FF4FA50FDF7AB
:102FC0007BB92DE9F05F1448134A0523C588062014
:102FD000214C224FDFF88880224E92884FF0040C5B
:102FE0004FF0030A4FF002094FF480414FF4005BA9
:102FF000082D44D2DFE805F04304456C91B8DFF4B6
:10300000054D282A3BD8A5F8069020462CE0000064
:1030100080C60008E8550020A8000020252D38644F
:1030200000000000E80D0020252D31306400000074
:10303000E8450020252D382E32660000E885002066
:10304000200800400800002014000020020000209A
:1030500080842E41003801400018014000002041CA
:103060000000F0410000C84201F03CFD4FF43F4138
:10307000204601F035FDFE48FDF71EF92F63BDE83F
:10308000F09FFC4D282A10D8A5F806A059462046E6
:1030900001F028FD4FF45F41204601F021FDF44886
:1030A000FDF70AF9C5F83080E9E7C82AE7D301201F
:1030B000E880C103204601F015FD4FF4FE41204693
:1030C00001F00EFDEA48FDF7F7F8EB482863D6E774
:1030D000E84D282A10D8A5F806C04FF480512046A4
:1030E00001F000FD4FF46F41204601F0F9FCE0488B
:1030F000FDF7E2F82E63C2E7C82AC0D3A5F8069010
:10310000204601F0EFFC4FF43F41204601F0E8FC7F
:10311000D748FDF7D1F82F63B1E7D64D282A10D84C
:10312000EB804FF40061204601F0DCFC4FF4774166
:10313000204601F0D5FCCE48FDF7BEF8CF48286305
:103140009DE7FA2A9BD3A5F806A05946204601F030
:10315000C9FC4FF45F41204601F0C2FCC448FDF7B2
:10316000ABF8C5F830808AE7C24D282A10D8E8802D
:103170004FF48061204601F0B5FC4FF47B412046BE
:1031800001F0AEFCBA48FDF797F8BD48286376E732
:10319000FA2A89D3A5F806C04FF48051204601F0E1
:1031A000A1FC4FF46F41204601F09AFCB048FDF7B6
:1031B00083F82E6363E7AF4D282A12D80720E880F2
:1031C0004FF40071204601F08DFC4FF47D41204604
:1031D00001F086FCA648FDF76FF8AA4828634EE781
:1031E00012E0FA2A87D3EB804FF40061204601F009
:1031F00079FC4FF47741204601F072FC9C48FDF7C2
:103200005BF89E4828633AE79A4D322A10D8082086
:10321000E8804101204601F065FC4FF47E412046E4
:1032200001F05EFC9248FDF747F89748286326E7CF
:10323000FA2A85D3E8804FF48061204601F052FCE1
:103240004FF47B41204601F04BFC8948FDF734F8F0
:103250008B48286313E72DE9F74F88B04FF000093A
:10326000CB46002002908046DDE90810401A4FF45A
:103270007A71B0FBF1F1DFF8FCA1CAF82C106421DF
:10328000B0FBF1F001900120AAF806007A48CAF8D4
:1032900030007E4900200880FFF7AEF90898CAF890
:1032A000200083E14FF47A74B0FBF4F34946784A86
:1032B00009F101091FFA89F942F82130B0FBF4F055
:1032C0000221FFF746F942F21070FCF7F5FF1420D7
:1032D000FFF7CAFD1420FFF794FDBAF8040008F0C8
:1032E000D5FFDAF8301008F0F7FECAF838004FF4CE
:1032F00080616848FFF7B0F9FEF71FFF6648008855
:1033000001287DD00199089808F1010201FB020013
:10331000DAF82010884213D29046B8F1640F0FD229
:10332000424618210020FEF7B8FC4246AFF28C71ED
:1033300002A805F041FE02AA19210020FEF78EFC2A
:10334000BAF80400584506D38346DAF82000B0FBEB
:10335000F4F0CAF834004A49DAF8300008F0AAFF5D
:1033600008F08EFE04460D46DAF8380008F088FEB4
:103370004A4A4B4B08F01CF90646BAF802000F46C1
:10338000079008F01DFB474A474B08F069FB32469F
:103390003B4608F00DF90022444B08F061FB224641
:1033A0002B4608F083FD08F0C7FACAF8280040F25F
:1033B000DC51884209D208F003FB3D4A3D4B08F03E
:1033C0004FFB08F0B9FACAF82800DAF828004FF4E1
:1033D000FA74A0F2DC51A14209D208F0F1FA364A9F
:1033E000364B08F03DFB08F0A7FACAF82800DAF8D7
:1033F0002800A0F5FA61A1420BD808F0E1FA00E03C
:10340000C0E02F4A2F4B08F02BFB08F095FACAF8C2
:103410002800DAF8280040F6C312A0F6C511914240
:103420000AD808F0CDFA224A274B524208F018FB7E
:1034300008F082FACAF828002449DAF828008842FD
:1034400009D308F0BDFA224A224B08F009FB08F024
:1034500073FACAF828002048BAF81040DAF82810A1
:10346000564640F82410F06B011241EA002135E085
:1034700020A10700A80000200000A0400000964303
:1034800000007A4400803B4500401C4614000020A8
:10349000E8550020E401002026000020B6B9313DA7
:1034A00061A90C40A8C64B378961244000005940EF
:1034B0001F85EB51B81EED3F3D0AD7A3703DEE3F8F
:1034C0000E2DB29DEFA7EE3F47E1EE3FC0C62D00A7
:1034D00085EB51B81E85EF3FE80D0020FE4A22F82B
:1034E0001410A2F50062079922F81410A0F21C70C3
:1034F00008F0B4FEF94908F0EFFDF94941F824005D
:10350000F84908F0E9FD08F0BBFDF74AF74B08F071
:10351000A7FA07F05FFF08F0B3FD0746069107F032
:10352000FBFE04460D463846069907F0F5FE224696
:103530002B4608F095FA0022ED4B07F07DFF04467C
:103540000D46B06A08F03CFA02460B4608F088FACD
:1035500022462B4608F02CF807F0B8FE0446B06A65
:103560000D46074608F02CFA22462B4608F09EFC32
:1035700008F0E2F9B0643A18DE49308A41F82020B8
:1035800020B107E001200BB0BDE8F08FD2490988D7
:10359000AAF81610401CAAF81000FFF712FDDAF87E
:1035A0002C10DAF820000844CAF82000DAF82000CD
:1035B000099988427FF676AEDFF81C93BAF81600B8
:1035C0005646A9F80000316A4FF47A77B1FBF7F15B
:1035D00031624FF4806A5146C74801F083FA4FF4D4
:1035E0007B41C54801F07CFAC448FCF765FE022126
:1035F0003846FEF7AEFFC148FCF75EFEBF48FCF759
:103600005BFE1420FFF730FCB08808F0D9F9BC4A03
:10361000BC4B07F0CDFFDFF8F0820022434607F0F5
:10362000C7FF04460D46708808F0CAF9B74AB84B80
:1036300008F016FA22462B4607F0BAFFB54AB64BF9
:1036400008F00EFAC6E91C01DFF8A4B202460B46E8
:103650000020594607F0ACFFC6E91E014FF40041B7
:10366000A54801F03FFA5146A34801F039FAA348B2
:10367000FCF722FE0020A9F50061A1F52054B1F865
:10368000642021F81020B9F8142029F81020A26A2B
:1036900044F82020401C80B20A28F0D3206830640F
:1036A00070620020726A54F82010914201D2716257
:1036B0007083326C914201D931643083401C80B2F6
:1036C000B842EFD30025DFF854A254F8250008F0E3
:1036D00077F907F089FD0022434608F0C1F908F0A8
:1036E0002BF9C0F3072954F8250008F069F907F011
:1036F0007BFD0022434608F0B3F908F01DF949EAC2
:1037000000202AF815006D1CADB2BD42DDD3306C2F
:1037100008F056F907F068FD0022434608F0A0F9CA
:1037200008F00AF97082706A08F04AF907F05CFD47
:103730000022434608F094F908F0FEF8B082784D74
:103740004FF48059288801282DD1306C010C7181EB
:10375000716A090C318108F033F907F045FD002248
:10376000434608F07DF908F0E7F8B081706A08F088
:1037700027F907F039FD0022434608F071F908F0F7
:10378000DBF8F0810020674954F82020120C21F862
:103790001020401C80B2B842F6D34F494A46A1F5EA
:1037A000805005F0E0FD2888D0BB4A465B495D4863
:1037B00005F0D9FD48494A46A1F5805005F0D3FDF2
:1037C000306C08F0FDF807F00FFD0022434608F0CA
:1037D00047F908F0B1F87081706A08F0F1F807F065
:1037E00003FD0022434608F03BF908F0A5F83081BC
:1037F000306C08F0E5F807F0F7FC0022434608F0CB
:103800002FF908F099F8B081706A08F0D9F807F03C
:10381000EBFC0022434608F023F908F08DF8F08114
:10382000DFF8BCA0708B2F495AF8200008F054FC38
:1038300008F026FC2C4A2D4B08F012F907F0CAFDBF
:1038400008F01EFC8146059107F066FD04460D4612
:103850004846059907F060FD22462B4608F000F91E
:1038600000225B4607F0E8FD04460D46706A08F04A
:10387000A7F802460B4608F0F3F822462B4607F05D
:1038800097FE07F023FD08F057F87064716A081A74
:10389000B0640844F064308B12495AF8200008F0F4
:1038A0001BFC08F0EDFB104A104B08F0D9F807F0AC
:1038B00091FD08F0E5FB8A46814607F02DFD0446A0
:1038C0000D464846514607F027FD22462B4608F094
:1038D000C7F800225B4627E0E83D002000002041B9
:1038E000E845002000003443282D4454FB210940C2
:1038F0000000F03FE865002000180140404B4C00FC
:10390000041C42959A5D0B4000408F4000A94D9CDD
:10391000DCAF204019944A702F8BB840E81D00207E
:1039200036000020E825002007F086FD04460D46FD
:10393000306C08F045F802460B4608F091F8224634
:103940002B4607F035FE07F0C1FC0446306C0D46EF
:10395000814608F035F822462B4608F0A7FA07F012
:10396000EBFF306548447065FD4C308B54F8200007
:10397000B065708B54F82000F06564221821002097
:10398000FEF78BF96422AFF6E45102A805F014FBB0
:1039900002AA19210020FEF761F900203082708B05
:1039A0000146C0B104F58053D6F840C0756AF26C88
:1039B00007E008B1401E80B2491C89B2BCEB450F3C
:1039C00009D953F82090B9EB420F04D853F821904D
:1039D000B9EB420FEDD9401C54F820003066491E67
:1039E00054F821107166081AB0660021491C89B28A
:1039F000B942FBD3B24607F0E3FF06460446DAF8C5
:103A00005C0089460D46049007F0DAFF22462B46FB
:103A100007F0CEFDDFF84CB3CBE900013046494654
:103A20000022D14B07F0C4FDD04AD14B08F018F862
:103A300004460D46DAF8240007F0C2FF0022CA4B04
:103A400007F0B6FD22462B4607F0B2FDCBE9020196
:103A50000022C54B08F004F804460D4604984FF4C4
:103A60007A71B0FBF1F007F0ABFF06460F46049801
:103A70004FF47A71B0FBF1F007F0A2FFBD4ABE4BE4
:103A800007F0EEFF32463B4607F0EAFF22462B46A0
:103A900007F0E6FF02460B460020B84907F088FD14
:103AA000B74AB84B07F0DCFF04460D46CBE90401EA
:103AB000DAE91E014FF00052B34B07F0D1FF224666
:103AC0002B4608F0F3F9CBE90601DAF858004FF479
:103AD0007A710390B0FBF1F0404307F071FF80462C
:103AE000894604984FF47A71B0FBF1F007F068FF53
:103AF00004460D4604984FF47A71B0FBF1F007F0DC
:103B00005FFF22462B4607F0ABFF04460D460398A5
:103B10004FF47A71B0FBF1F007F052FF06460F4602
:103B200003984FF47A71B0FBF1F007F049FF324689
:103B30003B4607F095FF22462B4608F0B7F9424670
:103B40004B4607F035FD07F0C1FBCBE90801DAF879
:103B5000580007F035FF02460B468CA102A805F07D
:103B60002BFA02AA0A210020FEF778F8DAF85400AE
:103B700007F026FF0022874B07F01AFD864A874B85
:103B800007F06EFF02460B46AFF6C47102A805F0BF
:103B900013FA02AA14210020FEF760F8DAF85C009C
:103BA00007F00EFF02460B46AFF6F87102A805F0CB
:103BB00003FA02AA09210020FEF750F8DAF86000A3
:103BC00007F0FEFE02460B46754902A805F0F4F91F
:103BD00002AA0E210020FEF741F8DAF8640007F08F
:103BE000EFFE02460B466E4902A805F0E5F902AA6F
:103BF0000F210020FEF732F8DBE90001694A6A4B29
:103C000007F02EFF0B4666490246303102A805F048
:103C1000D3F902AA0C210020FEF720F8DBE9080105
:103C2000624A634B07F01CFF0B465D490246403178
:103C300002A805F0C1F902AA12210020FEF70EF831
:103C40005749DBE90623403102A805F0B5F902AA7D
:103C500010210020FEF702F85149DBE9042340312E
:103C600002A805F0A9F902AA11210020FDF7F6FF2C
:103C7000DBE902014F4A504B07F0F2FE0B46484980
:103C80000246303102A805F097F902AA152100205A
:103C9000FDF7E4FFDAF8680007F092FE0B464049B2
:103CA0000246303102A805F087F902AA132100204C
:103CB000FDF7D4FFDAF84C0007F082FE00222A4B11
:103CC00007F076FC3D4A3E4B07F0CAFE02460B4623
:103CD000AFF6A04102A805F06FF902AA0B2100205F
:103CE000FDF7BCFFDAE91E014FF00052264B07F04A
:103CF000B7FE02460B4633A102A805F05DF902AA01
:103D00000D210020FDF7AAFF002202211046FEF738
:103D1000AEF802210020FEF71CFCFEF7E7FB0020B6
:103D200031E42DE9F05F0446DDE90EABDDE90C89F5
:103D30000D4616461F462548006807F041FE2246FC
:103D40002B4607F08BFF08D32148006807F038FEA8
:103D500022462B4607F048FE3CD20120BDE8F09FEA
:103D6000E85500202801002000408F40282D4454B1
:103D7000FB211940F745BEC93CBD434065CDCD414F
:103D8000DB8AFD65F7E4E43F5FA00242252D382E73
:103D90003166000080842E41D1967329AE2AE33F1C
:103DA000B42B0008105839B4C876F03F0AD7A37076
:103DB0003D0AEF3F16139B8F6B43F73F6397A8DED7
:103DC0001A58F23F252D382E346600004800002096
:103DD0004C000020FE48006807F0F2FD32463B46EA
:103DE00007F03CFF08D3FB48006807F0E9FD3246C6
:103DF0003B4607F0F9FD01D20120AFE7F648006825
:103E000007F0DEFDDDE90A2307F028FF08D3F348B9
:103E1000006807F0D5FDDDE90A2307F0E5FD01D2D2
:103E200001209BE7EE48006807F0CAFD42464B467A
:103E300007F014FF08D3EB48006807F0C1FD4246C5
:103E40004B4607F0D1FD01D2012087E7E648006824
:103E500007F0B6FD52465B4607F000FF08D3E34883
:103E6000006807F0ADFD52465B4607F0BDFD01D28C
:103E7000012073E7DE48006807F0A2FDDDE91023AA
:103E800007F0ECFE08D3DB48006807F099FDDDE998
:103E9000102307F0A9FD01D201205FE7D648006892
:103EA00007F08EFDDDE9122307F0D8FE08D3D348D2
:103EB000006807F085FDDDE9122307F095FD01D2CA
:103EC00001204BE7CE48006807F07AFDDDE91423B6
:103ED00007F0C4FE08D3CB48006807F071FDDDE9A8
:103EE000142307F081FD01D2012037E7C64800689E
:103EF00007F066FDDDE9162307F0B0FE08D3C348DE
:103F0000006807F05DFDDDE9162307F06DFD01D2C5
:103F1000012023E7002021E72DE9FE4F064600247B
:103F20000294BB4D286807F04BFD02460B46B9A131
:103F300002A805F041F802AA08210020FDF78EFE34
:103F4000DFF8D882B64F4FF0050944F2506A4FF0BF
:103F5000B40B002E55D1286807F032FD02460B46FF
:103F6000ACA102A805F028F802AA1F210020FDF745
:103F700075FED8F8000007F023FD02460B46A5A108
:103F800002A805F019F802AA20210020FDF766FE1C
:103F9000286807F015FD02460B469EA102A805F011
:103FA0000BF802AA22210020FDF758FED8F80000E5
:103FB00007F006FD02460B4696A102A804F0FCFF9E
:103FC00002AA23210020FDF749FECDE90049002285
:103FD000212317211046FEF75CF879893889B92327
:103FE000081A9AFBF0F2584390FBFBF0081A92B2C1
:103FF00000B2CDE900022123002219461046FEF747
:1040000048F8012E55D1286807F0DAFC02460B4625
:1040100080A102A804F0D0FF02AA1F210020FDF712
:104020001DFED8F8000007F0CBFC02460B4679A134
:1040300002A804F0C1FF02AA20210020FDF70EFE15
:10404000286807F0BDFC02460B4672A102A804F0E6
:10405000B3FF02AA22210020FDF700FED8F80000DD
:1040600007F0AEFC02460B466AA102A804F0A4FFCA
:1040700002AA23210020FDF7F1FDCDE9004900222D
:10408000212317211046FEF704F879893889B923CE
:10409000081A9AFBF0F2584390FBFBF0081A92B210
:1040A00000B2CDE900022123002219461046FDF797
:1040B000F0FF01218F07384601F08BFC594D4FF47A
:1040C000FA66296849B1012907D80022564B2121F7
:1040D00010460096FDF792FFF3E7022908D0032966
:1040E000EFD32C600021384601F073FCBDE8FE8F51
:1040F00000224E4B172110460096FDF77FFFE0E7A8
:104100002DE9F04F93B004460D46164601221921C1
:104110000020FDF7ACFE324629462046FFF79BF80B
:10412000DFF8FC90012848D041480088FFF7F4FEF2
:1041300009F180013F4AD1E902013F4B07F090FCB1
:1041400080460446064612910D460F46D9F84C00AB
:1041500007F036FC0022394B07F02AFA384A394B6F
:1041600007F07EFCCDE91010CDE90E01D9F85C0016
:1041700007F026FCDDF84890CDE90C45284DCDE947
:104180000A678035D5E90645CDE90845DDE90E2306
:104190008DE8300304AC0FC4FFF7C3FD01285DD0E8
:1041A00002221A210020FDF762FE13B00022BDE8B2
:1041B000F04F19211046FDF75ABEFEF7CAF800204D
:1041C000A9F81000204C4FF4004120463EE00000CA
:1041D0005000002054000020580000205C00002007
:1041E0006000002064000020680000206C000020B7
:1041F0007000002074000020780000207C00002067
:104200008000002084000020880000208C00002016
:1042100040000020252D372E30660000440000208D
:10422000A80000201C000020E8250020E82D002028
:104230003600002016139B8F6B43F73F00408F40E2
:104240006397A8DE1A58F23F0018014000F04AFCBC
:104250004FF4FE41204600F043FCA6E73C20FDF76A
:1042600014FB01221A210020FDF701FE9DE70FB487
:1042700070B5C2B0002447AB0193FF2102A8469A53
:1042800004F074FEFE4E02AD0CE02046641C295C76
:10429000E4B2304600F036FF8021304600F0A2FF45
:1042A0000028F9D0FF2C02D2285D0028EDD142B0C1
:1042B00070BC5DF814FB70B50546002404E0F1A065
:1042C000FFF7D5FF641CE4B2AC42F8D370BD10B563
:1042D000EB4C40F22551204600F08FFF002804D01F
:1042E000204600F016FFE849087010BDF0B587B011
:1042F000002506951422E54901A805F079F8012268
:104300001C210020FDF76CFC00F06AFA02F02CFC86
:1043100002F000FCDE4C05E002F0F3FC28B1642062
:1043200000F08CFA20780228F6D3C82000F086FA34
:10433000D8A004F035FE0024642000F07FFAD8A055
:1043400004F02EFE04F0D6FA18B1641CA4B2052CB9
:10435000F2D3FEF7DEF9CC4CE5614FF47A76FEF746
:10436000A7FBE069B042FAD3D0490120087004F0FD
:104370000AF8FEF7C5F9E561642218210020FDF76F
:104380008CFC6422CAA106A804F016FE06AA192114
:104390000020FDF763FC4FF4FA7000F04FFA0320A1
:1043A000FDF7FCFBC34F4FF400663146384600F082
:1043B00097FBC148FBF780FF3146384600F092FB7F
:1043C000E561BE4C2046FBF777FF2046FBF774FF04
:1043D0002046FBF771FF0020FDF7E0FB07B0F0BDC2
:1043E0002DE9F84F002000905A21B5A0FFF73FFFBC
:1043F000A3490F20091D08800E1F30884006FCD5F8
:10440000A14CE06D07F0DCFA02460B46AD49684668
:1044100004F0D2FD6946ACA0FFF729FF5621A8A001
:10442000FFF725FF9DF80050E06C07F0C9FA002265
:10443000A64B07F0BDF8A64AA64B07F011FB0246B3
:104440000B46A549684604F0B7FD6946A3A0FFF7EF
:104450000EFF9DF800702F40562199A0FFF707FF2F
:10446000206E07F0ADFA02460B469649684604F006
:10447000A3FD694699A0FFF7FAFE9DF8008008EABF
:10448000070856218EA0FFF7F2FEA06D07F098FAFC
:1044900002460B46AFF20C71684604F08DFD69468A
:1044A0008EA0FFF7E4FE9DF8005005EA08055621AE
:1044B00083A0FFF7DCFE606D07F082FA0022884BD4
:1044C00007F076F8874A884B07F0CAFA0B467D4911
:1044D00002461431684604F06FFD69467FA0FFF77D
:1044E000C6FE9DF8008008EA0508562174A0FFF773
:1044F000BEFE606E07F064FA02460B4671496846DC
:1045000004F05AFD694675A0FFF7B1FE9DF80070F2
:1045100007EA080756216AA0FFF7A9FE04F1800503
:10452000724AD5E90001724B07F09AFA0B466549C9
:1045300002463031684604F03FFD694667A0FFF748
:1045400096FE9DF8008008EA070856215CA0FFF758
:104550008EFED5E90801674A674B07F081FA0B46E2
:10456000584902464031684604F026FD69465BA082
:10457000FFF77DFE9DF8009009EA0809562150A03A
:10458000FFF775FEA06E07F01BFA0B464D49024679
:104590003031684604F010FD694650A0FFF767FE11
:1045A0009DF8007007EA0907562145A0FFF75FFE56
:1045B000D4E91E014FF00052504B07F051FA024669
:1045C0000B46AFF60001684604F0F6FC694643A0CE
:1045D000FFF74DFE9DF800403C40562138A0FFF704
:1045E00046FE3849D5E904234031684604F0E4FC2E
:1045F00069463AA0FFF73BFE9DF800702740562120
:104600002FA0FFF734FE2F49D5E906234031684635
:1046100004F0D2FC694631A0FFF729FE9DF8004066
:104620003C40562126A0FFF722FED5E90201344A7C
:10463000344B07F015FA0B462249024630316846E2
:1046400004F0BAFC694625A0FFF711FE9DF8005062
:10465000254056211AA0FFF70AFE5721304600F0E8
:1046600051FD2946304600F04DFD4FF47A7B584607
:10467000FBF722FE0024244FA7F5904946E00000F6
:104680000044004020000000A8000020B0C6000840
:10469000810100206469736B20696E69740A0000EF
:1046A0005265616479203F0A00000000E88500201F
:1046B0002564000000080140801A060000093D0042
:1046C00025630000B42B00082553000000408F40F4
:1046D0006397A8DE1A58F23F3430000825532000B3
:1046E00080842E41D1967329AE2AE33F105839B405
:1046F000C876F03F0AD7A3703D0AEF3F5FA00242A1
:1047000016139B8F6B43F73FE8550020A7F58058A1
:104710005A21AFF25400FFF7AAFDF021304600F015
:10472000F1FC57F824102BA0FFF7A1FD5621AFF2A2
:104730007000FFF79CFD57F8240007F041F902468E
:104740000B462549684604F037FC9DF800A059F84F
:10475000241020A0FFF78BFD5621AFF29C00FFF73D
:1047600086FD59F8240007F02BF902460B461A493A
:10477000684604F021FC9DF8005005EA0A0558F847
:10478000240007F07DFC02460B4614A0FFF76FFDE6
:104790005621AFF2D400FFF76AFD58F8240007F065
:1047A0006FFC02460B460C49684604F005FC9DF878
:1047B00000A00AEA050A5721AFF2FC00FFF757FDF7
:1047C0005146304600F09EFC641CA4B25C459FD369
:1047D000BDE8F88F256C6400B42B00082566000046
:1047E00010B56FF0040000F08FF8204820490068F1
:1047F000B0FBF1F01F49C0B2087000EB4002C2EB01
:10480000C0104FF6FF7202EAC000488010BD19497F
:10481000097848434FF0E021486100238B61086923
:1048200040F0010008610869C20701D0C003FAD551
:10483000086920F0010008618B6170470D494988C3
:1048400048434FF0E021486100238B61086940F044
:10485000010008610869C20701D0C003FAD50869E0
:1048600020F0010008618B61704700006C0100209E
:1048700000127A00540100202A4908432A4908609E
:10488000704770B50F23C27801260178002A1ED028
:10489000254A126802F4E062C2F5E062120AC2F12F
:1048A0000404D3404578A54082781A402A43120177
:1048B00001F1E02181F80024007800F01F018E4012
:1048C0004009800000F1E020C0F8006170BD01F0F7
:1048D0001F0086404809800000F1E020C0F8806198
:1048E00070BD124A114001430F48001F016070471C
:1048F0000D4A121D002903D0116801431160704751
:1049000011688143116070474FF0E021042804D002
:10491000086920F0040008617047086940F004004D
:10492000086170470000FA050CED00E080FFFF1FF2
:1049300010B59C49884209D10121042000F07DFA7C
:104940000021BDE81040042000F077BA9649884263
:1049500009D10121082000F070FA0021BDE81040C3
:10496000082000F06ABA9149884209D1012110203B
:1049700000F063FA0021BDE81040102000F05DBA9D
:104980008B49884209D10121202000F056FA0021EC
:10499000BDE81040202000F050BA8649884209D175
:1049A0000121402000F049FA0021BDE810404020DC
:1049B00000F043BA8049884209D10121802000F0EB
:1049C0003CFA0021BDE81040802000F036BA7B4957
:1049D00088420AD184150121204600F02EFA204693
:1049E000BDE81040002100F028BA10BD10B501212B
:1049F000084600F022FA0021BDE81040012000F036
:104A00001CBA2DE9F0410022CC7804F00F03E40633
:104A100001D58C7823430C784FF00F0714F0FF0F6B
:104A20004FF0010C1CD005680CFA02F40E882640E9
:104A3000A64211D1960007FA06F825EA080503FAFE
:104A400006F848EA0505CE78282E02D0482E02D076
:104A500002E0446100E00461521C082AE4D30560CE
:104A60000A88FF2A1ED94568002202F108060CFABE
:104A700006F40E882640A64210D1960007FA06F8E2
:104A800025EA080503FA06F848EA0505CE78282E37
:104A900000D14461CE78482E00D10461521C082A0E
:104AA000E3D34560BDE8F0814FF6FF71018002213C
:104AB00081700421C17070470246002092680A424A
:104AC00000D001207047806880B270470246002005
:104AD000D2680A4200D001207047C06880B2704797
:104AE0000161704741617047002A01D00161704740
:104AF00041617047C160704741F4803282618161D9
:104B0000826181698069704710B52D4B1A684FF634
:104B10008074224042EA00100843186010BD294901
:104B2000C8617047F0B5264C002801DAE36900E05F
:104B30006368C0F30346420D120185B2C0F301570A
:104B40009540032F07D0C2020CD50322B2409343F5
:104B500043F0706209E023F07062636823F07063D1
:104B6000636002E0AB4343F0706201B12A43002866
:104B700001DAE261F0BD6260F0BD10B58A07120F84
:104B80000F23934021F003040D4921448C689C437A
:104B90008C608B68904003438B6010BD0949DC3109
:104BA0000860704700080140000C014000100140FF
:104BB0000014014000180140001C01400020014089
:104BC0000000014000002042B448016841F00101AA
:104BD00001604168B24A114041600168B14A114028
:104BE0000160016821F480210160416821F4FE0127
:104BF00041604FF41F0181607047A8490A6822F4A0
:104C000080320A600A6822F480220A60B0F5803F90
:104C100007D0B0F5802F03D1086840F4A0200860C9
:104C20007047086840F480300860704703460020F1
:104C300059099A4A01290AD002290AD0516A03F077
:104C40001F02012393400B4200D0012070471168DE
:104C5000F5E7116AF3E718B5002000904FF4A0645F
:104C60003120FFF7E3FF0099491C00910099A14210
:104C700001D00028F4D03120FFF7D8FF08B101207F
:104C800018BD002018BD854A116821F0F80141EADD
:104C9000C000106070478449086070477F4B5A68B5
:104CA00022F47C1208431043586070477E4908661E
:104CB00070477A4A516821F00301014351607047FF
:104CC0007648406800F00C007047744A516821F043
:104CD000F001014351607047704A516821F4E0616E
:104CE0000143516070476D4A516821F4605141EAB7
:104CF000C00050607047694A002903D0517A0143CF
:104D000051727047517A8143517270476649D83168
:104D100008607047614A516821F440410143516085
:104D200070475E49002220310A7001F820290128CD
:104D300005D0042802D1052081F820007047012009
:104D400081F82000704759490860704753490A6A42
:104D500002430A627047554944390860704710B5EC
:104D60004E4A516801F00C01514B002927D004290B
:104D700027D0082927D00360516801F0F001090904
:104D80004C4B5C5C0168E1404160546804F4E064B1
:104D9000240A1C5D21FA04F48460546804F460540D
:104DA000E40A1B5DD940C160526802F44042920B94
:104DB000404B1B1F9A5CB1FBF2F1016110BD036017
:104DC000DAE70360D8E7516801F47011536803F41F
:104DD0008033022404EB914133B153689B0307D520
:104DE000354B59430160C7E7334B59430160C3E773
:104DF0002F4B59430160BFE7284A002903D051696E
:104E00000143516170475169814351617047234AA1
:104E1000002903D0916901439161704791698143F1
:104E2000916170471D4A002903D0D1690143D161C6
:104E30007047D1698143D1617047184A002903D076
:104E4000D1680143D1607047D1688143D160704718
:104E5000124A002903D01169014311617047116999
:104E600081431161704711494039086070470E490C
:104E7000C86470470949C87170470848416A41F0E1
:104E800080714162704701460020044A92680A42DC
:104E900000D001207047014988727047001002401D
:104EA0000000FFF8FFFFF6FE00004242800442428D
:104EB00000127A005C01002000093D0010B5E349B2
:104EC00088420AD101218C032046FFF7B6FF204615
:104ED000BDE810400021FFF7B0BFDD4988420AD18C
:104EE00001214C042046FFF7B3FF2046BDE81040E7
:104EF0000021FFF7ADBFD74988420AD101218C04B8
:104F00002046FFF7A5FF2046BDE810400021FFF72F
:104F10009FBFD14988420AD10121CC042046FFF726
:104F200097FF2046BDE810400021FFF791BFCB4915
:104F300088420AD101210C052046FFF789FF20464F
:104F4000BDE810400021FFF783BF10BD30B585B02C
:104F500004460D46208A4CF6FF710840E98801435B
:104F60002182A0894EF6F3110840A9882A891143AD
:104F70006A8902431143A181A08A4FF6FF4108408C
:104F8000A9890143A1826846FFF7E9FEAF48844240
:104F900001D1039800E00298A189090408D500EB2B
:104FA000C00101EB001029684900B0FBF1F007E0F7
:104FB00000EBC00101EB001029688900B0FBF1F0A3
:104FC0006422B0FBF2F109010B096FF018056B4385
:104FD00000EB8300A3891D044FF0320307D503EBD8
:104FE000C000B0FBF2F000F00700084306E003EB5E
:104FF0000010B0FBF2F000F00F000843208105B074
:1050000030BD4FF41651016000218180C1800181C3
:105010000C2242818181704710B5038A4FF2FF0252
:1050200013400A884C8822438C88C9880C43224349
:105030001A43028210BD0021018041808180C1801D
:105040007047002904D0818941F400518181704763
:10505000818921F400518181704710B540F66A13AF
:10506000C1F3421301F01F040121A140012B07D01D
:10507000022B07D014303AB102680A43026010BD17
:105080000C30F8E71030F6E702688A43026010BD82
:10509000002A03D0828A0A4382827047828A8A4326
:1050A00082827047028A22F00F020282028A0A4339
:1050B00002827047828922F40062828182890A43D7
:1050C00082817047002904D0818941F002018181E9
:1050D0007047818921F0020181817047028A22F0A4
:1050E00020020282028A0A4302827047002904D009
:1050F000018A41F4804101827047018A21F4804194
:1051000001827047C1F30801818001884906FCD5FE
:1051100070478088C0F308007047818941F0010121
:1051200081817047028BD2B20283028B42EA012155
:1051300001837047028B02F47F420283028B0A4391
:1051400002837047002904D0818A41F020018182C6
:105150007047818A21F0200181827047002904D0A4
:10516000818A41F0100181827047818A21F010010B
:1051700081827047002904D0818A41F00801818230
:105180007047818A21F0080181827047002904D08C
:10519000818941F40041818170478189C1F30E0109
:1051A00081817047002904D0818A41F400618182A5
:1051B0007047818A21F4006181827047828A22F0DF
:1051C00004028282828A0A4382827047002904D0C4
:1051D000818A41F0020181827047818A21F00201B7
:1051E000818270470246002012880A4200D00120C6
:1051F00070478A05C9430180704770B5002440F6A6
:105200006A12C1F3421301F01F05012606FA05F2E6
:10521000012B0CD0022B0DD0838A1340090A8E403B
:10522000008830400BB100B10124204670BD838955
:105230001340F3E7038A1340F0E740F66A120A0AC4
:1052400001219140C94301807047000000380140AE
:105250000044004000480040004C00400050004026
:1052600010B5FE4988420AD1C41401212046FFF737
:10527000E4FD2046BDE810400021FFF7DEBDB0F19F
:10528000804F0CD0F649884213D101210220FFF74C
:10529000DFFD0021BDE810400220FFF7D9BD01214C
:1052A0000846FFF7D5FD0021BDE810400120FFF7BB
:1052B000CFBDEC49884209D101210420FFF7C8FD88
:1052C0000021BDE810400420FFF7C2BDE649884236
:1052D00009D101210820FFF7BBFD0021BDE81040E6
:1052E0000820FFF7B5BDE149884209D1012110200E
:1052F000FFF7AEFD0021BDE810401020FFF7A8BD6C
:10530000DB49884209D101212020FFF7A1FD0021BE
:10531000BDE810402020FFF79BBDD64988420AD146
:10532000441401212046FFF788FD2046BDE81040C7
:105330000021FFF782BDD04988420AD10121CC0467
:105340002046FFF77AFD2046BDE810400021FFF718
:1053500074BDCA4988420AD101210C052046FFF7D5
:105360006CFD2046BDE810400021FFF766BDC44932
:1053700088420AD101214C052046FFF75EFD2046F8
:10538000BDE810400021FFF758BDBE49884209D151
:1053900001214020FFF75CFD0021BDE810404020C6
:1053A000FFF756BDB849884209D101218020FFF797
:1053B0004FFD0021BDE810408020FFF749BDB349F3
:1053C00088420AD1841501212046FFF741FD20467D
:1053D000BDE810400021FFF73BBDAD4988420AD12E
:1053E00001210C042046FFF728FD2046BDE81040AF
:1053F0000021FFF722BDA74988420AD101214C04B0
:105400002046FFF71AFD2046BDE810400021FFF7B7
:1054100014BDA14988420AD101218C042046FFF71E
:105420000CFD2046BDE810400021FFF706BD10BD71
:1054300030B50288894C8F4DA0420DD0A8420BD0C8
:10544000B0F1804F08D0864B984205D0854B9842EA
:1054500002D0854B984203D122F070034A881A4348
:10546000824B984206D0824B984203D022F440737C
:10547000CA881A4302808A8882850A880285A042E7
:105480000AD0A84208D0824A904205D0814A904270
:1054900002D0814A904201D1097A0186012181829C
:1054A00030BD30B5028C22F001020284028C838868
:1054B000048B24F0700424F003050C882C4322F0A4
:1054C00002020D8915434A882A43644DA8420BD035
:1054D000684DA84208D06E4DA84205D06D4DA84237
:1054E00002D06D4DA8420FD122F008054A892A4307
:1054F00022F004058A882A4323F4807323F400737E
:105500008D891D43CB892B4383800483C988818681
:10551000028430BD70B5028C22F010020284028C2D
:105520008388048B24F4E04424F440760D884FF6FD
:10553000FF7404EA0525354322F020020E8904EAAF
:10554000061616434A8804EA02123243434EB0421A
:1055500002D0484EB04217D122F080024E8904EAB0
:105560000616164326F040068A8804EA02123243E1
:1055700023F4806323F400638E8904EA86061E43C5
:10558000CB8904EA8303334383800583C988018779
:10559000028470BD70B5028C22F480720284028C89
:1055A0008388848B24F0700424F003040D88254341
:1055B00022F400720E894FF6FF7404EA06261643A1
:1055C0004A8804EA02223243244EB04202D0294ED5
:1055D000B04217D122F400664A8904EA022232431B
:1055E00022F480668A8804EA0222324323F480533C
:1055F00023F400538E8904EA06161E43CB8904EA7D
:105600000313334383808583C9888187028470BDF7
:1056100070B5028C22F480520284058C8288838BC0
:1056200023F4E04323F440760C884FF6FF7303EA3B
:105630000424344325F400550E8903EA06362E432C
:105640004D8803EA05353543044EB04202D0094E79
:10565000B04226D122F480468A891FE0002C014006
:105660000004004000080040000C00400010004012
:105670000014004000340140004C01400050014043
:105680000054014000180040001C00400020004071
:1056900000400140004401400048014003EA8212FA
:1056A000324382808483C988A0F84010058470BD8D
:1056B000828B22F440628283828B4FF6FF7303EA6F
:1056C00001210A4382837047F0B5048C24F480548E
:1056D0000484868B048C4FF6FF7505EA013726F4A7
:1056E000734605EA0222324305EA03331343F74ABD
:1056F00090420ED0F64A90420BD0B0F1804F08D0C5
:10570000F44A904205D0F44A904202D0F34A9042C3
:1057100005D124F40051394341F4805104E024F4CC
:1057200002420A4342F4805183830184F0BD828B9C
:1057300022F00C028283828B0A4382837047F0B589
:10574000048C24F480740484858B048C4FF6FF77DA
:1057500007EA012625F0F30507EA031313432B4359
:10576000DA4A90420ED0DA4A90420BD0B0F1804F24
:1057700008D0D84A904205D0D74A904202D0D74AA2
:10578000904205D124F40071314341F4807104E06A
:1057900024F420620A4342F4807183830184F0BDC3
:1057A000028B22F440620283028B4FF6FF7303EAFE
:1057B00001210A4302837047F0B5048C24F01004E1
:1057C0000484068B048C4FF6FF7505EA011726F456
:1057D000734605EA0333334305EA02221A43BB4BFF
:1057E00098420ED0BA4B98420BD0B0F1804F08D0FF
:1057F000B84B984205D0B84B984202D0B74B98426C
:1058000005D124F02001394341F0100104E024F0D7
:10581000A0030B4343F0100102830184F0BD028B0F
:1058200022F00C020283028B0A430283704770B598
:10583000048C24F001040484058B048C25F0F3050A
:105840004FF6FF7606EA031313432B439F4A904219
:105850000ED09F4A90420BD0B0F1804F08D09D4AA5
:10586000904205D09C4A904202D09C4A904205D179
:1058700024F002020A4342F0010104E024F00A028B
:105880000A4342F001010383018470BD70B50546EF
:105890000C468E48854209D08D48854206D0B5F128
:1058A000804F03D08B48854200D08B482088618888
:1058B000A288238958B1042811D0082817D0284677
:1058C000FFF702FFE1882846BDE87040F0E6284671
:1058D000FFF7ADFFE1882846BDE870409FE7284606
:1058E000FFF76AFFE1882846BDE8704058E7284680
:1058F000FFF725FFE1882846BDE8704017E72DE94E
:10590000F04107460C46002501266188002900D198
:105910000225A288012A00D102262088238988B185
:105920003846FFF749FFE1883846FFF739FF2389FA
:10593000324629463846FFF77AFFE1883846BDE807
:10594000F0416CE73846FFF772FFE1883846FFF711
:1059500066FF2389324629463846FFF72DFFE18846
:105960003846BDE8F0411BE710B50A884B88CC8863
:105970001A438B8823431A430B891A434B8989891D
:105980001A430A43A0F8442010BD4FF6FF718180EE
:1059900000210180C1804180017270470021018097
:1059A00041808180C180018141818181C1817047B5
:1059B00000210180418001228280C18001817047E5
:1059C0000021018041808180C180018141818181EC
:1059D0007047002904D0018841F00101018070471F
:1059E000018821F0010101807047002905D030F8BD
:1059F000441F41F400410180704730F8441FC1F357
:105A00000E0101807047002A03D082890A438281F7
:105A1000704782898A43828170478182704711432F
:105A2000A0F848107047002A03D082890A43828177
:105A3000704782898A4382817047018921F007017A
:105A400001817047028922F070020A430281704787
:105A500000B503461846FFF7F5FF188940F0070028
:105A6000188100BD70B50D4604461146602D0CD05E
:105A700001222046FFF7DBFE29462046FFF7E2FF22
:105A8000208940F00700208170BD01222046FFF7E9
:105A900093FEF1E730B50489E4B24FF6FF7505EAED
:105AA000032313430B432343038130BD10B5044646
:105AB0002046FFF7EFFF208920F0070040F00700A5
:105AC00020F0700040F07000208110BD002C0140DB
:105AD000003401400004004000080040000C004079
